{"abi":[{"inputs":[{"internalType":"uint256","name":"_minimumContribution","type":"uint256"},{"internalType":"address","name":"_creator","type":"address"},{"internalType":"string","name":"_campaignDescription","type":"string"}],"stateMutability":"nonpayable","type":"constructor"},{"inputs":[{"internalType":"uint256","name":"_index","type":"uint256"}],"name":"approveRequest","outputs":[],"stateMutability":"nonpayable","type":"function"},{"inputs":[{"internalType":"address","name":"","type":"address"}],"name":"balanceOfContributor","outputs":[{"internalType":"uint256","name":"","type":"uint256"}],"stateMutability":"view","type":"function"},{"inputs":[],"name":"campaignDescription","outputs":[{"internalType":"string","name":"","type":"string"}],"stateMutability":"view","type":"function"},{"inputs":[],"name":"contribute","outputs":[],"stateMutability":"payable","type":"function"},{"inputs":[{"internalType":"address","name":"","type":"address"}],"name":"contributor","outputs":[{"internalType":"bool","name":"","type":"bool"}],"stateMutability":"view","type":"function"},{"inputs":[{"internalType":"string","name":"_description","type":"string"},{"internalType":"uint256","name":"_value","type":"uint256"},{"internalType":"address payable","name":"_recipient","type":"address"}],"name":"createRequest","outputs":[],"stateMutability":"nonpayable","type":"function"},{"inputs":[{"internalType":"uint256","name":"_index","type":"uint256"}],"name":"disapproveRequest","outputs":[],"stateMutability":"nonpayable","type":"function"},{"inputs":[{"internalType":"uint256","name":"_index","type":"uint256"}],"name":"finalizeRequest","outputs":[],"stateMutability":"nonpayable","type":"function"},{"inputs":[],"name":"getAllRequests","outputs":[{"internalType":"uint256","name":"","type":"uint256"}],"stateMutability":"view","type":"function"},{"inputs":[],"name":"getResume","outputs":[{"internalType":"string","name":"","type":"string"},{"internalType":"uint256","name":"","type":"uint256"},{"internalType":"uint256","name":"","type":"uint256"},{"internalType":"uint256","name":"","type":"uint256"},{"internalType":"uint256","name":"","type":"uint256"},{"internalType":"address","name":"","type":"address"}],"stateMutability":"view","type":"function"},{"inputs":[],"name":"manager","outputs":[{"internalType":"address","name":"","type":"address"}],"stateMutability":"view","type":"function"},{"inputs":[],"name":"minimumContribution","outputs":[{"internalType":"uint256","name":"","type":"uint256"}],"stateMutability":"view","type":"function"},{"inputs":[],"name":"numRequests","outputs":[{"internalType":"uint256","name":"","type":"uint256"}],"stateMutability":"view","type":"function"},{"inputs":[{"internalType":"uint256","name":"","type":"uint256"}],"name":"requests","outputs":[{"internalType":"string","name":"description","type":"string"},{"internalType":"uint256","name":"value","type":"uint256"},{"internalType":"address payable","name":"recipient","type":"address"},{"internalType":"bool","name":"complete","type":"bool"},{"internalType":"uint256","name":"approvalCount","type":"uint256"},{"internalType":"uint256","name":"disapprovalCount","type":"uint256"}],"stateMutability":"view","type":"function"},{"inputs":[],"name":"voicesCount","outputs":[{"internalType":"uint256","name":"","type":"uint256"}],"stateMutability":"view","type":"function"}],"devdoc":{"kind":"dev","methods":{},"version":1},"evm":{"assembly":"    /* \"kickstarter.sol\":532:4550  contract kickstarter {... */\n  mstore(0x40, 0x80)\n    /* \"kickstarter.sol\":1385:1622  constructor (uint _minimumContribution, address _creator, string memory _campaignDescription) {... */\n  callvalue\n  dup1\n  iszero\n  tag_1\n  jumpi\n  0x00\n  dup1\n  revert\ntag_1:\n  pop\n  mload(0x40)\n  sub(codesize, bytecodeSize)\n  dup1\n  bytecodeSize\n  dup4\n  codecopy\n  dup2\n  dup2\n  add\n  0x40\n  mstore\n  dup2\n  add\n  swap1\n  tag_2\n  swap2\n  swap1\n  tag_3\n  jump\t// in\ntag_2:\n    /* \"kickstarter.sol\":1500:1508  _creator */\n  dup2\n    /* \"kickstarter.sol\":1490:1497  manager */\n  0x00\n  dup1\n    /* \"kickstarter.sol\":1490:1508  manager = _creator */\n  0x0100\n  exp\n  dup2\n  sload\n  dup2\n  0xffffffffffffffffffffffffffffffffffffffff\n  mul\n  not\n  and\n  swap1\n  dup4\n  0xffffffffffffffffffffffffffffffffffffffff\n  and\n  mul\n  or\n  swap1\n  sstore\n  pop\n    /* \"kickstarter.sol\":1541:1561  _minimumContribution */\n  dup3\n    /* \"kickstarter.sol\":1519:1538  minimumContribution */\n  0x01\n    /* \"kickstarter.sol\":1519:1561  minimumContribution = _minimumContribution */\n  dup2\n  swap1\n  sstore\n  pop\n    /* \"kickstarter.sol\":1594:1614  _campaignDescription */\n  dup1\n    /* \"kickstarter.sol\":1572:1591  campaignDescription */\n  0x02\n    /* \"kickstarter.sol\":1572:1614  campaignDescription = _campaignDescription */\n  swap1\n  dup1\n  mload\n  swap1\n  0x20\n  add\n  swap1\n  tag_6\n  swap3\n  swap2\n  swap1\n  tag_7\n  jump\t// in\ntag_6:\n  pop\n    /* \"kickstarter.sol\":1385:1622  constructor (uint _minimumContribution, address _creator, string memory _campaignDescription) {... */\n  pop\n  pop\n  pop\n    /* \"kickstarter.sol\":532:4550  contract kickstarter {... */\n  jump(tag_8)\ntag_7:\n  dup3\n  dup1\n  sload\n  tag_9\n  swap1\n  tag_10\n  jump\t// in\ntag_9:\n  swap1\n  0x00\n  mstore\n  keccak256(0x00, 0x20)\n  swap1\n  0x1f\n  add\n  0x20\n  swap1\n  div\n  dup2\n  add\n  swap3\n  dup3\n  tag_12\n  jumpi\n  0x00\n  dup6\n  sstore\n  jump(tag_11)\ntag_12:\n  dup3\n  0x1f\n  lt\n  tag_13\n  jumpi\n  dup1\n  mload\n  not(0xff)\n  and\n  dup4\n  dup1\n  add\n  or\n  dup6\n  sstore\n  jump(tag_11)\ntag_13:\n  dup3\n  dup1\n  add\n  0x01\n  add\n  dup6\n  sstore\n  dup3\n  iszero\n  tag_11\n  jumpi\n  swap2\n  dup3\n  add\ntag_14:\n  dup3\n  dup2\n  gt\n  iszero\n  tag_15\n  jumpi\n  dup3\n  mload\n  dup3\n  sstore\n  swap2\n  0x20\n  add\n  swap2\n  swap1\n  0x01\n  add\n  swap1\n  jump(tag_14)\ntag_15:\ntag_11:\n  pop\n  swap1\n  pop\n  tag_16\n  swap2\n  swap1\n  tag_17\n  jump\t// in\ntag_16:\n  pop\n  swap1\n  jump\t// out\ntag_17:\ntag_18:\n  dup1\n  dup3\n  gt\n  iszero\n  tag_19\n  jumpi\n  0x00\n  dup2\n  0x00\n  swap1\n  sstore\n  pop\n  0x01\n  add\n  jump(tag_18)\ntag_19:\n  pop\n  swap1\n  jump\t// out\n    /* \"#utility.yul\":7:82   */\ntag_20:\n    /* \"#utility.yul\":40:46   */\n  0x00\n    /* \"#utility.yul\":73:75   */\n  0x40\n    /* \"#utility.yul\":67:76   */\n  mload\n    /* \"#utility.yul\":57:76   */\n  swap1\n  pop\n    /* \"#utility.yul\":7:82   */\n  swap1\n  jump\t// out\n    /* \"#utility.yul\":88:205   */\ntag_21:\n    /* \"#utility.yul\":197:198   */\n  0x00\n    /* \"#utility.yul\":194:195   */\n  dup1\n    /* \"#utility.yul\":187:199   */\n  revert\n    /* \"#utility.yul\":211:328   */\ntag_22:\n    /* \"#utility.yul\":320:321   */\n  0x00\n    /* \"#utility.yul\":317:318   */\n  dup1\n    /* \"#utility.yul\":310:322   */\n  revert\n    /* \"#utility.yul\":334:411   */\ntag_23:\n    /* \"#utility.yul\":371:378   */\n  0x00\n    /* \"#utility.yul\":400:405   */\n  dup2\n    /* \"#utility.yul\":389:405   */\n  swap1\n  pop\n    /* \"#utility.yul\":334:411   */\n  swap2\n  swap1\n  pop\n  jump\t// out\n    /* \"#utility.yul\":417:539   */\ntag_24:\n    /* \"#utility.yul\":490:514   */\n  tag_47\n    /* \"#utility.yul\":508:513   */\n  dup2\n    /* \"#utility.yul\":490:514   */\n  tag_23\n  jump\t// in\ntag_47:\n    /* \"#utility.yul\":483:488   */\n  dup2\n    /* \"#utility.yul\":480:515   */\n  eq\n    /* \"#utility.yul\":470:533   */\n  tag_48\n  jumpi\n    /* \"#utility.yul\":529:530   */\n  0x00\n    /* \"#utility.yul\":526:527   */\n  dup1\n    /* \"#utility.yul\":519:531   */\n  revert\n    /* \"#utility.yul\":470:533   */\ntag_48:\n    /* \"#utility.yul\":417:539   */\n  pop\n  jump\t// out\n    /* \"#utility.yul\":545:688   */\ntag_25:\n    /* \"#utility.yul\":602:607   */\n  0x00\n    /* \"#utility.yul\":633:639   */\n  dup2\n    /* \"#utility.yul\":627:640   */\n  mload\n    /* \"#utility.yul\":618:640   */\n  swap1\n  pop\n    /* \"#utility.yul\":649:682   */\n  tag_50\n    /* \"#utility.yul\":676:681   */\n  dup2\n    /* \"#utility.yul\":649:682   */\n  tag_24\n  jump\t// in\ntag_50:\n    /* \"#utility.yul\":545:688   */\n  swap3\n  swap2\n  pop\n  pop\n  jump\t// out\n    /* \"#utility.yul\":694:820   */\ntag_26:\n    /* \"#utility.yul\":731:738   */\n  0x00\n    /* \"#utility.yul\":771:813   */\n  0xffffffffffffffffffffffffffffffffffffffff\n    /* \"#utility.yul\":764:769   */\n  dup3\n    /* \"#utility.yul\":760:814   */\n  and\n    /* \"#utility.yul\":749:814   */\n  swap1\n  pop\n    /* \"#utility.yul\":694:820   */\n  swap2\n  swap1\n  pop\n  jump\t// out\n    /* \"#utility.yul\":826:922   */\ntag_27:\n    /* \"#utility.yul\":863:870   */\n  0x00\n    /* \"#utility.yul\":892:916   */\n  tag_53\n    /* \"#utility.yul\":910:915   */\n  dup3\n    /* \"#utility.yul\":892:916   */\n  tag_26\n  jump\t// in\ntag_53:\n    /* \"#utility.yul\":881:916   */\n  swap1\n  pop\n    /* \"#utility.yul\":826:922   */\n  swap2\n  swap1\n  pop\n  jump\t// out\n    /* \"#utility.yul\":928:1050   */\ntag_28:\n    /* \"#utility.yul\":1001:1025   */\n  tag_55\n    /* \"#utility.yul\":1019:1024   */\n  dup2\n    /* \"#utility.yul\":1001:1025   */\n  tag_27\n  jump\t// in\ntag_55:\n    /* \"#utility.yul\":994:999   */\n  dup2\n    /* \"#utility.yul\":991:1026   */\n  eq\n    /* \"#utility.yul\":981:1044   */\n  tag_56\n  jumpi\n    /* \"#utility.yul\":1040:1041   */\n  0x00\n    /* \"#utility.yul\":1037:1038   */\n  dup1\n    /* \"#utility.yul\":1030:1042   */\n  revert\n    /* \"#utility.yul\":981:1044   */\ntag_56:\n    /* \"#utility.yul\":928:1050   */\n  pop\n  jump\t// out\n    /* \"#utility.yul\":1056:1199   */\ntag_29:\n    /* \"#utility.yul\":1113:1118   */\n  0x00\n    /* \"#utility.yul\":1144:1150   */\n  dup2\n    /* \"#utility.yul\":1138:1151   */\n  mload\n    /* \"#utility.yul\":1129:1151   */\n  swap1\n  pop\n    /* \"#utility.yul\":1160:1193   */\n  tag_58\n    /* \"#utility.yul\":1187:1192   */\n  dup2\n    /* \"#utility.yul\":1160:1193   */\n  tag_28\n  jump\t// in\ntag_58:\n    /* \"#utility.yul\":1056:1199   */\n  swap3\n  swap2\n  pop\n  pop\n  jump\t// out\n    /* \"#utility.yul\":1205:1322   */\ntag_30:\n    /* \"#utility.yul\":1314:1315   */\n  0x00\n    /* \"#utility.yul\":1311:1312   */\n  dup1\n    /* \"#utility.yul\":1304:1316   */\n  revert\n    /* \"#utility.yul\":1328:1445   */\ntag_31:\n    /* \"#utility.yul\":1437:1438   */\n  0x00\n    /* \"#utility.yul\":1434:1435   */\n  dup1\n    /* \"#utility.yul\":1427:1439   */\n  revert\n    /* \"#utility.yul\":1451:1553   */\ntag_32:\n    /* \"#utility.yul\":1492:1498   */\n  0x00\n    /* \"#utility.yul\":1543:1545   */\n  0x1f\n    /* \"#utility.yul\":1539:1546   */\n  not\n    /* \"#utility.yul\":1534:1536   */\n  0x1f\n    /* \"#utility.yul\":1527:1532   */\n  dup4\n    /* \"#utility.yul\":1523:1537   */\n  add\n    /* \"#utility.yul\":1519:1547   */\n  and\n    /* \"#utility.yul\":1509:1547   */\n  swap1\n  pop\n    /* \"#utility.yul\":1451:1553   */\n  swap2\n  swap1\n  pop\n  jump\t// out\n    /* \"#utility.yul\":1559:1739   */\ntag_33:\n    /* \"#utility.yul\":1607:1684   */\n  0x4e487b7100000000000000000000000000000000000000000000000000000000\n    /* \"#utility.yul\":1604:1605   */\n  0x00\n    /* \"#utility.yul\":1597:1685   */\n  mstore\n    /* \"#utility.yul\":1704:1708   */\n  0x41\n    /* \"#utility.yul\":1701:1702   */\n  0x04\n    /* \"#utility.yul\":1694:1709   */\n  mstore\n    /* \"#utility.yul\":1728:1732   */\n  0x24\n    /* \"#utility.yul\":1725:1726   */\n  0x00\n    /* \"#utility.yul\":1718:1733   */\n  revert\n    /* \"#utility.yul\":1745:2026   */\ntag_34:\n    /* \"#utility.yul\":1828:1855   */\n  tag_64\n    /* \"#utility.yul\":1850:1854   */\n  dup3\n    /* \"#utility.yul\":1828:1855   */\n  tag_32\n  jump\t// in\ntag_64:\n    /* \"#utility.yul\":1820:1826   */\n  dup2\n    /* \"#utility.yul\":1816:1856   */\n  add\n    /* \"#utility.yul\":1958:1964   */\n  dup2\n    /* \"#utility.yul\":1946:1956   */\n  dup2\n    /* \"#utility.yul\":1943:1965   */\n  lt\n    /* \"#utility.yul\":1922:1940   */\n  0xffffffffffffffff\n    /* \"#utility.yul\":1910:1920   */\n  dup3\n    /* \"#utility.yul\":1907:1941   */\n  gt\n    /* \"#utility.yul\":1904:1966   */\n  or\n    /* \"#utility.yul\":1901:1989   */\n  iszero\n  tag_65\n  jumpi\n    /* \"#utility.yul\":1969:1987   */\n  tag_66\n  tag_33\n  jump\t// in\ntag_66:\n    /* \"#utility.yul\":1901:1989   */\ntag_65:\n    /* \"#utility.yul\":2009:2019   */\n  dup1\n    /* \"#utility.yul\":2005:2007   */\n  0x40\n    /* \"#utility.yul\":1998:2020   */\n  mstore\n    /* \"#utility.yul\":1788:2026   */\n  pop\n    /* \"#utility.yul\":1745:2026   */\n  pop\n  pop\n  jump\t// out\n    /* \"#utility.yul\":2032:2161   */\ntag_35:\n    /* \"#utility.yul\":2066:2072   */\n  0x00\n    /* \"#utility.yul\":2093:2113   */\n  tag_68\n  tag_20\n  jump\t// in\ntag_68:\n    /* \"#utility.yul\":2083:2113   */\n  swap1\n  pop\n    /* \"#utility.yul\":2122:2155   */\n  tag_69\n    /* \"#utility.yul\":2150:2154   */\n  dup3\n    /* \"#utility.yul\":2142:2148   */\n  dup3\n    /* \"#utility.yul\":2122:2155   */\n  tag_34\n  jump\t// in\ntag_69:\n    /* \"#utility.yul\":2032:2161   */\n  swap2\n  swap1\n  pop\n  jump\t// out\n    /* \"#utility.yul\":2167:2475   */\ntag_36:\n    /* \"#utility.yul\":2229:2233   */\n  0x00\n    /* \"#utility.yul\":2319:2337   */\n  0xffffffffffffffff\n    /* \"#utility.yul\":2311:2317   */\n  dup3\n    /* \"#utility.yul\":2308:2338   */\n  gt\n    /* \"#utility.yul\":2305:2361   */\n  iszero\n  tag_71\n  jumpi\n    /* \"#utility.yul\":2341:2359   */\n  tag_72\n  tag_33\n  jump\t// in\ntag_72:\n    /* \"#utility.yul\":2305:2361   */\ntag_71:\n    /* \"#utility.yul\":2379:2408   */\n  tag_73\n    /* \"#utility.yul\":2401:2407   */\n  dup3\n    /* \"#utility.yul\":2379:2408   */\n  tag_32\n  jump\t// in\ntag_73:\n    /* \"#utility.yul\":2371:2408   */\n  swap1\n  pop\n    /* \"#utility.yul\":2463:2467   */\n  0x20\n    /* \"#utility.yul\":2457:2461   */\n  dup2\n    /* \"#utility.yul\":2453:2468   */\n  add\n    /* \"#utility.yul\":2445:2468   */\n  swap1\n  pop\n    /* \"#utility.yul\":2167:2475   */\n  swap2\n  swap1\n  pop\n  jump\t// out\n    /* \"#utility.yul\":2481:2788   */\ntag_37:\n    /* \"#utility.yul\":2549:2550   */\n  0x00\n    /* \"#utility.yul\":2559:2672   */\ntag_75:\n    /* \"#utility.yul\":2573:2579   */\n  dup4\n    /* \"#utility.yul\":2570:2571   */\n  dup2\n    /* \"#utility.yul\":2567:2580   */\n  lt\n    /* \"#utility.yul\":2559:2672   */\n  iszero\n  tag_77\n  jumpi\n    /* \"#utility.yul\":2658:2659   */\n  dup1\n    /* \"#utility.yul\":2653:2656   */\n  dup3\n    /* \"#utility.yul\":2649:2660   */\n  add\n    /* \"#utility.yul\":2643:2661   */\n  mload\n    /* \"#utility.yul\":2639:2640   */\n  dup2\n    /* \"#utility.yul\":2634:2637   */\n  dup5\n    /* \"#utility.yul\":2630:2641   */\n  add\n    /* \"#utility.yul\":2623:2662   */\n  mstore\n    /* \"#utility.yul\":2595:2597   */\n  0x20\n    /* \"#utility.yul\":2592:2593   */\n  dup2\n    /* \"#utility.yul\":2588:2598   */\n  add\n    /* \"#utility.yul\":2583:2598   */\n  swap1\n  pop\n    /* \"#utility.yul\":2559:2672   */\n  jump(tag_75)\ntag_77:\n    /* \"#utility.yul\":2690:2696   */\n  dup4\n    /* \"#utility.yul\":2687:2688   */\n  dup2\n    /* \"#utility.yul\":2684:2697   */\n  gt\n    /* \"#utility.yul\":2681:2782   */\n  iszero\n  tag_78\n  jumpi\n    /* \"#utility.yul\":2770:2771   */\n  0x00\n    /* \"#utility.yul\":2761:2767   */\n  dup5\n    /* \"#utility.yul\":2756:2759   */\n  dup5\n    /* \"#utility.yul\":2752:2768   */\n  add\n    /* \"#utility.yul\":2745:2772   */\n  mstore\n    /* \"#utility.yul\":2681:2782   */\ntag_78:\n    /* \"#utility.yul\":2530:2788   */\n  pop\n    /* \"#utility.yul\":2481:2788   */\n  pop\n  pop\n  pop\n  jump\t// out\n    /* \"#utility.yul\":2794:3215   */\ntag_38:\n    /* \"#utility.yul\":2883:2888   */\n  0x00\n    /* \"#utility.yul\":2908:2974   */\n  tag_80\n    /* \"#utility.yul\":2924:2973   */\n  tag_81\n    /* \"#utility.yul\":2966:2972   */\n  dup5\n    /* \"#utility.yul\":2924:2973   */\n  tag_36\n  jump\t// in\ntag_81:\n    /* \"#utility.yul\":2908:2974   */\n  tag_35\n  jump\t// in\ntag_80:\n    /* \"#utility.yul\":2899:2974   */\n  swap1\n  pop\n    /* \"#utility.yul\":2997:3003   */\n  dup3\n    /* \"#utility.yul\":2990:2995   */\n  dup2\n    /* \"#utility.yul\":2983:3004   */\n  mstore\n    /* \"#utility.yul\":3035:3039   */\n  0x20\n    /* \"#utility.yul\":3028:3033   */\n  dup2\n    /* \"#utility.yul\":3024:3040   */\n  add\n    /* \"#utility.yul\":3073:3076   */\n  dup5\n    /* \"#utility.yul\":3064:3070   */\n  dup5\n    /* \"#utility.yul\":3059:3062   */\n  dup5\n    /* \"#utility.yul\":3055:3071   */\n  add\n    /* \"#utility.yul\":3052:3077   */\n  gt\n    /* \"#utility.yul\":3049:3161   */\n  iszero\n  tag_82\n  jumpi\n    /* \"#utility.yul\":3080:3159   */\n  tag_83\n  tag_31\n  jump\t// in\ntag_83:\n    /* \"#utility.yul\":3049:3161   */\ntag_82:\n    /* \"#utility.yul\":3170:3209   */\n  tag_84\n    /* \"#utility.yul\":3202:3208   */\n  dup5\n    /* \"#utility.yul\":3197:3200   */\n  dup3\n    /* \"#utility.yul\":3192:3195   */\n  dup6\n    /* \"#utility.yul\":3170:3209   */\n  tag_37\n  jump\t// in\ntag_84:\n    /* \"#utility.yul\":2889:3215   */\n  pop\n    /* \"#utility.yul\":2794:3215   */\n  swap4\n  swap3\n  pop\n  pop\n  pop\n  jump\t// out\n    /* \"#utility.yul\":3235:3590   */\ntag_39:\n    /* \"#utility.yul\":3302:3307   */\n  0x00\n    /* \"#utility.yul\":3351:3354   */\n  dup3\n    /* \"#utility.yul\":3344:3348   */\n  0x1f\n    /* \"#utility.yul\":3336:3342   */\n  dup4\n    /* \"#utility.yul\":3332:3349   */\n  add\n    /* \"#utility.yul\":3328:3355   */\n  slt\n    /* \"#utility.yul\":3318:3440   */\n  tag_86\n  jumpi\n    /* \"#utility.yul\":3359:3438   */\n  tag_87\n  tag_30\n  jump\t// in\ntag_87:\n    /* \"#utility.yul\":3318:3440   */\ntag_86:\n    /* \"#utility.yul\":3469:3475   */\n  dup2\n    /* \"#utility.yul\":3463:3476   */\n  mload\n    /* \"#utility.yul\":3494:3584   */\n  tag_88\n    /* \"#utility.yul\":3580:3583   */\n  dup5\n    /* \"#utility.yul\":3572:3578   */\n  dup3\n    /* \"#utility.yul\":3565:3569   */\n  0x20\n    /* \"#utility.yul\":3557:3563   */\n  dup7\n    /* \"#utility.yul\":3553:3570   */\n  add\n    /* \"#utility.yul\":3494:3584   */\n  tag_38\n  jump\t// in\ntag_88:\n    /* \"#utility.yul\":3485:3584   */\n  swap2\n  pop\n    /* \"#utility.yul\":3308:3590   */\n  pop\n    /* \"#utility.yul\":3235:3590   */\n  swap3\n  swap2\n  pop\n  pop\n  jump\t// out\n    /* \"#utility.yul\":3596:4432   */\ntag_3:\n    /* \"#utility.yul\":3694:3700   */\n  0x00\n    /* \"#utility.yul\":3702:3708   */\n  dup1\n    /* \"#utility.yul\":3710:3716   */\n  0x00\n    /* \"#utility.yul\":3759:3761   */\n  0x60\n    /* \"#utility.yul\":3747:3756   */\n  dup5\n    /* \"#utility.yul\":3738:3745   */\n  dup7\n    /* \"#utility.yul\":3734:3757   */\n  sub\n    /* \"#utility.yul\":3730:3762   */\n  slt\n    /* \"#utility.yul\":3727:3846   */\n  iszero\n  tag_90\n  jumpi\n    /* \"#utility.yul\":3765:3844   */\n  tag_91\n  tag_21\n  jump\t// in\ntag_91:\n    /* \"#utility.yul\":3727:3846   */\ntag_90:\n    /* \"#utility.yul\":3885:3886   */\n  0x00\n    /* \"#utility.yul\":3910:3974   */\n  tag_92\n    /* \"#utility.yul\":3966:3973   */\n  dup7\n    /* \"#utility.yul\":3957:3963   */\n  dup3\n    /* \"#utility.yul\":3946:3955   */\n  dup8\n    /* \"#utility.yul\":3942:3964   */\n  add\n    /* \"#utility.yul\":3910:3974   */\n  tag_25\n  jump\t// in\ntag_92:\n    /* \"#utility.yul\":3900:3974   */\n  swap4\n  pop\n    /* \"#utility.yul\":3856:3984   */\n  pop\n    /* \"#utility.yul\":4023:4025   */\n  0x20\n    /* \"#utility.yul\":4049:4113   */\n  tag_93\n    /* \"#utility.yul\":4105:4112   */\n  dup7\n    /* \"#utility.yul\":4096:4102   */\n  dup3\n    /* \"#utility.yul\":4085:4094   */\n  dup8\n    /* \"#utility.yul\":4081:4103   */\n  add\n    /* \"#utility.yul\":4049:4113   */\n  tag_29\n  jump\t// in\ntag_93:\n    /* \"#utility.yul\":4039:4113   */\n  swap3\n  pop\n    /* \"#utility.yul\":3994:4123   */\n  pop\n    /* \"#utility.yul\":4183:4185   */\n  0x40\n    /* \"#utility.yul\":4172:4181   */\n  dup5\n    /* \"#utility.yul\":4168:4186   */\n  add\n    /* \"#utility.yul\":4162:4187   */\n  mload\n    /* \"#utility.yul\":4214:4232   */\n  0xffffffffffffffff\n    /* \"#utility.yul\":4206:4212   */\n  dup2\n    /* \"#utility.yul\":4203:4233   */\n  gt\n    /* \"#utility.yul\":4200:4317   */\n  iszero\n  tag_94\n  jumpi\n    /* \"#utility.yul\":4236:4315   */\n  tag_95\n  tag_22\n  jump\t// in\ntag_95:\n    /* \"#utility.yul\":4200:4317   */\ntag_94:\n    /* \"#utility.yul\":4341:4415   */\n  tag_96\n    /* \"#utility.yul\":4407:4414   */\n  dup7\n    /* \"#utility.yul\":4398:4404   */\n  dup3\n    /* \"#utility.yul\":4387:4396   */\n  dup8\n    /* \"#utility.yul\":4383:4405   */\n  add\n    /* \"#utility.yul\":4341:4415   */\n  tag_39\n  jump\t// in\ntag_96:\n    /* \"#utility.yul\":4331:4415   */\n  swap2\n  pop\n    /* \"#utility.yul\":4133:4425   */\n  pop\n    /* \"#utility.yul\":3596:4432   */\n  swap3\n  pop\n  swap3\n  pop\n  swap3\n  jump\t// out\n    /* \"#utility.yul\":4438:4618   */\ntag_40:\n    /* \"#utility.yul\":4486:4563   */\n  0x4e487b7100000000000000000000000000000000000000000000000000000000\n    /* \"#utility.yul\":4483:4484   */\n  0x00\n    /* \"#utility.yul\":4476:4564   */\n  mstore\n    /* \"#utility.yul\":4583:4587   */\n  0x22\n    /* \"#utility.yul\":4580:4581   */\n  0x04\n    /* \"#utility.yul\":4573:4588   */\n  mstore\n    /* \"#utility.yul\":4607:4611   */\n  0x24\n    /* \"#utility.yul\":4604:4605   */\n  0x00\n    /* \"#utility.yul\":4597:4612   */\n  revert\n    /* \"#utility.yul\":4624:4944   */\ntag_10:\n    /* \"#utility.yul\":4668:4674   */\n  0x00\n    /* \"#utility.yul\":4705:4706   */\n  0x02\n    /* \"#utility.yul\":4699:4703   */\n  dup3\n    /* \"#utility.yul\":4695:4707   */\n  div\n    /* \"#utility.yul\":4685:4707   */\n  swap1\n  pop\n    /* \"#utility.yul\":4752:4753   */\n  0x01\n    /* \"#utility.yul\":4746:4750   */\n  dup3\n    /* \"#utility.yul\":4742:4754   */\n  and\n    /* \"#utility.yul\":4773:4791   */\n  dup1\n    /* \"#utility.yul\":4763:4844   */\n  tag_99\n  jumpi\n    /* \"#utility.yul\":4829:4833   */\n  0x7f\n    /* \"#utility.yul\":4821:4827   */\n  dup3\n    /* \"#utility.yul\":4817:4834   */\n  and\n    /* \"#utility.yul\":4807:4834   */\n  swap2\n  pop\n    /* \"#utility.yul\":4763:4844   */\ntag_99:\n    /* \"#utility.yul\":4891:4893   */\n  0x20\n    /* \"#utility.yul\":4883:4889   */\n  dup3\n    /* \"#utility.yul\":4880:4894   */\n  lt\n    /* \"#utility.yul\":4860:4878   */\n  dup2\n    /* \"#utility.yul\":4857:4895   */\n  eq\n    /* \"#utility.yul\":4854:4938   */\n  iszero\n  tag_100\n  jumpi\n    /* \"#utility.yul\":4910:4928   */\n  tag_101\n  tag_40\n  jump\t// in\ntag_101:\n    /* \"#utility.yul\":4854:4938   */\ntag_100:\n    /* \"#utility.yul\":4675:4944   */\n  pop\n    /* \"#utility.yul\":4624:4944   */\n  swap2\n  swap1\n  pop\n  jump\t// out\n    /* \"kickstarter.sol\":532:4550  contract kickstarter {... */\ntag_8:\n  dataSize(sub_0)\n  dup1\n  dataOffset(sub_0)\n  0x00\n  codecopy\n  0x00\n  return\nstop\n\nsub_0: assembly {\n        /* \"kickstarter.sol\":532:4550  contract kickstarter {... */\n      mstore(0x40, 0x80)\n      jumpi(tag_1, lt(calldatasize, 0x04))\n      shr(0xe0, calldataload(0x00))\n      dup1\n      0x9fb42b1f\n      gt\n      tag_17\n      jumpi\n      dup1\n      0xd7bb99ba\n      gt\n      tag_18\n      jumpi\n      dup1\n      0xd7bb99ba\n      eq\n      tag_13\n      jumpi\n      dup1\n      0xd7d1bbdb\n      eq\n      tag_14\n      jumpi\n      dup1\n      0xf8439dc7\n      eq\n      tag_15\n      jumpi\n      dup1\n      0xfb1a002a\n      eq\n      tag_16\n      jumpi\n      jump(tag_1)\n    tag_18:\n      dup1\n      0x9fb42b1f\n      eq\n      tag_9\n      jumpi\n      dup1\n      0xbca5b828\n      eq\n      tag_10\n      jumpi\n      dup1\n      0xc73e5972\n      eq\n      tag_11\n      jumpi\n      dup1\n      0xceb35605\n      eq\n      tag_12\n      jumpi\n      jump(tag_1)\n    tag_17:\n      dup1\n      0x81d12c58\n      gt\n      tag_19\n      jumpi\n      dup1\n      0x81d12c58\n      eq\n      tag_5\n      jumpi\n      dup1\n      0x8a9cfd55\n      eq\n      tag_6\n      jumpi\n      dup1\n      0x923eda37\n      eq\n      tag_7\n      jumpi\n      dup1\n      0x937e09b1\n      eq\n      tag_8\n      jumpi\n      jump(tag_1)\n    tag_19:\n      dup1\n      0x03441006\n      eq\n      tag_2\n      jumpi\n      dup1\n      0x110842cb\n      eq\n      tag_3\n      jumpi\n      dup1\n      0x481c6a75\n      eq\n      tag_4\n      jumpi\n    tag_1:\n      0x00\n      dup1\n      revert\n        /* \"kickstarter.sol\":3571:4130  function finalizeRequest(uint _index) public owner {... */\n    tag_2:\n      callvalue\n      dup1\n      iszero\n      tag_20\n      jumpi\n      0x00\n      dup1\n      revert\n    tag_20:\n      pop\n      tag_21\n      0x04\n      dup1\n      calldatasize\n      sub\n      dup2\n      add\n      swap1\n      tag_22\n      swap2\n      swap1\n      tag_23\n      jump\t// in\n    tag_22:\n      tag_24\n      jump\t// in\n    tag_21:\n      stop\n        /* \"kickstarter.sol\":650:683  string public campaignDescription */\n    tag_3:\n      callvalue\n      dup1\n      iszero\n      tag_25\n      jumpi\n      0x00\n      dup1\n      revert\n    tag_25:\n      pop\n      tag_26\n      tag_27\n      jump\t// in\n    tag_26:\n      mload(0x40)\n      tag_28\n      swap2\n      swap1\n      tag_29\n      jump\t// in\n    tag_28:\n      mload(0x40)\n      dup1\n      swap2\n      sub\n      swap1\n      return\n        /* \"kickstarter.sol\":583:605  address public manager */\n    tag_4:\n      callvalue\n      dup1\n      iszero\n      tag_30\n      jumpi\n      0x00\n      dup1\n      revert\n    tag_30:\n      pop\n      tag_31\n      tag_32\n      jump\t// in\n    tag_31:\n      mload(0x40)\n      tag_33\n      swap2\n      swap1\n      tag_34\n      jump\t// in\n    tag_33:\n      mload(0x40)\n      dup1\n      swap2\n      sub\n      swap1\n      return\n        /* \"kickstarter.sol\":910:953  mapping(uint256 => Request) public requests */\n    tag_5:\n      callvalue\n      dup1\n      iszero\n      tag_35\n      jumpi\n      0x00\n      dup1\n      revert\n    tag_35:\n      pop\n      tag_36\n      0x04\n      dup1\n      calldatasize\n      sub\n      dup2\n      add\n      swap1\n      tag_37\n      swap2\n      swap1\n      tag_23\n      jump\t// in\n    tag_37:\n      tag_38\n      jump\t// in\n    tag_36:\n      mload(0x40)\n      tag_39\n      swap7\n      swap6\n      swap5\n      swap4\n      swap3\n      swap2\n      swap1\n      tag_40\n      jump\t// in\n    tag_39:\n      mload(0x40)\n      dup1\n      swap2\n      sub\n      swap1\n      return\n        /* \"kickstarter.sol\":2105:2489  function createRequest (string memory _description, uint _value, address payable _recipient) public owner {... */\n    tag_6:\n      callvalue\n      dup1\n      iszero\n      tag_41\n      jumpi\n      0x00\n      dup1\n      revert\n    tag_41:\n      pop\n      tag_42\n      0x04\n      dup1\n      calldatasize\n      sub\n      dup2\n      add\n      swap1\n      tag_43\n      swap2\n      swap1\n      tag_44\n      jump\t// in\n    tag_43:\n      tag_45\n      jump\t// in\n    tag_42:\n      stop\n        /* \"kickstarter.sol\":4138:4443  function getResume() public view returns (string memory, uint, uint, uint, uint, address) {... */\n    tag_7:\n      callvalue\n      dup1\n      iszero\n      tag_46\n      jumpi\n      0x00\n      dup1\n      revert\n    tag_46:\n      pop\n      tag_47\n      tag_48\n      jump\t// in\n    tag_47:\n      mload(0x40)\n      tag_49\n      swap7\n      swap6\n      swap5\n      swap4\n      swap3\n      swap2\n      swap1\n      tag_50\n      jump\t// in\n    tag_49:\n      mload(0x40)\n      dup1\n      swap2\n      sub\n      swap1\n      return\n        /* \"kickstarter.sol\":612:643  uint public minimumContribution */\n    tag_8:\n      callvalue\n      dup1\n      iszero\n      tag_51\n      jumpi\n      0x00\n      dup1\n      revert\n    tag_51:\n      pop\n      tag_52\n      tag_53\n      jump\t// in\n    tag_52:\n      mload(0x40)\n      tag_54\n      swap2\n      swap1\n      tag_55\n      jump\t// in\n    tag_54:\n      mload(0x40)\n      dup1\n      swap2\n      sub\n      swap1\n      return\n        /* \"kickstarter.sol\":690:713  uint public numRequests */\n    tag_9:\n      callvalue\n      dup1\n      iszero\n      tag_56\n      jumpi\n      0x00\n      dup1\n      revert\n    tag_56:\n      pop\n      tag_57\n      tag_58\n      jump\t// in\n    tag_57:\n      mload(0x40)\n      tag_59\n      swap2\n      swap1\n      tag_55\n      jump\t// in\n    tag_59:\n      mload(0x40)\n      dup1\n      swap2\n      sub\n      swap1\n      return\n        /* \"kickstarter.sol\":851:903  mapping(address => uint) public balanceOfContributor */\n    tag_10:\n      callvalue\n      dup1\n      iszero\n      tag_60\n      jumpi\n      0x00\n      dup1\n      revert\n    tag_60:\n      pop\n      tag_61\n      0x04\n      dup1\n      calldatasize\n      sub\n      dup2\n      add\n      swap1\n      tag_62\n      swap2\n      swap1\n      tag_63\n      jump\t// in\n    tag_62:\n      tag_64\n      jump\t// in\n    tag_61:\n      mload(0x40)\n      tag_65\n      swap2\n      swap1\n      tag_55\n      jump\t// in\n    tag_65:\n      mload(0x40)\n      dup1\n      swap2\n      sub\n      swap1\n      return\n        /* \"kickstarter.sol\":720:743  uint public voicesCount */\n    tag_11:\n      callvalue\n      dup1\n      iszero\n      tag_66\n      jumpi\n      0x00\n      dup1\n      revert\n    tag_66:\n      pop\n      tag_67\n      tag_68\n      jump\t// in\n    tag_67:\n      mload(0x40)\n      tag_69\n      swap2\n      swap1\n      tag_55\n      jump\t// in\n    tag_69:\n      mload(0x40)\n      dup1\n      swap2\n      sub\n      swap1\n      return\n        /* \"kickstarter.sol\":750:793  mapping(address => bool) public contributor */\n    tag_12:\n      callvalue\n      dup1\n      iszero\n      tag_70\n      jumpi\n      0x00\n      dup1\n      revert\n    tag_70:\n      pop\n      tag_71\n      0x04\n      dup1\n      calldatasize\n      sub\n      dup2\n      add\n      swap1\n      tag_72\n      swap2\n      swap1\n      tag_63\n      jump\t// in\n    tag_72:\n      tag_73\n      jump\t// in\n    tag_71:\n      mload(0x40)\n      tag_74\n      swap2\n      swap1\n      tag_75\n      jump\t// in\n    tag_74:\n      mload(0x40)\n      dup1\n      swap2\n      sub\n      swap1\n      return\n        /* \"kickstarter.sol\":1708:2046  function contribute () public payable {... */\n    tag_13:\n      tag_76\n      tag_77\n      jump\t// in\n    tag_76:\n      stop\n        /* \"kickstarter.sol\":2548:2979  function approveRequest (uint _index) public {... */\n    tag_14:\n      callvalue\n      dup1\n      iszero\n      tag_78\n      jumpi\n      0x00\n      dup1\n      revert\n    tag_78:\n      pop\n      tag_79\n      0x04\n      dup1\n      calldatasize\n      sub\n      dup2\n      add\n      swap1\n      tag_80\n      swap2\n      swap1\n      tag_23\n      jump\t// in\n    tag_80:\n      tag_81\n      jump\t// in\n    tag_79:\n      stop\n        /* \"kickstarter.sol\":3045:3486  function disapproveRequest (uint _index) public {... */\n    tag_15:\n      callvalue\n      dup1\n      iszero\n      tag_82\n      jumpi\n      0x00\n      dup1\n      revert\n    tag_82:\n      pop\n      tag_83\n      0x04\n      dup1\n      calldatasize\n      sub\n      dup2\n      add\n      swap1\n      tag_84\n      swap2\n      swap1\n      tag_23\n      jump\t// in\n    tag_84:\n      tag_85\n      jump\t// in\n    tag_83:\n      stop\n        /* \"kickstarter.sol\":4451:4541  function getAllRequests() public view returns (uint) {... */\n    tag_16:\n      callvalue\n      dup1\n      iszero\n      tag_86\n      jumpi\n      0x00\n      dup1\n      revert\n    tag_86:\n      pop\n      tag_87\n      tag_88\n      jump\t// in\n    tag_87:\n      mload(0x40)\n      tag_89\n      swap2\n      swap1\n      tag_55\n      jump\t// in\n    tag_89:\n      mload(0x40)\n      dup1\n      swap2\n      sub\n      swap1\n      return\n        /* \"kickstarter.sol\":3571:4130  function finalizeRequest(uint _index) public owner {... */\n    tag_24:\n        /* \"kickstarter.sol\":1287:1294  manager */\n      0x00\n      dup1\n      sload\n      swap1\n      0x0100\n      exp\n      swap1\n      div\n      0xffffffffffffffffffffffffffffffffffffffff\n      and\n        /* \"kickstarter.sol\":1273:1294  msg.sender == manager */\n      0xffffffffffffffffffffffffffffffffffffffff\n      and\n        /* \"kickstarter.sol\":1273:1283  msg.sender */\n      caller\n        /* \"kickstarter.sol\":1273:1294  msg.sender == manager */\n      0xffffffffffffffffffffffffffffffffffffffff\n      and\n      eq\n        /* \"kickstarter.sol\":1265:1342  require(msg.sender == manager, ... */\n      tag_91\n      jumpi\n      mload(0x40)\n      0x08c379a000000000000000000000000000000000000000000000000000000000\n      dup2\n      mstore\n      0x04\n      add\n      tag_92\n      swap1\n      tag_93\n      jump\t// in\n    tag_92:\n      mload(0x40)\n      dup1\n      swap2\n      sub\n      swap1\n      revert\n    tag_91:\n        /* \"kickstarter.sol\":3633:3656  Request storage request */\n      0x00\n        /* \"kickstarter.sol\":3659:3667  requests */\n      0x08\n        /* \"kickstarter.sol\":3659:3675  requests[_index] */\n      0x00\n        /* \"kickstarter.sol\":3668:3674  _index */\n      dup4\n        /* \"kickstarter.sol\":3659:3675  requests[_index] */\n      dup2\n      mstore\n      0x20\n      add\n      swap1\n      dup2\n      mstore\n      0x20\n      add\n      0x00\n      keccak256\n        /* \"kickstarter.sol\":3633:3675  Request storage request = requests[_index] */\n      swap1\n      pop\n        /* \"kickstarter.sol\":3733:3734  3 */\n      0x03\n        /* \"kickstarter.sol\":3721:3732  voicesCount */\n      sload(0x04)\n        /* \"kickstarter.sol\":3721:3734  voicesCount/3 */\n      tag_95\n      swap2\n      swap1\n      tag_96\n      jump\t// in\n    tag_95:\n        /* \"kickstarter.sol\":3696:3703  request */\n      dup2\n        /* \"kickstarter.sol\":3696:3717  request.approvalCount */\n      0x03\n      add\n      sload\n        /* \"kickstarter.sol\":3696:3735  request.approvalCount > (voicesCount/3) */\n      gt\n        /* \"kickstarter.sol\":3688:3795  require(request.approvalCount > (voicesCount/3),... */\n      tag_97\n      jumpi\n      mload(0x40)\n      0x08c379a000000000000000000000000000000000000000000000000000000000\n      dup2\n      mstore\n      0x04\n      add\n      tag_98\n      swap1\n      tag_99\n      jump\t// in\n    tag_98:\n      mload(0x40)\n      dup1\n      swap2\n      sub\n      swap1\n      revert\n    tag_97:\n        /* \"kickstarter.sol\":3838:3845  request */\n      dup1\n        /* \"kickstarter.sol\":3838:3862  request.disapprovalCount */\n      0x04\n      add\n      sload\n        /* \"kickstarter.sol\":3814:3821  request */\n      dup2\n        /* \"kickstarter.sol\":3814:3835  request.approvalCount */\n      0x03\n      add\n      sload\n        /* \"kickstarter.sol\":3814:3862  request.approvalCount > request.disapprovalCount */\n      gt\n        /* \"kickstarter.sol\":3806:3929  require(request.approvalCount > request.disapprovalCount,... */\n      tag_100\n      jumpi\n      mload(0x40)\n      0x08c379a000000000000000000000000000000000000000000000000000000000\n      dup2\n      mstore\n      0x04\n      add\n      tag_101\n      swap1\n      tag_102\n      jump\t// in\n    tag_101:\n      mload(0x40)\n      dup1\n      swap2\n      sub\n      swap1\n      revert\n    tag_100:\n        /* \"kickstarter.sol\":3951:3958  request */\n      dup1\n        /* \"kickstarter.sol\":3951:3967  request.complete */\n      0x02\n      add\n      0x14\n      swap1\n      sload\n      swap1\n      0x0100\n      exp\n      swap1\n      div\n      0xff\n      and\n        /* \"kickstarter.sol\":3950:3967  !request.complete */\n      iszero\n        /* \"kickstarter.sol\":3942:4021  require(!request.complete, ... */\n      tag_103\n      jumpi\n      mload(0x40)\n      0x08c379a000000000000000000000000000000000000000000000000000000000\n      dup2\n      mstore\n      0x04\n      add\n      tag_104\n      swap1\n      tag_105\n      jump\t// in\n    tag_104:\n      mload(0x40)\n      dup1\n      swap2\n      sub\n      swap1\n      revert\n    tag_103:\n        /* \"kickstarter.sol\":4042:4049  request */\n      dup1\n        /* \"kickstarter.sol\":4042:4059  request.recipient */\n      0x02\n      add\n      0x00\n      swap1\n      sload\n      swap1\n      0x0100\n      exp\n      swap1\n      div\n      0xffffffffffffffffffffffffffffffffffffffff\n      and\n        /* \"kickstarter.sol\":4034:4069  payable(request.recipient).transfer */\n      0xffffffffffffffffffffffffffffffffffffffff\n      and\n        /* \"kickstarter.sol\":4034:4084  payable(request.recipient).transfer(request.value) */\n      0x08fc\n        /* \"kickstarter.sol\":4070:4077  request */\n      dup3\n        /* \"kickstarter.sol\":4070:4083  request.value */\n      0x01\n      add\n      sload\n        /* \"kickstarter.sol\":4034:4084  payable(request.recipient).transfer(request.value) */\n      swap1\n      dup2\n      iszero\n      mul\n      swap1\n      mload(0x40)\n      0x00\n      mload(0x40)\n      dup1\n      dup4\n      sub\n      dup2\n      dup6\n      dup9\n      dup9\n      call\n      swap4\n      pop\n      pop\n      pop\n      pop\n      iszero\n      dup1\n      iszero\n      tag_107\n      jumpi\n      returndatasize\n      0x00\n      dup1\n      returndatacopy\n      revert(0x00, returndatasize)\n    tag_107:\n      pop\n        /* \"kickstarter.sol\":4116:4120  true */\n      0x01\n        /* \"kickstarter.sol\":4097:4104  request */\n      dup2\n        /* \"kickstarter.sol\":4097:4113  request.complete */\n      0x02\n      add\n      0x14\n        /* \"kickstarter.sol\":4097:4120  request.complete = true */\n      0x0100\n      exp\n      dup2\n      sload\n      dup2\n      0xff\n      mul\n      not\n      and\n      swap1\n      dup4\n      iszero\n      iszero\n      mul\n      or\n      swap1\n      sstore\n      pop\n        /* \"kickstarter.sol\":3622:4130  {... */\n      pop\n        /* \"kickstarter.sol\":3571:4130  function finalizeRequest(uint _index) public owner {... */\n      pop\n      jump\t// out\n        /* \"kickstarter.sol\":650:683  string public campaignDescription */\n    tag_27:\n      0x02\n      dup1\n      sload\n      tag_108\n      swap1\n      tag_109\n      jump\t// in\n    tag_108:\n      dup1\n      0x1f\n      add\n      0x20\n      dup1\n      swap2\n      div\n      mul\n      0x20\n      add\n      mload(0x40)\n      swap1\n      dup2\n      add\n      0x40\n      mstore\n      dup1\n      swap3\n      swap2\n      swap1\n      dup2\n      dup2\n      mstore\n      0x20\n      add\n      dup3\n      dup1\n      sload\n      tag_110\n      swap1\n      tag_109\n      jump\t// in\n    tag_110:\n      dup1\n      iszero\n      tag_111\n      jumpi\n      dup1\n      0x1f\n      lt\n      tag_112\n      jumpi\n      0x0100\n      dup1\n      dup4\n      sload\n      div\n      mul\n      dup4\n      mstore\n      swap2\n      0x20\n      add\n      swap2\n      jump(tag_111)\n    tag_112:\n      dup3\n      add\n      swap2\n      swap1\n      0x00\n      mstore\n      keccak256(0x00, 0x20)\n      swap1\n    tag_113:\n      dup2\n      sload\n      dup2\n      mstore\n      swap1\n      0x01\n      add\n      swap1\n      0x20\n      add\n      dup1\n      dup4\n      gt\n      tag_113\n      jumpi\n      dup3\n      swap1\n      sub\n      0x1f\n      and\n      dup3\n      add\n      swap2\n    tag_111:\n      pop\n      pop\n      pop\n      pop\n      pop\n      dup2\n      jump\t// out\n        /* \"kickstarter.sol\":583:605  address public manager */\n    tag_32:\n      0x00\n      dup1\n      sload\n      swap1\n      0x0100\n      exp\n      swap1\n      div\n      0xffffffffffffffffffffffffffffffffffffffff\n      and\n      dup2\n      jump\t// out\n        /* \"kickstarter.sol\":910:953  mapping(uint256 => Request) public requests */\n    tag_38:\n      mstore(0x20, 0x08)\n      dup1\n      0x00\n      mstore\n      keccak256(0x00, 0x40)\n      0x00\n      swap2\n      pop\n      swap1\n      pop\n      dup1\n      0x00\n      add\n      dup1\n      sload\n      tag_114\n      swap1\n      tag_109\n      jump\t// in\n    tag_114:\n      dup1\n      0x1f\n      add\n      0x20\n      dup1\n      swap2\n      div\n      mul\n      0x20\n      add\n      mload(0x40)\n      swap1\n      dup2\n      add\n      0x40\n      mstore\n      dup1\n      swap3\n      swap2\n      swap1\n      dup2\n      dup2\n      mstore\n      0x20\n      add\n      dup3\n      dup1\n      sload\n      tag_115\n      swap1\n      tag_109\n      jump\t// in\n    tag_115:\n      dup1\n      iszero\n      tag_116\n      jumpi\n      dup1\n      0x1f\n      lt\n      tag_117\n      jumpi\n      0x0100\n      dup1\n      dup4\n      sload\n      div\n      mul\n      dup4\n      mstore\n      swap2\n      0x20\n      add\n      swap2\n      jump(tag_116)\n    tag_117:\n      dup3\n      add\n      swap2\n      swap1\n      0x00\n      mstore\n      keccak256(0x00, 0x20)\n      swap1\n    tag_118:\n      dup2\n      sload\n      dup2\n      mstore\n      swap1\n      0x01\n      add\n      swap1\n      0x20\n      add\n      dup1\n      dup4\n      gt\n      tag_118\n      jumpi\n      dup3\n      swap1\n      sub\n      0x1f\n      and\n      dup3\n      add\n      swap2\n    tag_116:\n      pop\n      pop\n      pop\n      pop\n      pop\n      swap1\n      dup1\n      0x01\n      add\n      sload\n      swap1\n      dup1\n      0x02\n      add\n      0x00\n      swap1\n      sload\n      swap1\n      0x0100\n      exp\n      swap1\n      div\n      0xffffffffffffffffffffffffffffffffffffffff\n      and\n      swap1\n      dup1\n      0x02\n      add\n      0x14\n      swap1\n      sload\n      swap1\n      0x0100\n      exp\n      swap1\n      div\n      0xff\n      and\n      swap1\n      dup1\n      0x03\n      add\n      sload\n      swap1\n      dup1\n      0x04\n      add\n      sload\n      swap1\n      pop\n      dup7\n      jump\t// out\n        /* \"kickstarter.sol\":2105:2489  function createRequest (string memory _description, uint _value, address payable _recipient) public owner {... */\n    tag_45:\n        /* \"kickstarter.sol\":1287:1294  manager */\n      0x00\n      dup1\n      sload\n      swap1\n      0x0100\n      exp\n      swap1\n      div\n      0xffffffffffffffffffffffffffffffffffffffff\n      and\n        /* \"kickstarter.sol\":1273:1294  msg.sender == manager */\n      0xffffffffffffffffffffffffffffffffffffffff\n      and\n        /* \"kickstarter.sol\":1273:1283  msg.sender */\n      caller\n        /* \"kickstarter.sol\":1273:1294  msg.sender == manager */\n      0xffffffffffffffffffffffffffffffffffffffff\n      and\n      eq\n        /* \"kickstarter.sol\":1265:1342  require(msg.sender == manager, ... */\n      tag_120\n      jumpi\n      mload(0x40)\n      0x08c379a000000000000000000000000000000000000000000000000000000000\n      dup2\n      mstore\n      0x04\n      add\n      tag_121\n      swap1\n      tag_93\n      jump\t// in\n    tag_121:\n      mload(0x40)\n      dup1\n      swap2\n      sub\n      swap1\n      revert\n    tag_120:\n        /* \"kickstarter.sol\":2222:2239  Request storage r */\n      0x00\n        /* \"kickstarter.sol\":2242:2250  requests */\n      0x08\n        /* \"kickstarter.sol\":2242:2265  requests[numRequests++] */\n      0x00\n        /* \"kickstarter.sol\":2251:2262  numRequests */\n      0x03\n      0x00\n        /* \"kickstarter.sol\":2251:2264  numRequests++ */\n      dup2\n      sload\n      dup1\n      swap3\n      swap2\n      swap1\n      tag_123\n      swap1\n      tag_124\n      jump\t// in\n    tag_123:\n      swap2\n      swap1\n      pop\n      sstore\n        /* \"kickstarter.sol\":2242:2265  requests[numRequests++] */\n      dup2\n      mstore\n      0x20\n      add\n      swap1\n      dup2\n      mstore\n      0x20\n      add\n      0x00\n      keccak256\n        /* \"kickstarter.sol\":2222:2265  Request storage r = requests[numRequests++] */\n      swap1\n      pop\n        /* \"kickstarter.sol\":2296:2308  _description */\n      dup4\n        /* \"kickstarter.sol\":2280:2281  r */\n      dup2\n        /* \"kickstarter.sol\":2280:2293  r.description */\n      0x00\n      add\n        /* \"kickstarter.sol\":2280:2308  r.description = _description */\n      swap1\n      dup1\n      mload\n      swap1\n      0x20\n      add\n      swap1\n      tag_125\n      swap3\n      swap2\n      swap1\n      tag_126\n      jump\t// in\n    tag_125:\n      pop\n        /* \"kickstarter.sol\":2333:2339  _value */\n      dup3\n        /* \"kickstarter.sol\":2323:2324  r */\n      dup2\n        /* \"kickstarter.sol\":2323:2330  r.value */\n      0x01\n      add\n        /* \"kickstarter.sol\":2323:2339  r.value = _value */\n      dup2\n      swap1\n      sstore\n      pop\n        /* \"kickstarter.sol\":2368:2378  _recipient */\n      dup2\n        /* \"kickstarter.sol\":2354:2355  r */\n      dup2\n        /* \"kickstarter.sol\":2354:2365  r.recipient */\n      0x02\n      add\n      0x00\n        /* \"kickstarter.sol\":2354:2378  r.recipient = _recipient */\n      0x0100\n      exp\n      dup2\n      sload\n      dup2\n      0xffffffffffffffffffffffffffffffffffffffff\n      mul\n      not\n      and\n      swap1\n      dup4\n      0xffffffffffffffffffffffffffffffffffffffff\n      and\n      mul\n      or\n      swap1\n      sstore\n      pop\n        /* \"kickstarter.sol\":2406:2411  false */\n      0x00\n        /* \"kickstarter.sol\":2393:2394  r */\n      dup2\n        /* \"kickstarter.sol\":2393:2403  r.complete */\n      0x02\n      add\n      0x14\n        /* \"kickstarter.sol\":2393:2411  r.complete = false */\n      0x0100\n      exp\n      dup2\n      sload\n      dup2\n      0xff\n      mul\n      not\n      and\n      swap1\n      dup4\n      iszero\n      iszero\n      mul\n      or\n      swap1\n      sstore\n      pop\n        /* \"kickstarter.sol\":2444:2445  0 */\n      0x00\n        /* \"kickstarter.sol\":2426:2427  r */\n      dup2\n        /* \"kickstarter.sol\":2426:2441  r.approvalCount */\n      0x03\n      add\n        /* \"kickstarter.sol\":2426:2445  r.approvalCount = 0 */\n      dup2\n      swap1\n      sstore\n      pop\n        /* \"kickstarter.sol\":2480:2481  0 */\n      0x00\n        /* \"kickstarter.sol\":2460:2461  r */\n      dup2\n        /* \"kickstarter.sol\":2460:2478  r.disapprovalCount */\n      0x04\n      add\n        /* \"kickstarter.sol\":2460:2481  r.disapprovalCount =0 */\n      dup2\n      swap1\n      sstore\n      pop\n        /* \"kickstarter.sol\":2211:2489  {... */\n      pop\n        /* \"kickstarter.sol\":2105:2489  function createRequest (string memory _description, uint _value, address payable _recipient) public owner {... */\n      pop\n      pop\n      pop\n      jump\t// out\n        /* \"kickstarter.sol\":4138:4443  function getResume() public view returns (string memory, uint, uint, uint, uint, address) {... */\n    tag_48:\n        /* \"kickstarter.sol\":4180:4193  string memory */\n      0x60\n        /* \"kickstarter.sol\":4195:4199  uint */\n      0x00\n        /* \"kickstarter.sol\":4201:4205  uint */\n      dup1\n        /* \"kickstarter.sol\":4207:4211  uint */\n      0x00\n        /* \"kickstarter.sol\":4213:4217  uint */\n      dup1\n        /* \"kickstarter.sol\":4219:4226  address */\n      0x00\n        /* \"kickstarter.sol\":4261:4280  campaignDescription */\n      0x02\n        /* \"kickstarter.sol\":4295:4314  minimumContribution */\n      sload(0x01)\n        /* \"kickstarter.sol\":4329:4350  address(this).balance */\n      selfbalance\n        /* \"kickstarter.sol\":4365:4376  numRequests */\n      sload(0x03)\n        /* \"kickstarter.sol\":4391:4402  voicesCount */\n      sload(0x04)\n        /* \"kickstarter.sol\":4417:4424  manager */\n      0x00\n      dup1\n      sload\n      swap1\n      0x0100\n      exp\n      swap1\n      div\n      0xffffffffffffffffffffffffffffffffffffffff\n      and\n        /* \"kickstarter.sol\":4239:4435  return (... */\n      dup6\n      dup1\n      sload\n      tag_128\n      swap1\n      tag_109\n      jump\t// in\n    tag_128:\n      dup1\n      0x1f\n      add\n      0x20\n      dup1\n      swap2\n      div\n      mul\n      0x20\n      add\n      mload(0x40)\n      swap1\n      dup2\n      add\n      0x40\n      mstore\n      dup1\n      swap3\n      swap2\n      swap1\n      dup2\n      dup2\n      mstore\n      0x20\n      add\n      dup3\n      dup1\n      sload\n      tag_129\n      swap1\n      tag_109\n      jump\t// in\n    tag_129:\n      dup1\n      iszero\n      tag_130\n      jumpi\n      dup1\n      0x1f\n      lt\n      tag_131\n      jumpi\n      0x0100\n      dup1\n      dup4\n      sload\n      div\n      mul\n      dup4\n      mstore\n      swap2\n      0x20\n      add\n      swap2\n      jump(tag_130)\n    tag_131:\n      dup3\n      add\n      swap2\n      swap1\n      0x00\n      mstore\n      keccak256(0x00, 0x20)\n      swap1\n    tag_132:\n      dup2\n      sload\n      dup2\n      mstore\n      swap1\n      0x01\n      add\n      swap1\n      0x20\n      add\n      dup1\n      dup4\n      gt\n      tag_132\n      jumpi\n      dup3\n      swap1\n      sub\n      0x1f\n      and\n      dup3\n      add\n      swap2\n    tag_130:\n      pop\n      pop\n      pop\n      pop\n      pop\n      swap6\n      pop\n      swap6\n      pop\n      swap6\n      pop\n      swap6\n      pop\n      swap6\n      pop\n      swap6\n      pop\n      swap6\n      pop\n        /* \"kickstarter.sol\":4138:4443  function getResume() public view returns (string memory, uint, uint, uint, uint, address) {... */\n      swap1\n      swap2\n      swap3\n      swap4\n      swap5\n      swap6\n      jump\t// out\n        /* \"kickstarter.sol\":612:643  uint public minimumContribution */\n    tag_53:\n      sload(0x01)\n      dup2\n      jump\t// out\n        /* \"kickstarter.sol\":690:713  uint public numRequests */\n    tag_58:\n      sload(0x03)\n      dup2\n      jump\t// out\n        /* \"kickstarter.sol\":851:903  mapping(address => uint) public balanceOfContributor */\n    tag_64:\n      mstore(0x20, 0x07)\n      dup1\n      0x00\n      mstore\n      keccak256(0x00, 0x40)\n      0x00\n      swap2\n      pop\n      swap1\n      pop\n      sload\n      dup2\n      jump\t// out\n        /* \"kickstarter.sol\":720:743  uint public voicesCount */\n    tag_68:\n      sload(0x04)\n      dup2\n      jump\t// out\n        /* \"kickstarter.sol\":750:793  mapping(address => bool) public contributor */\n    tag_73:\n      mstore(0x20, 0x05)\n      dup1\n      0x00\n      mstore\n      keccak256(0x00, 0x40)\n      0x00\n      swap2\n      pop\n      sload\n      swap1\n      0x0100\n      exp\n      swap1\n      div\n      0xff\n      and\n      dup2\n      jump\t// out\n        /* \"kickstarter.sol\":1708:2046  function contribute () public payable {... */\n    tag_77:\n        /* \"kickstarter.sol\":1792:1811  minimumContribution */\n      sload(0x01)\n        /* \"kickstarter.sol\":1779:1788  msg.value */\n      callvalue\n        /* \"kickstarter.sol\":1779:1811  msg.value >= minimumContribution */\n      lt\n      iszero\n        /* \"kickstarter.sol\":1757:1869  require(... */\n      tag_134\n      jumpi\n      mload(0x40)\n      0x08c379a000000000000000000000000000000000000000000000000000000000\n      dup2\n      mstore\n      0x04\n      add\n      tag_135\n      swap1\n      tag_136\n      jump\t// in\n    tag_135:\n      mload(0x40)\n      dup1\n      swap2\n      sub\n      swap1\n      revert\n    tag_134:\n        /* \"kickstarter.sol\":1916:1925  msg.value */\n      callvalue\n        /* \"kickstarter.sol\":1880:1900  balanceOfContributor */\n      0x07\n        /* \"kickstarter.sol\":1880:1912  balanceOfContributor[msg.sender] */\n      0x00\n        /* \"kickstarter.sol\":1901:1911  msg.sender */\n      caller\n        /* \"kickstarter.sol\":1880:1912  balanceOfContributor[msg.sender] */\n      0xffffffffffffffffffffffffffffffffffffffff\n      and\n      0xffffffffffffffffffffffffffffffffffffffff\n      and\n      dup2\n      mstore\n      0x20\n      add\n      swap1\n      dup2\n      mstore\n      0x20\n      add\n      0x00\n      keccak256\n      0x00\n        /* \"kickstarter.sol\":1880:1925  balanceOfContributor[msg.sender] += msg.value */\n      dup3\n      dup3\n      sload\n      tag_137\n      swap2\n      swap1\n      tag_138\n      jump\t// in\n    tag_137:\n      swap3\n      pop\n      pop\n      dup2\n      swap1\n      sstore\n      pop\n        /* \"kickstarter.sol\":1936:1955  participationVoices */\n      0x06\n        /* \"kickstarter.sol\":1936:1967  participationVoices[msg.sender] */\n      0x00\n        /* \"kickstarter.sol\":1956:1966  msg.sender */\n      caller\n        /* \"kickstarter.sol\":1936:1967  participationVoices[msg.sender] */\n      0xffffffffffffffffffffffffffffffffffffffff\n      and\n      0xffffffffffffffffffffffffffffffffffffffff\n      and\n      dup2\n      mstore\n      0x20\n      add\n      swap1\n      dup2\n      mstore\n      0x20\n      add\n      0x00\n      keccak256\n      0x00\n        /* \"kickstarter.sol\":1936:1969  participationVoices[msg.sender]++ */\n      dup2\n      sload\n      dup1\n      swap3\n      swap2\n      swap1\n      tag_139\n      swap1\n      tag_124\n      jump\t// in\n    tag_139:\n      swap2\n      swap1\n      pop\n      sstore\n      pop\n        /* \"kickstarter.sol\":1980:1991  voicesCount */\n      0x04\n      0x00\n        /* \"kickstarter.sol\":1980:1993  voicesCount++ */\n      dup2\n      sload\n      dup1\n      swap3\n      swap2\n      swap1\n      tag_140\n      swap1\n      tag_124\n      jump\t// in\n    tag_140:\n      swap2\n      swap1\n      pop\n      sstore\n      pop\n        /* \"kickstarter.sol\":2032:2036  true */\n      0x01\n        /* \"kickstarter.sol\":2006:2017  contributor */\n      0x05\n        /* \"kickstarter.sol\":2006:2029  contributor[msg.sender] */\n      0x00\n        /* \"kickstarter.sol\":2018:2028  msg.sender */\n      caller\n        /* \"kickstarter.sol\":2006:2029  contributor[msg.sender] */\n      0xffffffffffffffffffffffffffffffffffffffff\n      and\n      0xffffffffffffffffffffffffffffffffffffffff\n      and\n      dup2\n      mstore\n      0x20\n      add\n      swap1\n      dup2\n      mstore\n      0x20\n      add\n      0x00\n      keccak256\n      0x00\n        /* \"kickstarter.sol\":2006:2036  contributor[msg.sender] = true */\n      0x0100\n      exp\n      dup2\n      sload\n      dup2\n      0xff\n      mul\n      not\n      and\n      swap1\n      dup4\n      iszero\n      iszero\n      mul\n      or\n      swap1\n      sstore\n      pop\n        /* \"kickstarter.sol\":1708:2046  function contribute () public payable {... */\n      jump\t// out\n        /* \"kickstarter.sol\":2548:2979  function approveRequest (uint _index) public {... */\n    tag_81:\n        /* \"kickstarter.sol\":2612:2623  contributor */\n      0x05\n        /* \"kickstarter.sol\":2612:2635  contributor[msg.sender] */\n      0x00\n        /* \"kickstarter.sol\":2624:2634  msg.sender */\n      caller\n        /* \"kickstarter.sol\":2612:2635  contributor[msg.sender] */\n      0xffffffffffffffffffffffffffffffffffffffff\n      and\n      0xffffffffffffffffffffffffffffffffffffffff\n      and\n      dup2\n      mstore\n      0x20\n      add\n      swap1\n      dup2\n      mstore\n      0x20\n      add\n      0x00\n      keccak256\n      0x00\n      swap1\n      sload\n      swap1\n      0x0100\n      exp\n      swap1\n      div\n      0xff\n      and\n        /* \"kickstarter.sol\":2604:2711  require(contributor[msg.sender],... */\n      tag_142\n      jumpi\n      mload(0x40)\n      0x08c379a000000000000000000000000000000000000000000000000000000000\n      dup2\n      mstore\n      0x04\n      add\n      tag_143\n      swap1\n      tag_144\n      jump\t// in\n    tag_143:\n      mload(0x40)\n      dup1\n      swap2\n      sub\n      swap1\n      revert\n    tag_142:\n        /* \"kickstarter.sol\":2722:2745  Request storage request */\n      0x00\n        /* \"kickstarter.sol\":2748:2756  requests */\n      0x08\n        /* \"kickstarter.sol\":2748:2764  requests[_index] */\n      0x00\n        /* \"kickstarter.sol\":2757:2763  _index */\n      dup4\n        /* \"kickstarter.sol\":2748:2764  requests[_index] */\n      dup2\n      mstore\n      0x20\n      add\n      swap1\n      dup2\n      mstore\n      0x20\n      add\n      0x00\n      keccak256\n        /* \"kickstarter.sol\":2722:2764  Request storage request = requests[_index] */\n      swap1\n      pop\n        /* \"kickstarter.sol\":2818:2819  1 */\n      0x01\n        /* \"kickstarter.sol\":2783:2802  participationVoices */\n      0x06\n        /* \"kickstarter.sol\":2783:2814  participationVoices[msg.sender] */\n      0x00\n        /* \"kickstarter.sol\":2803:2813  msg.sender */\n      caller\n        /* \"kickstarter.sol\":2783:2814  participationVoices[msg.sender] */\n      0xffffffffffffffffffffffffffffffffffffffff\n      and\n      0xffffffffffffffffffffffffffffffffffffffff\n      and\n      dup2\n      mstore\n      0x20\n      add\n      swap1\n      dup2\n      mstore\n      0x20\n      add\n      0x00\n      keccak256\n      sload\n        /* \"kickstarter.sol\":2783:2819  participationVoices[msg.sender] >= 1 */\n      lt\n      iszero\n        /* \"kickstarter.sol\":2775:2869  require(participationVoices[msg.sender] >= 1,... */\n      tag_145\n      jumpi\n      mload(0x40)\n      0x08c379a000000000000000000000000000000000000000000000000000000000\n      dup2\n      mstore\n      0x04\n      add\n      tag_146\n      swap1\n      tag_147\n      jump\t// in\n    tag_146:\n      mload(0x40)\n      dup1\n      swap2\n      sub\n      swap1\n      revert\n    tag_145:\n        /* \"kickstarter.sol\":2880:2899  participationVoices */\n      0x06\n        /* \"kickstarter.sol\":2880:2911  participationVoices[msg.sender] */\n      0x00\n        /* \"kickstarter.sol\":2900:2910  msg.sender */\n      caller\n        /* \"kickstarter.sol\":2880:2911  participationVoices[msg.sender] */\n      0xffffffffffffffffffffffffffffffffffffffff\n      and\n      0xffffffffffffffffffffffffffffffffffffffff\n      and\n      dup2\n      mstore\n      0x20\n      add\n      swap1\n      dup2\n      mstore\n      0x20\n      add\n      0x00\n      keccak256\n      0x00\n        /* \"kickstarter.sol\":2880:2913  participationVoices[msg.sender]-- */\n      dup2\n      sload\n      dup1\n      swap3\n      swap2\n      swap1\n      tag_148\n      swap1\n      tag_149\n      jump\t// in\n    tag_148:\n      swap2\n      swap1\n      pop\n      sstore\n      pop\n        /* \"kickstarter.sol\":2924:2931  request */\n      dup1\n        /* \"kickstarter.sol\":2924:2945  request.approvalCount */\n      0x03\n      add\n      0x00\n        /* \"kickstarter.sol\":2924:2947  request.approvalCount++ */\n      dup2\n      sload\n      dup1\n      swap3\n      swap2\n      swap1\n      tag_150\n      swap1\n      tag_124\n      jump\t// in\n    tag_150:\n      swap2\n      swap1\n      pop\n      sstore\n      pop\n        /* \"kickstarter.sol\":2958:2969  voicesCount */\n      0x04\n      0x00\n        /* \"kickstarter.sol\":2958:2971  voicesCount-- */\n      dup2\n      sload\n      dup1\n      swap3\n      swap2\n      swap1\n      tag_151\n      swap1\n      tag_149\n      jump\t// in\n    tag_151:\n      swap2\n      swap1\n      pop\n      sstore\n      pop\n        /* \"kickstarter.sol\":2593:2979  {... */\n      pop\n        /* \"kickstarter.sol\":2548:2979  function approveRequest (uint _index) public {... */\n      pop\n      jump\t// out\n        /* \"kickstarter.sol\":3045:3486  function disapproveRequest (uint _index) public {... */\n    tag_85:\n        /* \"kickstarter.sol\":3112:3123  contributor */\n      0x05\n        /* \"kickstarter.sol\":3112:3135  contributor[msg.sender] */\n      0x00\n        /* \"kickstarter.sol\":3124:3134  msg.sender */\n      caller\n        /* \"kickstarter.sol\":3112:3135  contributor[msg.sender] */\n      0xffffffffffffffffffffffffffffffffffffffff\n      and\n      0xffffffffffffffffffffffffffffffffffffffff\n      and\n      dup2\n      mstore\n      0x20\n      add\n      swap1\n      dup2\n      mstore\n      0x20\n      add\n      0x00\n      keccak256\n      0x00\n      swap1\n      sload\n      swap1\n      0x0100\n      exp\n      swap1\n      div\n      0xff\n      and\n        /* \"kickstarter.sol\":3104:3214  require(contributor[msg.sender],... */\n      tag_153\n      jumpi\n      mload(0x40)\n      0x08c379a000000000000000000000000000000000000000000000000000000000\n      dup2\n      mstore\n      0x04\n      add\n      tag_154\n      swap1\n      tag_155\n      jump\t// in\n    tag_154:\n      mload(0x40)\n      dup1\n      swap2\n      sub\n      swap1\n      revert\n    tag_153:\n        /* \"kickstarter.sol\":3225:3248  Request storage request */\n      0x00\n        /* \"kickstarter.sol\":3251:3259  requests */\n      0x08\n        /* \"kickstarter.sol\":3251:3267  requests[_index] */\n      0x00\n        /* \"kickstarter.sol\":3260:3266  _index */\n      dup4\n        /* \"kickstarter.sol\":3251:3267  requests[_index] */\n      dup2\n      mstore\n      0x20\n      add\n      swap1\n      dup2\n      mstore\n      0x20\n      add\n      0x00\n      keccak256\n        /* \"kickstarter.sol\":3225:3267  Request storage request = requests[_index] */\n      swap1\n      pop\n        /* \"kickstarter.sol\":3321:3322  1 */\n      0x01\n        /* \"kickstarter.sol\":3286:3305  participationVoices */\n      0x06\n        /* \"kickstarter.sol\":3286:3317  participationVoices[msg.sender] */\n      0x00\n        /* \"kickstarter.sol\":3306:3316  msg.sender */\n      caller\n        /* \"kickstarter.sol\":3286:3317  participationVoices[msg.sender] */\n      0xffffffffffffffffffffffffffffffffffffffff\n      and\n      0xffffffffffffffffffffffffffffffffffffffff\n      and\n      dup2\n      mstore\n      0x20\n      add\n      swap1\n      dup2\n      mstore\n      0x20\n      add\n      0x00\n      keccak256\n      sload\n        /* \"kickstarter.sol\":3286:3322  participationVoices[msg.sender] >= 1 */\n      lt\n      iszero\n        /* \"kickstarter.sol\":3278:3373  require(participationVoices[msg.sender] >= 1, ... */\n      tag_156\n      jumpi\n      mload(0x40)\n      0x08c379a000000000000000000000000000000000000000000000000000000000\n      dup2\n      mstore\n      0x04\n      add\n      tag_157\n      swap1\n      tag_147\n      jump\t// in\n    tag_157:\n      mload(0x40)\n      dup1\n      swap2\n      sub\n      swap1\n      revert\n    tag_156:\n        /* \"kickstarter.sol\":3384:3403  participationVoices */\n      0x06\n        /* \"kickstarter.sol\":3384:3415  participationVoices[msg.sender] */\n      0x00\n        /* \"kickstarter.sol\":3404:3414  msg.sender */\n      caller\n        /* \"kickstarter.sol\":3384:3415  participationVoices[msg.sender] */\n      0xffffffffffffffffffffffffffffffffffffffff\n      and\n      0xffffffffffffffffffffffffffffffffffffffff\n      and\n      dup2\n      mstore\n      0x20\n      add\n      swap1\n      dup2\n      mstore\n      0x20\n      add\n      0x00\n      keccak256\n      0x00\n        /* \"kickstarter.sol\":3384:3417  participationVoices[msg.sender]-- */\n      dup2\n      sload\n      dup1\n      swap3\n      swap2\n      swap1\n      tag_158\n      swap1\n      tag_149\n      jump\t// in\n    tag_158:\n      swap2\n      swap1\n      pop\n      sstore\n      pop\n        /* \"kickstarter.sol\":3428:3435  request */\n      dup1\n        /* \"kickstarter.sol\":3428:3452  request.disapprovalCount */\n      0x04\n      add\n      0x00\n        /* \"kickstarter.sol\":3428:3454  request.disapprovalCount++ */\n      dup2\n      sload\n      dup1\n      swap3\n      swap2\n      swap1\n      tag_159\n      swap1\n      tag_124\n      jump\t// in\n    tag_159:\n      swap2\n      swap1\n      pop\n      sstore\n      pop\n        /* \"kickstarter.sol\":3465:3476  voicesCount */\n      0x04\n      0x00\n        /* \"kickstarter.sol\":3465:3478  voicesCount-- */\n      dup2\n      sload\n      dup1\n      swap3\n      swap2\n      swap1\n      tag_160\n      swap1\n      tag_149\n      jump\t// in\n    tag_160:\n      swap2\n      swap1\n      pop\n      sstore\n      pop\n        /* \"kickstarter.sol\":3093:3486  {... */\n      pop\n        /* \"kickstarter.sol\":3045:3486  function disapproveRequest (uint _index) public {... */\n      pop\n      jump\t// out\n        /* \"kickstarter.sol\":4451:4541  function getAllRequests() public view returns (uint) {... */\n    tag_88:\n        /* \"kickstarter.sol\":4498:4502  uint */\n      0x00\n        /* \"kickstarter.sol\":4522:4533  numRequests */\n      sload(0x03)\n        /* \"kickstarter.sol\":4515:4533  return numRequests */\n      swap1\n      pop\n        /* \"kickstarter.sol\":4451:4541  function getAllRequests() public view returns (uint) {... */\n      swap1\n      jump\t// out\n    tag_126:\n      dup3\n      dup1\n      sload\n      tag_162\n      swap1\n      tag_109\n      jump\t// in\n    tag_162:\n      swap1\n      0x00\n      mstore\n      keccak256(0x00, 0x20)\n      swap1\n      0x1f\n      add\n      0x20\n      swap1\n      div\n      dup2\n      add\n      swap3\n      dup3\n      tag_164\n      jumpi\n      0x00\n      dup6\n      sstore\n      jump(tag_163)\n    tag_164:\n      dup3\n      0x1f\n      lt\n      tag_165\n      jumpi\n      dup1\n      mload\n      not(0xff)\n      and\n      dup4\n      dup1\n      add\n      or\n      dup6\n      sstore\n      jump(tag_163)\n    tag_165:\n      dup3\n      dup1\n      add\n      0x01\n      add\n      dup6\n      sstore\n      dup3\n      iszero\n      tag_163\n      jumpi\n      swap2\n      dup3\n      add\n    tag_166:\n      dup3\n      dup2\n      gt\n      iszero\n      tag_167\n      jumpi\n      dup3\n      mload\n      dup3\n      sstore\n      swap2\n      0x20\n      add\n      swap2\n      swap1\n      0x01\n      add\n      swap1\n      jump(tag_166)\n    tag_167:\n    tag_163:\n      pop\n      swap1\n      pop\n      tag_168\n      swap2\n      swap1\n      tag_169\n      jump\t// in\n    tag_168:\n      pop\n      swap1\n      jump\t// out\n    tag_169:\n    tag_170:\n      dup1\n      dup3\n      gt\n      iszero\n      tag_171\n      jumpi\n      0x00\n      dup2\n      0x00\n      swap1\n      sstore\n      pop\n      0x01\n      add\n      jump(tag_170)\n    tag_171:\n      pop\n      swap1\n      jump\t// out\n        /* \"#utility.yul\":7:82   */\n    tag_172:\n        /* \"#utility.yul\":40:46   */\n      0x00\n        /* \"#utility.yul\":73:75   */\n      0x40\n        /* \"#utility.yul\":67:76   */\n      mload\n        /* \"#utility.yul\":57:76   */\n      swap1\n      pop\n        /* \"#utility.yul\":7:82   */\n      swap1\n      jump\t// out\n        /* \"#utility.yul\":88:205   */\n    tag_173:\n        /* \"#utility.yul\":197:198   */\n      0x00\n        /* \"#utility.yul\":194:195   */\n      dup1\n        /* \"#utility.yul\":187:199   */\n      revert\n        /* \"#utility.yul\":211:328   */\n    tag_174:\n        /* \"#utility.yul\":320:321   */\n      0x00\n        /* \"#utility.yul\":317:318   */\n      dup1\n        /* \"#utility.yul\":310:322   */\n      revert\n        /* \"#utility.yul\":334:411   */\n    tag_175:\n        /* \"#utility.yul\":371:378   */\n      0x00\n        /* \"#utility.yul\":400:405   */\n      dup2\n        /* \"#utility.yul\":389:405   */\n      swap1\n      pop\n        /* \"#utility.yul\":334:411   */\n      swap2\n      swap1\n      pop\n      jump\t// out\n        /* \"#utility.yul\":417:539   */\n    tag_176:\n        /* \"#utility.yul\":490:514   */\n      tag_229\n        /* \"#utility.yul\":508:513   */\n      dup2\n        /* \"#utility.yul\":490:514   */\n      tag_175\n      jump\t// in\n    tag_229:\n        /* \"#utility.yul\":483:488   */\n      dup2\n        /* \"#utility.yul\":480:515   */\n      eq\n        /* \"#utility.yul\":470:533   */\n      tag_230\n      jumpi\n        /* \"#utility.yul\":529:530   */\n      0x00\n        /* \"#utility.yul\":526:527   */\n      dup1\n        /* \"#utility.yul\":519:531   */\n      revert\n        /* \"#utility.yul\":470:533   */\n    tag_230:\n        /* \"#utility.yul\":417:539   */\n      pop\n      jump\t// out\n        /* \"#utility.yul\":545:684   */\n    tag_177:\n        /* \"#utility.yul\":591:596   */\n      0x00\n        /* \"#utility.yul\":629:635   */\n      dup2\n        /* \"#utility.yul\":616:636   */\n      calldataload\n        /* \"#utility.yul\":607:636   */\n      swap1\n      pop\n        /* \"#utility.yul\":645:678   */\n      tag_232\n        /* \"#utility.yul\":672:677   */\n      dup2\n        /* \"#utility.yul\":645:678   */\n      tag_176\n      jump\t// in\n    tag_232:\n        /* \"#utility.yul\":545:684   */\n      swap3\n      swap2\n      pop\n      pop\n      jump\t// out\n        /* \"#utility.yul\":690:1019   */\n    tag_23:\n        /* \"#utility.yul\":749:755   */\n      0x00\n        /* \"#utility.yul\":798:800   */\n      0x20\n        /* \"#utility.yul\":786:795   */\n      dup3\n        /* \"#utility.yul\":777:784   */\n      dup5\n        /* \"#utility.yul\":773:796   */\n      sub\n        /* \"#utility.yul\":769:801   */\n      slt\n        /* \"#utility.yul\":766:885   */\n      iszero\n      tag_234\n      jumpi\n        /* \"#utility.yul\":804:883   */\n      tag_235\n      tag_173\n      jump\t// in\n    tag_235:\n        /* \"#utility.yul\":766:885   */\n    tag_234:\n        /* \"#utility.yul\":924:925   */\n      0x00\n        /* \"#utility.yul\":949:1002   */\n      tag_236\n        /* \"#utility.yul\":994:1001   */\n      dup5\n        /* \"#utility.yul\":985:991   */\n      dup3\n        /* \"#utility.yul\":974:983   */\n      dup6\n        /* \"#utility.yul\":970:992   */\n      add\n        /* \"#utility.yul\":949:1002   */\n      tag_177\n      jump\t// in\n    tag_236:\n        /* \"#utility.yul\":939:1002   */\n      swap2\n      pop\n        /* \"#utility.yul\":895:1012   */\n      pop\n        /* \"#utility.yul\":690:1019   */\n      swap3\n      swap2\n      pop\n      pop\n      jump\t// out\n        /* \"#utility.yul\":1025:1124   */\n    tag_178:\n        /* \"#utility.yul\":1077:1083   */\n      0x00\n        /* \"#utility.yul\":1111:1116   */\n      dup2\n        /* \"#utility.yul\":1105:1117   */\n      mload\n        /* \"#utility.yul\":1095:1117   */\n      swap1\n      pop\n        /* \"#utility.yul\":1025:1124   */\n      swap2\n      swap1\n      pop\n      jump\t// out\n        /* \"#utility.yul\":1130:1299   */\n    tag_179:\n        /* \"#utility.yul\":1214:1225   */\n      0x00\n        /* \"#utility.yul\":1248:1254   */\n      dup3\n        /* \"#utility.yul\":1243:1246   */\n      dup3\n        /* \"#utility.yul\":1236:1255   */\n      mstore\n        /* \"#utility.yul\":1288:1292   */\n      0x20\n        /* \"#utility.yul\":1283:1286   */\n      dup3\n        /* \"#utility.yul\":1279:1293   */\n      add\n        /* \"#utility.yul\":1264:1293   */\n      swap1\n      pop\n        /* \"#utility.yul\":1130:1299   */\n      swap3\n      swap2\n      pop\n      pop\n      jump\t// out\n        /* \"#utility.yul\":1305:1612   */\n    tag_180:\n        /* \"#utility.yul\":1373:1374   */\n      0x00\n        /* \"#utility.yul\":1383:1496   */\n    tag_240:\n        /* \"#utility.yul\":1397:1403   */\n      dup4\n        /* \"#utility.yul\":1394:1395   */\n      dup2\n        /* \"#utility.yul\":1391:1404   */\n      lt\n        /* \"#utility.yul\":1383:1496   */\n      iszero\n      tag_242\n      jumpi\n        /* \"#utility.yul\":1482:1483   */\n      dup1\n        /* \"#utility.yul\":1477:1480   */\n      dup3\n        /* \"#utility.yul\":1473:1484   */\n      add\n        /* \"#utility.yul\":1467:1485   */\n      mload\n        /* \"#utility.yul\":1463:1464   */\n      dup2\n        /* \"#utility.yul\":1458:1461   */\n      dup5\n        /* \"#utility.yul\":1454:1465   */\n      add\n        /* \"#utility.yul\":1447:1486   */\n      mstore\n        /* \"#utility.yul\":1419:1421   */\n      0x20\n        /* \"#utility.yul\":1416:1417   */\n      dup2\n        /* \"#utility.yul\":1412:1422   */\n      add\n        /* \"#utility.yul\":1407:1422   */\n      swap1\n      pop\n        /* \"#utility.yul\":1383:1496   */\n      jump(tag_240)\n    tag_242:\n        /* \"#utility.yul\":1514:1520   */\n      dup4\n        /* \"#utility.yul\":1511:1512   */\n      dup2\n        /* \"#utility.yul\":1508:1521   */\n      gt\n        /* \"#utility.yul\":1505:1606   */\n      iszero\n      tag_243\n      jumpi\n        /* \"#utility.yul\":1594:1595   */\n      0x00\n        /* \"#utility.yul\":1585:1591   */\n      dup5\n        /* \"#utility.yul\":1580:1583   */\n      dup5\n        /* \"#utility.yul\":1576:1592   */\n      add\n        /* \"#utility.yul\":1569:1596   */\n      mstore\n        /* \"#utility.yul\":1505:1606   */\n    tag_243:\n        /* \"#utility.yul\":1354:1612   */\n      pop\n        /* \"#utility.yul\":1305:1612   */\n      pop\n      pop\n      pop\n      jump\t// out\n        /* \"#utility.yul\":1618:1720   */\n    tag_181:\n        /* \"#utility.yul\":1659:1665   */\n      0x00\n        /* \"#utility.yul\":1710:1712   */\n      0x1f\n        /* \"#utility.yul\":1706:1713   */\n      not\n        /* \"#utility.yul\":1701:1703   */\n      0x1f\n        /* \"#utility.yul\":1694:1699   */\n      dup4\n        /* \"#utility.yul\":1690:1704   */\n      add\n        /* \"#utility.yul\":1686:1714   */\n      and\n        /* \"#utility.yul\":1676:1714   */\n      swap1\n      pop\n        /* \"#utility.yul\":1618:1720   */\n      swap2\n      swap1\n      pop\n      jump\t// out\n        /* \"#utility.yul\":1726:2090   */\n    tag_182:\n        /* \"#utility.yul\":1814:1817   */\n      0x00\n        /* \"#utility.yul\":1842:1881   */\n      tag_246\n        /* \"#utility.yul\":1875:1880   */\n      dup3\n        /* \"#utility.yul\":1842:1881   */\n      tag_178\n      jump\t// in\n    tag_246:\n        /* \"#utility.yul\":1897:1968   */\n      tag_247\n        /* \"#utility.yul\":1961:1967   */\n      dup2\n        /* \"#utility.yul\":1956:1959   */\n      dup6\n        /* \"#utility.yul\":1897:1968   */\n      tag_179\n      jump\t// in\n    tag_247:\n        /* \"#utility.yul\":1890:1968   */\n      swap4\n      pop\n        /* \"#utility.yul\":1977:2029   */\n      tag_248\n        /* \"#utility.yul\":2022:2028   */\n      dup2\n        /* \"#utility.yul\":2017:2020   */\n      dup6\n        /* \"#utility.yul\":2010:2014   */\n      0x20\n        /* \"#utility.yul\":2003:2008   */\n      dup7\n        /* \"#utility.yul\":1999:2015   */\n      add\n        /* \"#utility.yul\":1977:2029   */\n      tag_180\n      jump\t// in\n    tag_248:\n        /* \"#utility.yul\":2054:2083   */\n      tag_249\n        /* \"#utility.yul\":2076:2082   */\n      dup2\n        /* \"#utility.yul\":2054:2083   */\n      tag_181\n      jump\t// in\n    tag_249:\n        /* \"#utility.yul\":2049:2052   */\n      dup5\n        /* \"#utility.yul\":2045:2084   */\n      add\n        /* \"#utility.yul\":2038:2084   */\n      swap2\n      pop\n        /* \"#utility.yul\":1818:2090   */\n      pop\n        /* \"#utility.yul\":1726:2090   */\n      swap3\n      swap2\n      pop\n      pop\n      jump\t// out\n        /* \"#utility.yul\":2096:2409   */\n    tag_29:\n        /* \"#utility.yul\":2209:2213   */\n      0x00\n        /* \"#utility.yul\":2247:2249   */\n      0x20\n        /* \"#utility.yul\":2236:2245   */\n      dup3\n        /* \"#utility.yul\":2232:2250   */\n      add\n        /* \"#utility.yul\":2224:2250   */\n      swap1\n      pop\n        /* \"#utility.yul\":2296:2305   */\n      dup2\n        /* \"#utility.yul\":2290:2294   */\n      dup2\n        /* \"#utility.yul\":2286:2306   */\n      sub\n        /* \"#utility.yul\":2282:2283   */\n      0x00\n        /* \"#utility.yul\":2271:2280   */\n      dup4\n        /* \"#utility.yul\":2267:2284   */\n      add\n        /* \"#utility.yul\":2260:2307   */\n      mstore\n        /* \"#utility.yul\":2324:2402   */\n      tag_251\n        /* \"#utility.yul\":2397:2401   */\n      dup2\n        /* \"#utility.yul\":2388:2394   */\n      dup5\n        /* \"#utility.yul\":2324:2402   */\n      tag_182\n      jump\t// in\n    tag_251:\n        /* \"#utility.yul\":2316:2402   */\n      swap1\n      pop\n        /* \"#utility.yul\":2096:2409   */\n      swap3\n      swap2\n      pop\n      pop\n      jump\t// out\n        /* \"#utility.yul\":2415:2541   */\n    tag_183:\n        /* \"#utility.yul\":2452:2459   */\n      0x00\n        /* \"#utility.yul\":2492:2534   */\n      0xffffffffffffffffffffffffffffffffffffffff\n        /* \"#utility.yul\":2485:2490   */\n      dup3\n        /* \"#utility.yul\":2481:2535   */\n      and\n        /* \"#utility.yul\":2470:2535   */\n      swap1\n      pop\n        /* \"#utility.yul\":2415:2541   */\n      swap2\n      swap1\n      pop\n      jump\t// out\n        /* \"#utility.yul\":2547:2643   */\n    tag_184:\n        /* \"#utility.yul\":2584:2591   */\n      0x00\n        /* \"#utility.yul\":2613:2637   */\n      tag_254\n        /* \"#utility.yul\":2631:2636   */\n      dup3\n        /* \"#utility.yul\":2613:2637   */\n      tag_183\n      jump\t// in\n    tag_254:\n        /* \"#utility.yul\":2602:2637   */\n      swap1\n      pop\n        /* \"#utility.yul\":2547:2643   */\n      swap2\n      swap1\n      pop\n      jump\t// out\n        /* \"#utility.yul\":2649:2767   */\n    tag_185:\n        /* \"#utility.yul\":2736:2760   */\n      tag_256\n        /* \"#utility.yul\":2754:2759   */\n      dup2\n        /* \"#utility.yul\":2736:2760   */\n      tag_184\n      jump\t// in\n    tag_256:\n        /* \"#utility.yul\":2731:2734   */\n      dup3\n        /* \"#utility.yul\":2724:2761   */\n      mstore\n        /* \"#utility.yul\":2649:2767   */\n      pop\n      pop\n      jump\t// out\n        /* \"#utility.yul\":2773:2995   */\n    tag_34:\n        /* \"#utility.yul\":2866:2870   */\n      0x00\n        /* \"#utility.yul\":2904:2906   */\n      0x20\n        /* \"#utility.yul\":2893:2902   */\n      dup3\n        /* \"#utility.yul\":2889:2907   */\n      add\n        /* \"#utility.yul\":2881:2907   */\n      swap1\n      pop\n        /* \"#utility.yul\":2917:2988   */\n      tag_258\n        /* \"#utility.yul\":2985:2986   */\n      0x00\n        /* \"#utility.yul\":2974:2983   */\n      dup4\n        /* \"#utility.yul\":2970:2987   */\n      add\n        /* \"#utility.yul\":2961:2967   */\n      dup5\n        /* \"#utility.yul\":2917:2988   */\n      tag_185\n      jump\t// in\n    tag_258:\n        /* \"#utility.yul\":2773:2995   */\n      swap3\n      swap2\n      pop\n      pop\n      jump\t// out\n        /* \"#utility.yul\":3001:3119   */\n    tag_186:\n        /* \"#utility.yul\":3088:3112   */\n      tag_260\n        /* \"#utility.yul\":3106:3111   */\n      dup2\n        /* \"#utility.yul\":3088:3112   */\n      tag_175\n      jump\t// in\n    tag_260:\n        /* \"#utility.yul\":3083:3086   */\n      dup3\n        /* \"#utility.yul\":3076:3113   */\n      mstore\n        /* \"#utility.yul\":3001:3119   */\n      pop\n      pop\n      jump\t// out\n        /* \"#utility.yul\":3125:3229   */\n    tag_187:\n        /* \"#utility.yul\":3170:3177   */\n      0x00\n        /* \"#utility.yul\":3199:3223   */\n      tag_262\n        /* \"#utility.yul\":3217:3222   */\n      dup3\n        /* \"#utility.yul\":3199:3223   */\n      tag_183\n      jump\t// in\n    tag_262:\n        /* \"#utility.yul\":3188:3223   */\n      swap1\n      pop\n        /* \"#utility.yul\":3125:3229   */\n      swap2\n      swap1\n      pop\n      jump\t// out\n        /* \"#utility.yul\":3235:3377   */\n    tag_188:\n        /* \"#utility.yul\":3338:3370   */\n      tag_264\n        /* \"#utility.yul\":3364:3369   */\n      dup2\n        /* \"#utility.yul\":3338:3370   */\n      tag_187\n      jump\t// in\n    tag_264:\n        /* \"#utility.yul\":3333:3336   */\n      dup3\n        /* \"#utility.yul\":3326:3371   */\n      mstore\n        /* \"#utility.yul\":3235:3377   */\n      pop\n      pop\n      jump\t// out\n        /* \"#utility.yul\":3383:3473   */\n    tag_189:\n        /* \"#utility.yul\":3417:3424   */\n      0x00\n        /* \"#utility.yul\":3460:3465   */\n      dup2\n        /* \"#utility.yul\":3453:3466   */\n      iszero\n        /* \"#utility.yul\":3446:3467   */\n      iszero\n        /* \"#utility.yul\":3435:3467   */\n      swap1\n      pop\n        /* \"#utility.yul\":3383:3473   */\n      swap2\n      swap1\n      pop\n      jump\t// out\n        /* \"#utility.yul\":3479:3588   */\n    tag_190:\n        /* \"#utility.yul\":3560:3581   */\n      tag_267\n        /* \"#utility.yul\":3575:3580   */\n      dup2\n        /* \"#utility.yul\":3560:3581   */\n      tag_189\n      jump\t// in\n    tag_267:\n        /* \"#utility.yul\":3555:3558   */\n      dup3\n        /* \"#utility.yul\":3548:3582   */\n      mstore\n        /* \"#utility.yul\":3479:3588   */\n      pop\n      pop\n      jump\t// out\n        /* \"#utility.yul\":3594:4480   */\n    tag_40:\n        /* \"#utility.yul\":3857:3861   */\n      0x00\n        /* \"#utility.yul\":3895:3898   */\n      0xc0\n        /* \"#utility.yul\":3884:3893   */\n      dup3\n        /* \"#utility.yul\":3880:3899   */\n      add\n        /* \"#utility.yul\":3872:3899   */\n      swap1\n      pop\n        /* \"#utility.yul\":3945:3954   */\n      dup2\n        /* \"#utility.yul\":3939:3943   */\n      dup2\n        /* \"#utility.yul\":3935:3955   */\n      sub\n        /* \"#utility.yul\":3931:3932   */\n      0x00\n        /* \"#utility.yul\":3920:3929   */\n      dup4\n        /* \"#utility.yul\":3916:3933   */\n      add\n        /* \"#utility.yul\":3909:3956   */\n      mstore\n        /* \"#utility.yul\":3973:4051   */\n      tag_269\n        /* \"#utility.yul\":4046:4050   */\n      dup2\n        /* \"#utility.yul\":4037:4043   */\n      dup10\n        /* \"#utility.yul\":3973:4051   */\n      tag_182\n      jump\t// in\n    tag_269:\n        /* \"#utility.yul\":3965:4051   */\n      swap1\n      pop\n        /* \"#utility.yul\":4061:4133   */\n      tag_270\n        /* \"#utility.yul\":4129:4131   */\n      0x20\n        /* \"#utility.yul\":4118:4127   */\n      dup4\n        /* \"#utility.yul\":4114:4132   */\n      add\n        /* \"#utility.yul\":4105:4111   */\n      dup9\n        /* \"#utility.yul\":4061:4133   */\n      tag_186\n      jump\t// in\n    tag_270:\n        /* \"#utility.yul\":4143:4231   */\n      tag_271\n        /* \"#utility.yul\":4227:4229   */\n      0x40\n        /* \"#utility.yul\":4216:4225   */\n      dup4\n        /* \"#utility.yul\":4212:4230   */\n      add\n        /* \"#utility.yul\":4203:4209   */\n      dup8\n        /* \"#utility.yul\":4143:4231   */\n      tag_188\n      jump\t// in\n    tag_271:\n        /* \"#utility.yul\":4241:4307   */\n      tag_272\n        /* \"#utility.yul\":4303:4305   */\n      0x60\n        /* \"#utility.yul\":4292:4301   */\n      dup4\n        /* \"#utility.yul\":4288:4306   */\n      add\n        /* \"#utility.yul\":4279:4285   */\n      dup7\n        /* \"#utility.yul\":4241:4307   */\n      tag_190\n      jump\t// in\n    tag_272:\n        /* \"#utility.yul\":4317:4390   */\n      tag_273\n        /* \"#utility.yul\":4385:4388   */\n      0x80\n        /* \"#utility.yul\":4374:4383   */\n      dup4\n        /* \"#utility.yul\":4370:4389   */\n      add\n        /* \"#utility.yul\":4361:4367   */\n      dup6\n        /* \"#utility.yul\":4317:4390   */\n      tag_186\n      jump\t// in\n    tag_273:\n        /* \"#utility.yul\":4400:4473   */\n      tag_274\n        /* \"#utility.yul\":4468:4471   */\n      0xa0\n        /* \"#utility.yul\":4457:4466   */\n      dup4\n        /* \"#utility.yul\":4453:4472   */\n      add\n        /* \"#utility.yul\":4444:4450   */\n      dup5\n        /* \"#utility.yul\":4400:4473   */\n      tag_186\n      jump\t// in\n    tag_274:\n        /* \"#utility.yul\":3594:4480   */\n      swap8\n      swap7\n      pop\n      pop\n      pop\n      pop\n      pop\n      pop\n      pop\n      jump\t// out\n        /* \"#utility.yul\":4486:4603   */\n    tag_191:\n        /* \"#utility.yul\":4595:4596   */\n      0x00\n        /* \"#utility.yul\":4592:4593   */\n      dup1\n        /* \"#utility.yul\":4585:4597   */\n      revert\n        /* \"#utility.yul\":4609:4726   */\n    tag_192:\n        /* \"#utility.yul\":4718:4719   */\n      0x00\n        /* \"#utility.yul\":4715:4716   */\n      dup1\n        /* \"#utility.yul\":4708:4720   */\n      revert\n        /* \"#utility.yul\":4732:4912   */\n    tag_193:\n        /* \"#utility.yul\":4780:4857   */\n      0x4e487b7100000000000000000000000000000000000000000000000000000000\n        /* \"#utility.yul\":4777:4778   */\n      0x00\n        /* \"#utility.yul\":4770:4858   */\n      mstore\n        /* \"#utility.yul\":4877:4881   */\n      0x41\n        /* \"#utility.yul\":4874:4875   */\n      0x04\n        /* \"#utility.yul\":4867:4882   */\n      mstore\n        /* \"#utility.yul\":4901:4905   */\n      0x24\n        /* \"#utility.yul\":4898:4899   */\n      0x00\n        /* \"#utility.yul\":4891:4906   */\n      revert\n        /* \"#utility.yul\":4918:5199   */\n    tag_194:\n        /* \"#utility.yul\":5001:5028   */\n      tag_279\n        /* \"#utility.yul\":5023:5027   */\n      dup3\n        /* \"#utility.yul\":5001:5028   */\n      tag_181\n      jump\t// in\n    tag_279:\n        /* \"#utility.yul\":4993:4999   */\n      dup2\n        /* \"#utility.yul\":4989:5029   */\n      add\n        /* \"#utility.yul\":5131:5137   */\n      dup2\n        /* \"#utility.yul\":5119:5129   */\n      dup2\n        /* \"#utility.yul\":5116:5138   */\n      lt\n        /* \"#utility.yul\":5095:5113   */\n      0xffffffffffffffff\n        /* \"#utility.yul\":5083:5093   */\n      dup3\n        /* \"#utility.yul\":5080:5114   */\n      gt\n        /* \"#utility.yul\":5077:5139   */\n      or\n        /* \"#utility.yul\":5074:5162   */\n      iszero\n      tag_280\n      jumpi\n        /* \"#utility.yul\":5142:5160   */\n      tag_281\n      tag_193\n      jump\t// in\n    tag_281:\n        /* \"#utility.yul\":5074:5162   */\n    tag_280:\n        /* \"#utility.yul\":5182:5192   */\n      dup1\n        /* \"#utility.yul\":5178:5180   */\n      0x40\n        /* \"#utility.yul\":5171:5193   */\n      mstore\n        /* \"#utility.yul\":4961:5199   */\n      pop\n        /* \"#utility.yul\":4918:5199   */\n      pop\n      pop\n      jump\t// out\n        /* \"#utility.yul\":5205:5334   */\n    tag_195:\n        /* \"#utility.yul\":5239:5245   */\n      0x00\n        /* \"#utility.yul\":5266:5286   */\n      tag_283\n      tag_172\n      jump\t// in\n    tag_283:\n        /* \"#utility.yul\":5256:5286   */\n      swap1\n      pop\n        /* \"#utility.yul\":5295:5328   */\n      tag_284\n        /* \"#utility.yul\":5323:5327   */\n      dup3\n        /* \"#utility.yul\":5315:5321   */\n      dup3\n        /* \"#utility.yul\":5295:5328   */\n      tag_194\n      jump\t// in\n    tag_284:\n        /* \"#utility.yul\":5205:5334   */\n      swap2\n      swap1\n      pop\n      jump\t// out\n        /* \"#utility.yul\":5340:5648   */\n    tag_196:\n        /* \"#utility.yul\":5402:5406   */\n      0x00\n        /* \"#utility.yul\":5492:5510   */\n      0xffffffffffffffff\n        /* \"#utility.yul\":5484:5490   */\n      dup3\n        /* \"#utility.yul\":5481:5511   */\n      gt\n        /* \"#utility.yul\":5478:5534   */\n      iszero\n      tag_286\n      jumpi\n        /* \"#utility.yul\":5514:5532   */\n      tag_287\n      tag_193\n      jump\t// in\n    tag_287:\n        /* \"#utility.yul\":5478:5534   */\n    tag_286:\n        /* \"#utility.yul\":5552:5581   */\n      tag_288\n        /* \"#utility.yul\":5574:5580   */\n      dup3\n        /* \"#utility.yul\":5552:5581   */\n      tag_181\n      jump\t// in\n    tag_288:\n        /* \"#utility.yul\":5544:5581   */\n      swap1\n      pop\n        /* \"#utility.yul\":5636:5640   */\n      0x20\n        /* \"#utility.yul\":5630:5634   */\n      dup2\n        /* \"#utility.yul\":5626:5641   */\n      add\n        /* \"#utility.yul\":5618:5641   */\n      swap1\n      pop\n        /* \"#utility.yul\":5340:5648   */\n      swap2\n      swap1\n      pop\n      jump\t// out\n        /* \"#utility.yul\":5654:5808   */\n    tag_197:\n        /* \"#utility.yul\":5738:5744   */\n      dup3\n        /* \"#utility.yul\":5733:5736   */\n      dup2\n        /* \"#utility.yul\":5728:5731   */\n      dup4\n        /* \"#utility.yul\":5715:5745   */\n      calldatacopy\n        /* \"#utility.yul\":5800:5801   */\n      0x00\n        /* \"#utility.yul\":5791:5797   */\n      dup4\n        /* \"#utility.yul\":5786:5789   */\n      dup4\n        /* \"#utility.yul\":5782:5798   */\n      add\n        /* \"#utility.yul\":5775:5802   */\n      mstore\n        /* \"#utility.yul\":5654:5808   */\n      pop\n      pop\n      pop\n      jump\t// out\n        /* \"#utility.yul\":5814:6226   */\n    tag_198:\n        /* \"#utility.yul\":5892:5897   */\n      0x00\n        /* \"#utility.yul\":5917:5983   */\n      tag_291\n        /* \"#utility.yul\":5933:5982   */\n      tag_292\n        /* \"#utility.yul\":5975:5981   */\n      dup5\n        /* \"#utility.yul\":5933:5982   */\n      tag_196\n      jump\t// in\n    tag_292:\n        /* \"#utility.yul\":5917:5983   */\n      tag_195\n      jump\t// in\n    tag_291:\n        /* \"#utility.yul\":5908:5983   */\n      swap1\n      pop\n        /* \"#utility.yul\":6006:6012   */\n      dup3\n        /* \"#utility.yul\":5999:6004   */\n      dup2\n        /* \"#utility.yul\":5992:6013   */\n      mstore\n        /* \"#utility.yul\":6044:6048   */\n      0x20\n        /* \"#utility.yul\":6037:6042   */\n      dup2\n        /* \"#utility.yul\":6033:6049   */\n      add\n        /* \"#utility.yul\":6082:6085   */\n      dup5\n        /* \"#utility.yul\":6073:6079   */\n      dup5\n        /* \"#utility.yul\":6068:6071   */\n      dup5\n        /* \"#utility.yul\":6064:6080   */\n      add\n        /* \"#utility.yul\":6061:6086   */\n      gt\n        /* \"#utility.yul\":6058:6170   */\n      iszero\n      tag_293\n      jumpi\n        /* \"#utility.yul\":6089:6168   */\n      tag_294\n      tag_192\n      jump\t// in\n    tag_294:\n        /* \"#utility.yul\":6058:6170   */\n    tag_293:\n        /* \"#utility.yul\":6179:6220   */\n      tag_295\n        /* \"#utility.yul\":6213:6219   */\n      dup5\n        /* \"#utility.yul\":6208:6211   */\n      dup3\n        /* \"#utility.yul\":6203:6206   */\n      dup6\n        /* \"#utility.yul\":6179:6220   */\n      tag_197\n      jump\t// in\n    tag_295:\n        /* \"#utility.yul\":5898:6226   */\n      pop\n        /* \"#utility.yul\":5814:6226   */\n      swap4\n      swap3\n      pop\n      pop\n      pop\n      jump\t// out\n        /* \"#utility.yul\":6246:6586   */\n    tag_199:\n        /* \"#utility.yul\":6302:6307   */\n      0x00\n        /* \"#utility.yul\":6351:6354   */\n      dup3\n        /* \"#utility.yul\":6344:6348   */\n      0x1f\n        /* \"#utility.yul\":6336:6342   */\n      dup4\n        /* \"#utility.yul\":6332:6349   */\n      add\n        /* \"#utility.yul\":6328:6355   */\n      slt\n        /* \"#utility.yul\":6318:6440   */\n      tag_297\n      jumpi\n        /* \"#utility.yul\":6359:6438   */\n      tag_298\n      tag_191\n      jump\t// in\n    tag_298:\n        /* \"#utility.yul\":6318:6440   */\n    tag_297:\n        /* \"#utility.yul\":6476:6482   */\n      dup2\n        /* \"#utility.yul\":6463:6483   */\n      calldataload\n        /* \"#utility.yul\":6501:6580   */\n      tag_299\n        /* \"#utility.yul\":6576:6579   */\n      dup5\n        /* \"#utility.yul\":6568:6574   */\n      dup3\n        /* \"#utility.yul\":6561:6565   */\n      0x20\n        /* \"#utility.yul\":6553:6559   */\n      dup7\n        /* \"#utility.yul\":6549:6566   */\n      add\n        /* \"#utility.yul\":6501:6580   */\n      tag_198\n      jump\t// in\n    tag_299:\n        /* \"#utility.yul\":6492:6580   */\n      swap2\n      pop\n        /* \"#utility.yul\":6308:6586   */\n      pop\n        /* \"#utility.yul\":6246:6586   */\n      swap3\n      swap2\n      pop\n      pop\n      jump\t// out\n        /* \"#utility.yul\":6592:6730   */\n    tag_200:\n        /* \"#utility.yul\":6673:6705   */\n      tag_301\n        /* \"#utility.yul\":6699:6704   */\n      dup2\n        /* \"#utility.yul\":6673:6705   */\n      tag_187\n      jump\t// in\n    tag_301:\n        /* \"#utility.yul\":6666:6671   */\n      dup2\n        /* \"#utility.yul\":6663:6706   */\n      eq\n        /* \"#utility.yul\":6653:6724   */\n      tag_302\n      jumpi\n        /* \"#utility.yul\":6720:6721   */\n      0x00\n        /* \"#utility.yul\":6717:6718   */\n      dup1\n        /* \"#utility.yul\":6710:6722   */\n      revert\n        /* \"#utility.yul\":6653:6724   */\n    tag_302:\n        /* \"#utility.yul\":6592:6730   */\n      pop\n      jump\t// out\n        /* \"#utility.yul\":6736:6891   */\n    tag_201:\n        /* \"#utility.yul\":6790:6795   */\n      0x00\n        /* \"#utility.yul\":6828:6834   */\n      dup2\n        /* \"#utility.yul\":6815:6835   */\n      calldataload\n        /* \"#utility.yul\":6806:6835   */\n      swap1\n      pop\n        /* \"#utility.yul\":6844:6885   */\n      tag_304\n        /* \"#utility.yul\":6879:6884   */\n      dup2\n        /* \"#utility.yul\":6844:6885   */\n      tag_200\n      jump\t// in\n    tag_304:\n        /* \"#utility.yul\":6736:6891   */\n      swap3\n      swap2\n      pop\n      pop\n      jump\t// out\n        /* \"#utility.yul\":6897:7712   */\n    tag_44:\n        /* \"#utility.yul\":6992:6998   */\n      0x00\n        /* \"#utility.yul\":7000:7006   */\n      dup1\n        /* \"#utility.yul\":7008:7014   */\n      0x00\n        /* \"#utility.yul\":7057:7059   */\n      0x60\n        /* \"#utility.yul\":7045:7054   */\n      dup5\n        /* \"#utility.yul\":7036:7043   */\n      dup7\n        /* \"#utility.yul\":7032:7055   */\n      sub\n        /* \"#utility.yul\":7028:7060   */\n      slt\n        /* \"#utility.yul\":7025:7144   */\n      iszero\n      tag_306\n      jumpi\n        /* \"#utility.yul\":7063:7142   */\n      tag_307\n      tag_173\n      jump\t// in\n    tag_307:\n        /* \"#utility.yul\":7025:7144   */\n    tag_306:\n        /* \"#utility.yul\":7211:7212   */\n      0x00\n        /* \"#utility.yul\":7200:7209   */\n      dup5\n        /* \"#utility.yul\":7196:7213   */\n      add\n        /* \"#utility.yul\":7183:7214   */\n      calldataload\n        /* \"#utility.yul\":7241:7259   */\n      0xffffffffffffffff\n        /* \"#utility.yul\":7233:7239   */\n      dup2\n        /* \"#utility.yul\":7230:7260   */\n      gt\n        /* \"#utility.yul\":7227:7344   */\n      iszero\n      tag_308\n      jumpi\n        /* \"#utility.yul\":7263:7342   */\n      tag_309\n      tag_174\n      jump\t// in\n    tag_309:\n        /* \"#utility.yul\":7227:7344   */\n    tag_308:\n        /* \"#utility.yul\":7368:7431   */\n      tag_310\n        /* \"#utility.yul\":7423:7430   */\n      dup7\n        /* \"#utility.yul\":7414:7420   */\n      dup3\n        /* \"#utility.yul\":7403:7412   */\n      dup8\n        /* \"#utility.yul\":7399:7421   */\n      add\n        /* \"#utility.yul\":7368:7431   */\n      tag_199\n      jump\t// in\n    tag_310:\n        /* \"#utility.yul\":7358:7431   */\n      swap4\n      pop\n        /* \"#utility.yul\":7154:7441   */\n      pop\n        /* \"#utility.yul\":7480:7482   */\n      0x20\n        /* \"#utility.yul\":7506:7559   */\n      tag_311\n        /* \"#utility.yul\":7551:7558   */\n      dup7\n        /* \"#utility.yul\":7542:7548   */\n      dup3\n        /* \"#utility.yul\":7531:7540   */\n      dup8\n        /* \"#utility.yul\":7527:7549   */\n      add\n        /* \"#utility.yul\":7506:7559   */\n      tag_177\n      jump\t// in\n    tag_311:\n        /* \"#utility.yul\":7496:7559   */\n      swap3\n      pop\n        /* \"#utility.yul\":7451:7569   */\n      pop\n        /* \"#utility.yul\":7608:7610   */\n      0x40\n        /* \"#utility.yul\":7634:7695   */\n      tag_312\n        /* \"#utility.yul\":7687:7694   */\n      dup7\n        /* \"#utility.yul\":7678:7684   */\n      dup3\n        /* \"#utility.yul\":7667:7676   */\n      dup8\n        /* \"#utility.yul\":7663:7685   */\n      add\n        /* \"#utility.yul\":7634:7695   */\n      tag_201\n      jump\t// in\n    tag_312:\n        /* \"#utility.yul\":7624:7695   */\n      swap2\n      pop\n        /* \"#utility.yul\":7579:7705   */\n      pop\n        /* \"#utility.yul\":6897:7712   */\n      swap3\n      pop\n      swap3\n      pop\n      swap3\n      jump\t// out\n        /* \"#utility.yul\":7718:8584   */\n    tag_50:\n        /* \"#utility.yul\":7971:7975   */\n      0x00\n        /* \"#utility.yul\":8009:8012   */\n      0xc0\n        /* \"#utility.yul\":7998:8007   */\n      dup3\n        /* \"#utility.yul\":7994:8013   */\n      add\n        /* \"#utility.yul\":7986:8013   */\n      swap1\n      pop\n        /* \"#utility.yul\":8059:8068   */\n      dup2\n        /* \"#utility.yul\":8053:8057   */\n      dup2\n        /* \"#utility.yul\":8049:8069   */\n      sub\n        /* \"#utility.yul\":8045:8046   */\n      0x00\n        /* \"#utility.yul\":8034:8043   */\n      dup4\n        /* \"#utility.yul\":8030:8047   */\n      add\n        /* \"#utility.yul\":8023:8070   */\n      mstore\n        /* \"#utility.yul\":8087:8165   */\n      tag_314\n        /* \"#utility.yul\":8160:8164   */\n      dup2\n        /* \"#utility.yul\":8151:8157   */\n      dup10\n        /* \"#utility.yul\":8087:8165   */\n      tag_182\n      jump\t// in\n    tag_314:\n        /* \"#utility.yul\":8079:8165   */\n      swap1\n      pop\n        /* \"#utility.yul\":8175:8247   */\n      tag_315\n        /* \"#utility.yul\":8243:8245   */\n      0x20\n        /* \"#utility.yul\":8232:8241   */\n      dup4\n        /* \"#utility.yul\":8228:8246   */\n      add\n        /* \"#utility.yul\":8219:8225   */\n      dup9\n        /* \"#utility.yul\":8175:8247   */\n      tag_186\n      jump\t// in\n    tag_315:\n        /* \"#utility.yul\":8257:8329   */\n      tag_316\n        /* \"#utility.yul\":8325:8327   */\n      0x40\n        /* \"#utility.yul\":8314:8323   */\n      dup4\n        /* \"#utility.yul\":8310:8328   */\n      add\n        /* \"#utility.yul\":8301:8307   */\n      dup8\n        /* \"#utility.yul\":8257:8329   */\n      tag_186\n      jump\t// in\n    tag_316:\n        /* \"#utility.yul\":8339:8411   */\n      tag_317\n        /* \"#utility.yul\":8407:8409   */\n      0x60\n        /* \"#utility.yul\":8396:8405   */\n      dup4\n        /* \"#utility.yul\":8392:8410   */\n      add\n        /* \"#utility.yul\":8383:8389   */\n      dup7\n        /* \"#utility.yul\":8339:8411   */\n      tag_186\n      jump\t// in\n    tag_317:\n        /* \"#utility.yul\":8421:8494   */\n      tag_318\n        /* \"#utility.yul\":8489:8492   */\n      0x80\n        /* \"#utility.yul\":8478:8487   */\n      dup4\n        /* \"#utility.yul\":8474:8493   */\n      add\n        /* \"#utility.yul\":8465:8471   */\n      dup6\n        /* \"#utility.yul\":8421:8494   */\n      tag_186\n      jump\t// in\n    tag_318:\n        /* \"#utility.yul\":8504:8577   */\n      tag_319\n        /* \"#utility.yul\":8572:8575   */\n      0xa0\n        /* \"#utility.yul\":8561:8570   */\n      dup4\n        /* \"#utility.yul\":8557:8576   */\n      add\n        /* \"#utility.yul\":8548:8554   */\n      dup5\n        /* \"#utility.yul\":8504:8577   */\n      tag_185\n      jump\t// in\n    tag_319:\n        /* \"#utility.yul\":7718:8584   */\n      swap8\n      swap7\n      pop\n      pop\n      pop\n      pop\n      pop\n      pop\n      pop\n      jump\t// out\n        /* \"#utility.yul\":8590:8812   */\n    tag_55:\n        /* \"#utility.yul\":8683:8687   */\n      0x00\n        /* \"#utility.yul\":8721:8723   */\n      0x20\n        /* \"#utility.yul\":8710:8719   */\n      dup3\n        /* \"#utility.yul\":8706:8724   */\n      add\n        /* \"#utility.yul\":8698:8724   */\n      swap1\n      pop\n        /* \"#utility.yul\":8734:8805   */\n      tag_321\n        /* \"#utility.yul\":8802:8803   */\n      0x00\n        /* \"#utility.yul\":8791:8800   */\n      dup4\n        /* \"#utility.yul\":8787:8804   */\n      add\n        /* \"#utility.yul\":8778:8784   */\n      dup5\n        /* \"#utility.yul\":8734:8805   */\n      tag_186\n      jump\t// in\n    tag_321:\n        /* \"#utility.yul\":8590:8812   */\n      swap3\n      swap2\n      pop\n      pop\n      jump\t// out\n        /* \"#utility.yul\":8818:8940   */\n    tag_202:\n        /* \"#utility.yul\":8891:8915   */\n      tag_323\n        /* \"#utility.yul\":8909:8914   */\n      dup2\n        /* \"#utility.yul\":8891:8915   */\n      tag_184\n      jump\t// in\n    tag_323:\n        /* \"#utility.yul\":8884:8889   */\n      dup2\n        /* \"#utility.yul\":8881:8916   */\n      eq\n        /* \"#utility.yul\":8871:8934   */\n      tag_324\n      jumpi\n        /* \"#utility.yul\":8930:8931   */\n      0x00\n        /* \"#utility.yul\":8927:8928   */\n      dup1\n        /* \"#utility.yul\":8920:8932   */\n      revert\n        /* \"#utility.yul\":8871:8934   */\n    tag_324:\n        /* \"#utility.yul\":8818:8940   */\n      pop\n      jump\t// out\n        /* \"#utility.yul\":8946:9085   */\n    tag_203:\n        /* \"#utility.yul\":8992:8997   */\n      0x00\n        /* \"#utility.yul\":9030:9036   */\n      dup2\n        /* \"#utility.yul\":9017:9037   */\n      calldataload\n        /* \"#utility.yul\":9008:9037   */\n      swap1\n      pop\n        /* \"#utility.yul\":9046:9079   */\n      tag_326\n        /* \"#utility.yul\":9073:9078   */\n      dup2\n        /* \"#utility.yul\":9046:9079   */\n      tag_202\n      jump\t// in\n    tag_326:\n        /* \"#utility.yul\":8946:9085   */\n      swap3\n      swap2\n      pop\n      pop\n      jump\t// out\n        /* \"#utility.yul\":9091:9420   */\n    tag_63:\n        /* \"#utility.yul\":9150:9156   */\n      0x00\n        /* \"#utility.yul\":9199:9201   */\n      0x20\n        /* \"#utility.yul\":9187:9196   */\n      dup3\n        /* \"#utility.yul\":9178:9185   */\n      dup5\n        /* \"#utility.yul\":9174:9197   */\n      sub\n        /* \"#utility.yul\":9170:9202   */\n      slt\n        /* \"#utility.yul\":9167:9286   */\n      iszero\n      tag_328\n      jumpi\n        /* \"#utility.yul\":9205:9284   */\n      tag_329\n      tag_173\n      jump\t// in\n    tag_329:\n        /* \"#utility.yul\":9167:9286   */\n    tag_328:\n        /* \"#utility.yul\":9325:9326   */\n      0x00\n        /* \"#utility.yul\":9350:9403   */\n      tag_330\n        /* \"#utility.yul\":9395:9402   */\n      dup5\n        /* \"#utility.yul\":9386:9392   */\n      dup3\n        /* \"#utility.yul\":9375:9384   */\n      dup6\n        /* \"#utility.yul\":9371:9393   */\n      add\n        /* \"#utility.yul\":9350:9403   */\n      tag_203\n      jump\t// in\n    tag_330:\n        /* \"#utility.yul\":9340:9403   */\n      swap2\n      pop\n        /* \"#utility.yul\":9296:9413   */\n      pop\n        /* \"#utility.yul\":9091:9420   */\n      swap3\n      swap2\n      pop\n      pop\n      jump\t// out\n        /* \"#utility.yul\":9426:9636   */\n    tag_75:\n        /* \"#utility.yul\":9513:9517   */\n      0x00\n        /* \"#utility.yul\":9551:9553   */\n      0x20\n        /* \"#utility.yul\":9540:9549   */\n      dup3\n        /* \"#utility.yul\":9536:9554   */\n      add\n        /* \"#utility.yul\":9528:9554   */\n      swap1\n      pop\n        /* \"#utility.yul\":9564:9629   */\n      tag_332\n        /* \"#utility.yul\":9626:9627   */\n      0x00\n        /* \"#utility.yul\":9615:9624   */\n      dup4\n        /* \"#utility.yul\":9611:9628   */\n      add\n        /* \"#utility.yul\":9602:9608   */\n      dup5\n        /* \"#utility.yul\":9564:9629   */\n      tag_190\n      jump\t// in\n    tag_332:\n        /* \"#utility.yul\":9426:9636   */\n      swap3\n      swap2\n      pop\n      pop\n      jump\t// out\n        /* \"#utility.yul\":9642:9862   */\n    tag_204:\n        /* \"#utility.yul\":9782:9816   */\n      0x4f6e6c79204d616e616765722063616e2075736572207468697320616374696f\n        /* \"#utility.yul\":9778:9779   */\n      0x00\n        /* \"#utility.yul\":9770:9776   */\n      dup3\n        /* \"#utility.yul\":9766:9780   */\n      add\n        /* \"#utility.yul\":9759:9817   */\n      mstore\n        /* \"#utility.yul\":9851:9854   */\n      0x6e00000000000000000000000000000000000000000000000000000000000000\n        /* \"#utility.yul\":9846:9848   */\n      0x20\n        /* \"#utility.yul\":9838:9844   */\n      dup3\n        /* \"#utility.yul\":9834:9849   */\n      add\n        /* \"#utility.yul\":9827:9855   */\n      mstore\n        /* \"#utility.yul\":9642:9862   */\n      pop\n      jump\t// out\n        /* \"#utility.yul\":9868:10234   */\n    tag_205:\n        /* \"#utility.yul\":10010:10013   */\n      0x00\n        /* \"#utility.yul\":10031:10098   */\n      tag_335\n        /* \"#utility.yul\":10095:10097   */\n      0x21\n        /* \"#utility.yul\":10090:10093   */\n      dup4\n        /* \"#utility.yul\":10031:10098   */\n      tag_179\n      jump\t// in\n    tag_335:\n        /* \"#utility.yul\":10024:10098   */\n      swap2\n      pop\n        /* \"#utility.yul\":10107:10200   */\n      tag_336\n        /* \"#utility.yul\":10196:10199   */\n      dup3\n        /* \"#utility.yul\":10107:10200   */\n      tag_204\n      jump\t// in\n    tag_336:\n        /* \"#utility.yul\":10225:10227   */\n      0x40\n        /* \"#utility.yul\":10220:10223   */\n      dup3\n        /* \"#utility.yul\":10216:10228   */\n      add\n        /* \"#utility.yul\":10209:10228   */\n      swap1\n      pop\n        /* \"#utility.yul\":9868:10234   */\n      swap2\n      swap1\n      pop\n      jump\t// out\n        /* \"#utility.yul\":10240:10659   */\n    tag_93:\n        /* \"#utility.yul\":10406:10410   */\n      0x00\n        /* \"#utility.yul\":10444:10446   */\n      0x20\n        /* \"#utility.yul\":10433:10442   */\n      dup3\n        /* \"#utility.yul\":10429:10447   */\n      add\n        /* \"#utility.yul\":10421:10447   */\n      swap1\n      pop\n        /* \"#utility.yul\":10493:10502   */\n      dup2\n        /* \"#utility.yul\":10487:10491   */\n      dup2\n        /* \"#utility.yul\":10483:10503   */\n      sub\n        /* \"#utility.yul\":10479:10480   */\n      0x00\n        /* \"#utility.yul\":10468:10477   */\n      dup4\n        /* \"#utility.yul\":10464:10481   */\n      add\n        /* \"#utility.yul\":10457:10504   */\n      mstore\n        /* \"#utility.yul\":10521:10652   */\n      tag_338\n        /* \"#utility.yul\":10647:10651   */\n      dup2\n        /* \"#utility.yul\":10521:10652   */\n      tag_205\n      jump\t// in\n    tag_338:\n        /* \"#utility.yul\":10513:10652   */\n      swap1\n      pop\n        /* \"#utility.yul\":10240:10659   */\n      swap2\n      swap1\n      pop\n      jump\t// out\n        /* \"#utility.yul\":10665:10845   */\n    tag_206:\n        /* \"#utility.yul\":10713:10790   */\n      0x4e487b7100000000000000000000000000000000000000000000000000000000\n        /* \"#utility.yul\":10710:10711   */\n      0x00\n        /* \"#utility.yul\":10703:10791   */\n      mstore\n        /* \"#utility.yul\":10810:10814   */\n      0x12\n        /* \"#utility.yul\":10807:10808   */\n      0x04\n        /* \"#utility.yul\":10800:10815   */\n      mstore\n        /* \"#utility.yul\":10834:10838   */\n      0x24\n        /* \"#utility.yul\":10831:10832   */\n      0x00\n        /* \"#utility.yul\":10824:10839   */\n      revert\n        /* \"#utility.yul\":10851:11031   */\n    tag_207:\n        /* \"#utility.yul\":10899:10976   */\n      0x4e487b7100000000000000000000000000000000000000000000000000000000\n        /* \"#utility.yul\":10896:10897   */\n      0x00\n        /* \"#utility.yul\":10889:10977   */\n      mstore\n        /* \"#utility.yul\":10996:11000   */\n      0x11\n        /* \"#utility.yul\":10993:10994   */\n      0x04\n        /* \"#utility.yul\":10986:11001   */\n      mstore\n        /* \"#utility.yul\":11020:11024   */\n      0x24\n        /* \"#utility.yul\":11017:11018   */\n      0x00\n        /* \"#utility.yul\":11010:11025   */\n      revert\n        /* \"#utility.yul\":11037:11222   */\n    tag_96:\n        /* \"#utility.yul\":11077:11078   */\n      0x00\n        /* \"#utility.yul\":11094:11114   */\n      tag_342\n        /* \"#utility.yul\":11112:11113   */\n      dup3\n        /* \"#utility.yul\":11094:11114   */\n      tag_175\n      jump\t// in\n    tag_342:\n        /* \"#utility.yul\":11089:11114   */\n      swap2\n      pop\n        /* \"#utility.yul\":11128:11148   */\n      tag_343\n        /* \"#utility.yul\":11146:11147   */\n      dup4\n        /* \"#utility.yul\":11128:11148   */\n      tag_175\n      jump\t// in\n    tag_343:\n        /* \"#utility.yul\":11123:11148   */\n      swap3\n      pop\n        /* \"#utility.yul\":11167:11168   */\n      dup3\n        /* \"#utility.yul\":11157:11192   */\n      tag_344\n      jumpi\n        /* \"#utility.yul\":11172:11190   */\n      tag_345\n      tag_206\n      jump\t// in\n    tag_345:\n        /* \"#utility.yul\":11157:11192   */\n    tag_344:\n        /* \"#utility.yul\":11214:11215   */\n      dup3\n        /* \"#utility.yul\":11211:11212   */\n      dup3\n        /* \"#utility.yul\":11207:11216   */\n      div\n        /* \"#utility.yul\":11202:11216   */\n      swap1\n      pop\n        /* \"#utility.yul\":11037:11222   */\n      swap3\n      swap2\n      pop\n      pop\n      jump\t// out\n        /* \"#utility.yul\":11228:11461   */\n    tag_208:\n        /* \"#utility.yul\":11368:11402   */\n      0x596f75206e656564206d6f726520766f74657320746f2066696e616c697a6520\n        /* \"#utility.yul\":11364:11365   */\n      0x00\n        /* \"#utility.yul\":11356:11362   */\n      dup3\n        /* \"#utility.yul\":11352:11366   */\n      add\n        /* \"#utility.yul\":11345:11403   */\n      mstore\n        /* \"#utility.yul\":11437:11453   */\n      0x796f757220726571756573742021000000000000000000000000000000000000\n        /* \"#utility.yul\":11432:11434   */\n      0x20\n        /* \"#utility.yul\":11424:11430   */\n      dup3\n        /* \"#utility.yul\":11420:11435   */\n      add\n        /* \"#utility.yul\":11413:11454   */\n      mstore\n        /* \"#utility.yul\":11228:11461   */\n      pop\n      jump\t// out\n        /* \"#utility.yul\":11467:11833   */\n    tag_209:\n        /* \"#utility.yul\":11609:11612   */\n      0x00\n        /* \"#utility.yul\":11630:11697   */\n      tag_348\n        /* \"#utility.yul\":11694:11696   */\n      0x2e\n        /* \"#utility.yul\":11689:11692   */\n      dup4\n        /* \"#utility.yul\":11630:11697   */\n      tag_179\n      jump\t// in\n    tag_348:\n        /* \"#utility.yul\":11623:11697   */\n      swap2\n      pop\n        /* \"#utility.yul\":11706:11799   */\n      tag_349\n        /* \"#utility.yul\":11795:11798   */\n      dup3\n        /* \"#utility.yul\":11706:11799   */\n      tag_208\n      jump\t// in\n    tag_349:\n        /* \"#utility.yul\":11824:11826   */\n      0x40\n        /* \"#utility.yul\":11819:11822   */\n      dup3\n        /* \"#utility.yul\":11815:11827   */\n      add\n        /* \"#utility.yul\":11808:11827   */\n      swap1\n      pop\n        /* \"#utility.yul\":11467:11833   */\n      swap2\n      swap1\n      pop\n      jump\t// out\n        /* \"#utility.yul\":11839:12258   */\n    tag_99:\n        /* \"#utility.yul\":12005:12009   */\n      0x00\n        /* \"#utility.yul\":12043:12045   */\n      0x20\n        /* \"#utility.yul\":12032:12041   */\n      dup3\n        /* \"#utility.yul\":12028:12046   */\n      add\n        /* \"#utility.yul\":12020:12046   */\n      swap1\n      pop\n        /* \"#utility.yul\":12092:12101   */\n      dup2\n        /* \"#utility.yul\":12086:12090   */\n      dup2\n        /* \"#utility.yul\":12082:12102   */\n      sub\n        /* \"#utility.yul\":12078:12079   */\n      0x00\n        /* \"#utility.yul\":12067:12076   */\n      dup4\n        /* \"#utility.yul\":12063:12080   */\n      add\n        /* \"#utility.yul\":12056:12103   */\n      mstore\n        /* \"#utility.yul\":12120:12251   */\n      tag_351\n        /* \"#utility.yul\":12246:12250   */\n      dup2\n        /* \"#utility.yul\":12120:12251   */\n      tag_209\n      jump\t// in\n    tag_351:\n        /* \"#utility.yul\":12112:12251   */\n      swap1\n      pop\n        /* \"#utility.yul\":11839:12258   */\n      swap2\n      swap1\n      pop\n      jump\t// out\n        /* \"#utility.yul\":12264:12504   */\n    tag_210:\n        /* \"#utility.yul\":12404:12438   */\n      0x596f75206e656564206d6f726520617070726f76616c73206265666f72652066\n        /* \"#utility.yul\":12400:12401   */\n      0x00\n        /* \"#utility.yul\":12392:12398   */\n      dup3\n        /* \"#utility.yul\":12388:12402   */\n      add\n        /* \"#utility.yul\":12381:12439   */\n      mstore\n        /* \"#utility.yul\":12473:12496   */\n      0x696e616c697a6520796f757220726571756573742e0000000000000000000000\n        /* \"#utility.yul\":12468:12470   */\n      0x20\n        /* \"#utility.yul\":12460:12466   */\n      dup3\n        /* \"#utility.yul\":12456:12471   */\n      add\n        /* \"#utility.yul\":12449:12497   */\n      mstore\n        /* \"#utility.yul\":12264:12504   */\n      pop\n      jump\t// out\n        /* \"#utility.yul\":12510:12876   */\n    tag_211:\n        /* \"#utility.yul\":12652:12655   */\n      0x00\n        /* \"#utility.yul\":12673:12740   */\n      tag_354\n        /* \"#utility.yul\":12737:12739   */\n      0x35\n        /* \"#utility.yul\":12732:12735   */\n      dup4\n        /* \"#utility.yul\":12673:12740   */\n      tag_179\n      jump\t// in\n    tag_354:\n        /* \"#utility.yul\":12666:12740   */\n      swap2\n      pop\n        /* \"#utility.yul\":12749:12842   */\n      tag_355\n        /* \"#utility.yul\":12838:12841   */\n      dup3\n        /* \"#utility.yul\":12749:12842   */\n      tag_210\n      jump\t// in\n    tag_355:\n        /* \"#utility.yul\":12867:12869   */\n      0x40\n        /* \"#utility.yul\":12862:12865   */\n      dup3\n        /* \"#utility.yul\":12858:12870   */\n      add\n        /* \"#utility.yul\":12851:12870   */\n      swap1\n      pop\n        /* \"#utility.yul\":12510:12876   */\n      swap2\n      swap1\n      pop\n      jump\t// out\n        /* \"#utility.yul\":12882:13301   */\n    tag_102:\n        /* \"#utility.yul\":13048:13052   */\n      0x00\n        /* \"#utility.yul\":13086:13088   */\n      0x20\n        /* \"#utility.yul\":13075:13084   */\n      dup3\n        /* \"#utility.yul\":13071:13089   */\n      add\n        /* \"#utility.yul\":13063:13089   */\n      swap1\n      pop\n        /* \"#utility.yul\":13135:13144   */\n      dup2\n        /* \"#utility.yul\":13129:13133   */\n      dup2\n        /* \"#utility.yul\":13125:13145   */\n      sub\n        /* \"#utility.yul\":13121:13122   */\n      0x00\n        /* \"#utility.yul\":13110:13119   */\n      dup4\n        /* \"#utility.yul\":13106:13123   */\n      add\n        /* \"#utility.yul\":13099:13146   */\n      mstore\n        /* \"#utility.yul\":13163:13294   */\n      tag_357\n        /* \"#utility.yul\":13289:13293   */\n      dup2\n        /* \"#utility.yul\":13163:13294   */\n      tag_211\n      jump\t// in\n    tag_357:\n        /* \"#utility.yul\":13155:13294   */\n      swap1\n      pop\n        /* \"#utility.yul\":12882:13301   */\n      swap2\n      swap1\n      pop\n      jump\t// out\n        /* \"#utility.yul\":13307:13533   */\n    tag_212:\n        /* \"#utility.yul\":13447:13481   */\n      0x5468697320726571756573742068617320616c7265616479206265656e206669\n        /* \"#utility.yul\":13443:13444   */\n      0x00\n        /* \"#utility.yul\":13435:13441   */\n      dup3\n        /* \"#utility.yul\":13431:13445   */\n      add\n        /* \"#utility.yul\":13424:13482   */\n      mstore\n        /* \"#utility.yul\":13516:13525   */\n      0x6e616c697a656400000000000000000000000000000000000000000000000000\n        /* \"#utility.yul\":13511:13513   */\n      0x20\n        /* \"#utility.yul\":13503:13509   */\n      dup3\n        /* \"#utility.yul\":13499:13514   */\n      add\n        /* \"#utility.yul\":13492:13526   */\n      mstore\n        /* \"#utility.yul\":13307:13533   */\n      pop\n      jump\t// out\n        /* \"#utility.yul\":13539:13905   */\n    tag_213:\n        /* \"#utility.yul\":13681:13684   */\n      0x00\n        /* \"#utility.yul\":13702:13769   */\n      tag_360\n        /* \"#utility.yul\":13766:13768   */\n      0x27\n        /* \"#utility.yul\":13761:13764   */\n      dup4\n        /* \"#utility.yul\":13702:13769   */\n      tag_179\n      jump\t// in\n    tag_360:\n        /* \"#utility.yul\":13695:13769   */\n      swap2\n      pop\n        /* \"#utility.yul\":13778:13871   */\n      tag_361\n        /* \"#utility.yul\":13867:13870   */\n      dup3\n        /* \"#utility.yul\":13778:13871   */\n      tag_212\n      jump\t// in\n    tag_361:\n        /* \"#utility.yul\":13896:13898   */\n      0x40\n        /* \"#utility.yul\":13891:13894   */\n      dup3\n        /* \"#utility.yul\":13887:13899   */\n      add\n        /* \"#utility.yul\":13880:13899   */\n      swap1\n      pop\n        /* \"#utility.yul\":13539:13905   */\n      swap2\n      swap1\n      pop\n      jump\t// out\n        /* \"#utility.yul\":13911:14330   */\n    tag_105:\n        /* \"#utility.yul\":14077:14081   */\n      0x00\n        /* \"#utility.yul\":14115:14117   */\n      0x20\n        /* \"#utility.yul\":14104:14113   */\n      dup3\n        /* \"#utility.yul\":14100:14118   */\n      add\n        /* \"#utility.yul\":14092:14118   */\n      swap1\n      pop\n        /* \"#utility.yul\":14164:14173   */\n      dup2\n        /* \"#utility.yul\":14158:14162   */\n      dup2\n        /* \"#utility.yul\":14154:14174   */\n      sub\n        /* \"#utility.yul\":14150:14151   */\n      0x00\n        /* \"#utility.yul\":14139:14148   */\n      dup4\n        /* \"#utility.yul\":14135:14152   */\n      add\n        /* \"#utility.yul\":14128:14175   */\n      mstore\n        /* \"#utility.yul\":14192:14323   */\n      tag_363\n        /* \"#utility.yul\":14318:14322   */\n      dup2\n        /* \"#utility.yul\":14192:14323   */\n      tag_213\n      jump\t// in\n    tag_363:\n        /* \"#utility.yul\":14184:14323   */\n      swap1\n      pop\n        /* \"#utility.yul\":13911:14330   */\n      swap2\n      swap1\n      pop\n      jump\t// out\n        /* \"#utility.yul\":14336:14516   */\n    tag_214:\n        /* \"#utility.yul\":14384:14461   */\n      0x4e487b7100000000000000000000000000000000000000000000000000000000\n        /* \"#utility.yul\":14381:14382   */\n      0x00\n        /* \"#utility.yul\":14374:14462   */\n      mstore\n        /* \"#utility.yul\":14481:14485   */\n      0x22\n        /* \"#utility.yul\":14478:14479   */\n      0x04\n        /* \"#utility.yul\":14471:14486   */\n      mstore\n        /* \"#utility.yul\":14505:14509   */\n      0x24\n        /* \"#utility.yul\":14502:14503   */\n      0x00\n        /* \"#utility.yul\":14495:14510   */\n      revert\n        /* \"#utility.yul\":14522:14842   */\n    tag_109:\n        /* \"#utility.yul\":14566:14572   */\n      0x00\n        /* \"#utility.yul\":14603:14604   */\n      0x02\n        /* \"#utility.yul\":14597:14601   */\n      dup3\n        /* \"#utility.yul\":14593:14605   */\n      div\n        /* \"#utility.yul\":14583:14605   */\n      swap1\n      pop\n        /* \"#utility.yul\":14650:14651   */\n      0x01\n        /* \"#utility.yul\":14644:14648   */\n      dup3\n        /* \"#utility.yul\":14640:14652   */\n      and\n        /* \"#utility.yul\":14671:14689   */\n      dup1\n        /* \"#utility.yul\":14661:14742   */\n      tag_366\n      jumpi\n        /* \"#utility.yul\":14727:14731   */\n      0x7f\n        /* \"#utility.yul\":14719:14725   */\n      dup3\n        /* \"#utility.yul\":14715:14732   */\n      and\n        /* \"#utility.yul\":14705:14732   */\n      swap2\n      pop\n        /* \"#utility.yul\":14661:14742   */\n    tag_366:\n        /* \"#utility.yul\":14789:14791   */\n      0x20\n        /* \"#utility.yul\":14781:14787   */\n      dup3\n        /* \"#utility.yul\":14778:14792   */\n      lt\n        /* \"#utility.yul\":14758:14776   */\n      dup2\n        /* \"#utility.yul\":14755:14793   */\n      eq\n        /* \"#utility.yul\":14752:14836   */\n      iszero\n      tag_367\n      jumpi\n        /* \"#utility.yul\":14808:14826   */\n      tag_368\n      tag_214\n      jump\t// in\n    tag_368:\n        /* \"#utility.yul\":14752:14836   */\n    tag_367:\n        /* \"#utility.yul\":14573:14842   */\n      pop\n        /* \"#utility.yul\":14522:14842   */\n      swap2\n      swap1\n      pop\n      jump\t// out\n        /* \"#utility.yul\":14848:15081   */\n    tag_124:\n        /* \"#utility.yul\":14887:14890   */\n      0x00\n        /* \"#utility.yul\":14910:14934   */\n      tag_370\n        /* \"#utility.yul\":14928:14933   */\n      dup3\n        /* \"#utility.yul\":14910:14934   */\n      tag_175\n      jump\t// in\n    tag_370:\n        /* \"#utility.yul\":14901:14934   */\n      swap2\n      pop\n        /* \"#utility.yul\":14956:15022   */\n      0xffffffffffffffffffffffffffffffffffffffffffffffffffffffffffffffff\n        /* \"#utility.yul\":14949:14954   */\n      dup3\n        /* \"#utility.yul\":14946:15023   */\n      eq\n        /* \"#utility.yul\":14943:15046   */\n      iszero\n      tag_371\n      jumpi\n        /* \"#utility.yul\":15026:15044   */\n      tag_372\n      tag_207\n      jump\t// in\n    tag_372:\n        /* \"#utility.yul\":14943:15046   */\n    tag_371:\n        /* \"#utility.yul\":15073:15074   */\n      0x01\n        /* \"#utility.yul\":15066:15071   */\n      dup3\n        /* \"#utility.yul\":15062:15075   */\n      add\n        /* \"#utility.yul\":15055:15075   */\n      swap1\n      pop\n        /* \"#utility.yul\":14848:15081   */\n      swap2\n      swap1\n      pop\n      jump\t// out\n        /* \"#utility.yul\":15087:15308   */\n    tag_215:\n        /* \"#utility.yul\":15227:15261   */\n      0x41206d696e696d756d20636f6e747269627574696f6e20697320726571756972\n        /* \"#utility.yul\":15223:15224   */\n      0x00\n        /* \"#utility.yul\":15215:15221   */\n      dup3\n        /* \"#utility.yul\":15211:15225   */\n      add\n        /* \"#utility.yul\":15204:15262   */\n      mstore\n        /* \"#utility.yul\":15296:15300   */\n      0x6564000000000000000000000000000000000000000000000000000000000000\n        /* \"#utility.yul\":15291:15293   */\n      0x20\n        /* \"#utility.yul\":15283:15289   */\n      dup3\n        /* \"#utility.yul\":15279:15294   */\n      add\n        /* \"#utility.yul\":15272:15301   */\n      mstore\n        /* \"#utility.yul\":15087:15308   */\n      pop\n      jump\t// out\n        /* \"#utility.yul\":15314:15680   */\n    tag_216:\n        /* \"#utility.yul\":15456:15459   */\n      0x00\n        /* \"#utility.yul\":15477:15544   */\n      tag_375\n        /* \"#utility.yul\":15541:15543   */\n      0x22\n        /* \"#utility.yul\":15536:15539   */\n      dup4\n        /* \"#utility.yul\":15477:15544   */\n      tag_179\n      jump\t// in\n    tag_375:\n        /* \"#utility.yul\":15470:15544   */\n      swap2\n      pop\n        /* \"#utility.yul\":15553:15646   */\n      tag_376\n        /* \"#utility.yul\":15642:15645   */\n      dup3\n        /* \"#utility.yul\":15553:15646   */\n      tag_215\n      jump\t// in\n    tag_376:\n        /* \"#utility.yul\":15671:15673   */\n      0x40\n        /* \"#utility.yul\":15666:15669   */\n      dup3\n        /* \"#utility.yul\":15662:15674   */\n      add\n        /* \"#utility.yul\":15655:15674   */\n      swap1\n      pop\n        /* \"#utility.yul\":15314:15680   */\n      swap2\n      swap1\n      pop\n      jump\t// out\n        /* \"#utility.yul\":15686:16105   */\n    tag_136:\n        /* \"#utility.yul\":15852:15856   */\n      0x00\n        /* \"#utility.yul\":15890:15892   */\n      0x20\n        /* \"#utility.yul\":15879:15888   */\n      dup3\n        /* \"#utility.yul\":15875:15893   */\n      add\n        /* \"#utility.yul\":15867:15893   */\n      swap1\n      pop\n        /* \"#utility.yul\":15939:15948   */\n      dup2\n        /* \"#utility.yul\":15933:15937   */\n      dup2\n        /* \"#utility.yul\":15929:15949   */\n      sub\n        /* \"#utility.yul\":15925:15926   */\n      0x00\n        /* \"#utility.yul\":15914:15923   */\n      dup4\n        /* \"#utility.yul\":15910:15927   */\n      add\n        /* \"#utility.yul\":15903:15950   */\n      mstore\n        /* \"#utility.yul\":15967:16098   */\n      tag_378\n        /* \"#utility.yul\":16093:16097   */\n      dup2\n        /* \"#utility.yul\":15967:16098   */\n      tag_216\n      jump\t// in\n    tag_378:\n        /* \"#utility.yul\":15959:16098   */\n      swap1\n      pop\n        /* \"#utility.yul\":15686:16105   */\n      swap2\n      swap1\n      pop\n      jump\t// out\n        /* \"#utility.yul\":16111:16416   */\n    tag_138:\n        /* \"#utility.yul\":16151:16154   */\n      0x00\n        /* \"#utility.yul\":16170:16190   */\n      tag_380\n        /* \"#utility.yul\":16188:16189   */\n      dup3\n        /* \"#utility.yul\":16170:16190   */\n      tag_175\n      jump\t// in\n    tag_380:\n        /* \"#utility.yul\":16165:16190   */\n      swap2\n      pop\n        /* \"#utility.yul\":16204:16224   */\n      tag_381\n        /* \"#utility.yul\":16222:16223   */\n      dup4\n        /* \"#utility.yul\":16204:16224   */\n      tag_175\n      jump\t// in\n    tag_381:\n        /* \"#utility.yul\":16199:16224   */\n      swap3\n      pop\n        /* \"#utility.yul\":16358:16359   */\n      dup3\n        /* \"#utility.yul\":16290:16356   */\n      0xffffffffffffffffffffffffffffffffffffffffffffffffffffffffffffffff\n        /* \"#utility.yul\":16286:16360   */\n      sub\n        /* \"#utility.yul\":16283:16284   */\n      dup3\n        /* \"#utility.yul\":16280:16361   */\n      gt\n        /* \"#utility.yul\":16277:16384   */\n      iszero\n      tag_382\n      jumpi\n        /* \"#utility.yul\":16364:16382   */\n      tag_383\n      tag_207\n      jump\t// in\n    tag_383:\n        /* \"#utility.yul\":16277:16384   */\n    tag_382:\n        /* \"#utility.yul\":16408:16409   */\n      dup3\n        /* \"#utility.yul\":16405:16406   */\n      dup3\n        /* \"#utility.yul\":16401:16410   */\n      add\n        /* \"#utility.yul\":16394:16410   */\n      swap1\n      pop\n        /* \"#utility.yul\":16111:16416   */\n      swap3\n      swap2\n      pop\n      pop\n      jump\t// out\n        /* \"#utility.yul\":16422:16671   */\n    tag_217:\n        /* \"#utility.yul\":16562:16596   */\n      0x4f6e6c7920436f6e7472696275746f7273206d617920617070726f7665206120\n        /* \"#utility.yul\":16558:16559   */\n      0x00\n        /* \"#utility.yul\":16550:16556   */\n      dup3\n        /* \"#utility.yul\":16546:16560   */\n      add\n        /* \"#utility.yul\":16539:16597   */\n      mstore\n        /* \"#utility.yul\":16631:16663   */\n      0x737065636966696320726571756573742066726f6d204d616e616765722e0000\n        /* \"#utility.yul\":16626:16628   */\n      0x20\n        /* \"#utility.yul\":16618:16624   */\n      dup3\n        /* \"#utility.yul\":16614:16629   */\n      add\n        /* \"#utility.yul\":16607:16664   */\n      mstore\n        /* \"#utility.yul\":16422:16671   */\n      pop\n      jump\t// out\n        /* \"#utility.yul\":16677:17043   */\n    tag_218:\n        /* \"#utility.yul\":16819:16822   */\n      0x00\n        /* \"#utility.yul\":16840:16907   */\n      tag_386\n        /* \"#utility.yul\":16904:16906   */\n      0x3e\n        /* \"#utility.yul\":16899:16902   */\n      dup4\n        /* \"#utility.yul\":16840:16907   */\n      tag_179\n      jump\t// in\n    tag_386:\n        /* \"#utility.yul\":16833:16907   */\n      swap2\n      pop\n        /* \"#utility.yul\":16916:17009   */\n      tag_387\n        /* \"#utility.yul\":17005:17008   */\n      dup3\n        /* \"#utility.yul\":16916:17009   */\n      tag_217\n      jump\t// in\n    tag_387:\n        /* \"#utility.yul\":17034:17036   */\n      0x40\n        /* \"#utility.yul\":17029:17032   */\n      dup3\n        /* \"#utility.yul\":17025:17037   */\n      add\n        /* \"#utility.yul\":17018:17037   */\n      swap1\n      pop\n        /* \"#utility.yul\":16677:17043   */\n      swap2\n      swap1\n      pop\n      jump\t// out\n        /* \"#utility.yul\":17049:17468   */\n    tag_144:\n        /* \"#utility.yul\":17215:17219   */\n      0x00\n        /* \"#utility.yul\":17253:17255   */\n      0x20\n        /* \"#utility.yul\":17242:17251   */\n      dup3\n        /* \"#utility.yul\":17238:17256   */\n      add\n        /* \"#utility.yul\":17230:17256   */\n      swap1\n      pop\n        /* \"#utility.yul\":17302:17311   */\n      dup2\n        /* \"#utility.yul\":17296:17300   */\n      dup2\n        /* \"#utility.yul\":17292:17312   */\n      sub\n        /* \"#utility.yul\":17288:17289   */\n      0x00\n        /* \"#utility.yul\":17277:17286   */\n      dup4\n        /* \"#utility.yul\":17273:17290   */\n      add\n        /* \"#utility.yul\":17266:17313   */\n      mstore\n        /* \"#utility.yul\":17330:17461   */\n      tag_389\n        /* \"#utility.yul\":17456:17460   */\n      dup2\n        /* \"#utility.yul\":17330:17461   */\n      tag_218\n      jump\t// in\n    tag_389:\n        /* \"#utility.yul\":17322:17461   */\n      swap1\n      pop\n        /* \"#utility.yul\":17049:17468   */\n      swap2\n      swap1\n      pop\n      jump\t// out\n        /* \"#utility.yul\":17474:17697   */\n    tag_219:\n        /* \"#utility.yul\":17614:17648   */\n      0x596f75206e656564206d6f726520636f6e747269627574696f6e20746f20766f\n        /* \"#utility.yul\":17610:17611   */\n      0x00\n        /* \"#utility.yul\":17602:17608   */\n      dup3\n        /* \"#utility.yul\":17598:17612   */\n      add\n        /* \"#utility.yul\":17591:17649   */\n      mstore\n        /* \"#utility.yul\":17683:17689   */\n      0x7465202100000000000000000000000000000000000000000000000000000000\n        /* \"#utility.yul\":17678:17680   */\n      0x20\n        /* \"#utility.yul\":17670:17676   */\n      dup3\n        /* \"#utility.yul\":17666:17681   */\n      add\n        /* \"#utility.yul\":17659:17690   */\n      mstore\n        /* \"#utility.yul\":17474:17697   */\n      pop\n      jump\t// out\n        /* \"#utility.yul\":17703:18069   */\n    tag_220:\n        /* \"#utility.yul\":17845:17848   */\n      0x00\n        /* \"#utility.yul\":17866:17933   */\n      tag_392\n        /* \"#utility.yul\":17930:17932   */\n      0x24\n        /* \"#utility.yul\":17925:17928   */\n      dup4\n        /* \"#utility.yul\":17866:17933   */\n      tag_179\n      jump\t// in\n    tag_392:\n        /* \"#utility.yul\":17859:17933   */\n      swap2\n      pop\n        /* \"#utility.yul\":17942:18035   */\n      tag_393\n        /* \"#utility.yul\":18031:18034   */\n      dup3\n        /* \"#utility.yul\":17942:18035   */\n      tag_219\n      jump\t// in\n    tag_393:\n        /* \"#utility.yul\":18060:18062   */\n      0x40\n        /* \"#utility.yul\":18055:18058   */\n      dup3\n        /* \"#utility.yul\":18051:18063   */\n      add\n        /* \"#utility.yul\":18044:18063   */\n      swap1\n      pop\n        /* \"#utility.yul\":17703:18069   */\n      swap2\n      swap1\n      pop\n      jump\t// out\n        /* \"#utility.yul\":18075:18494   */\n    tag_147:\n        /* \"#utility.yul\":18241:18245   */\n      0x00\n        /* \"#utility.yul\":18279:18281   */\n      0x20\n        /* \"#utility.yul\":18268:18277   */\n      dup3\n        /* \"#utility.yul\":18264:18282   */\n      add\n        /* \"#utility.yul\":18256:18282   */\n      swap1\n      pop\n        /* \"#utility.yul\":18328:18337   */\n      dup2\n        /* \"#utility.yul\":18322:18326   */\n      dup2\n        /* \"#utility.yul\":18318:18338   */\n      sub\n        /* \"#utility.yul\":18314:18315   */\n      0x00\n        /* \"#utility.yul\":18303:18312   */\n      dup4\n        /* \"#utility.yul\":18299:18316   */\n      add\n        /* \"#utility.yul\":18292:18339   */\n      mstore\n        /* \"#utility.yul\":18356:18487   */\n      tag_395\n        /* \"#utility.yul\":18482:18486   */\n      dup2\n        /* \"#utility.yul\":18356:18487   */\n      tag_220\n      jump\t// in\n    tag_395:\n        /* \"#utility.yul\":18348:18487   */\n      swap1\n      pop\n        /* \"#utility.yul\":18075:18494   */\n      swap2\n      swap1\n      pop\n      jump\t// out\n        /* \"#utility.yul\":18500:18671   */\n    tag_149:\n        /* \"#utility.yul\":18539:18542   */\n      0x00\n        /* \"#utility.yul\":18562:18586   */\n      tag_397\n        /* \"#utility.yul\":18580:18585   */\n      dup3\n        /* \"#utility.yul\":18562:18586   */\n      tag_175\n      jump\t// in\n    tag_397:\n        /* \"#utility.yul\":18553:18586   */\n      swap2\n      pop\n        /* \"#utility.yul\":18608:18612   */\n      0x00\n        /* \"#utility.yul\":18601:18606   */\n      dup3\n        /* \"#utility.yul\":18598:18613   */\n      eq\n        /* \"#utility.yul\":18595:18636   */\n      iszero\n      tag_398\n      jumpi\n        /* \"#utility.yul\":18616:18634   */\n      tag_399\n      tag_207\n      jump\t// in\n    tag_399:\n        /* \"#utility.yul\":18595:18636   */\n    tag_398:\n        /* \"#utility.yul\":18663:18664   */\n      0x01\n        /* \"#utility.yul\":18656:18661   */\n      dup3\n        /* \"#utility.yul\":18652:18665   */\n      sub\n        /* \"#utility.yul\":18645:18665   */\n      swap1\n      pop\n        /* \"#utility.yul\":18500:18671   */\n      swap2\n      swap1\n      pop\n      jump\t// out\n        /* \"#utility.yul\":18677:18966   */\n    tag_221:\n        /* \"#utility.yul\":18817:18851   */\n      0x4f6e6c7920436f6e7472696275746f7273206d617920646973617070726f7665\n        /* \"#utility.yul\":18813:18814   */\n      0x00\n        /* \"#utility.yul\":18805:18811   */\n      dup3\n        /* \"#utility.yul\":18801:18815   */\n      add\n        /* \"#utility.yul\":18794:18852   */\n      mstore\n        /* \"#utility.yul\":18886:18920   */\n      0x206120737065636966696320726571756573742066726f6d204d616e61676572\n        /* \"#utility.yul\":18881:18883   */\n      0x20\n        /* \"#utility.yul\":18873:18879   */\n      dup3\n        /* \"#utility.yul\":18869:18884   */\n      add\n        /* \"#utility.yul\":18862:18921   */\n      mstore\n        /* \"#utility.yul\":18955:18958   */\n      0x2e00000000000000000000000000000000000000000000000000000000000000\n        /* \"#utility.yul\":18950:18952   */\n      0x40\n        /* \"#utility.yul\":18942:18948   */\n      dup3\n        /* \"#utility.yul\":18938:18953   */\n      add\n        /* \"#utility.yul\":18931:18959   */\n      mstore\n        /* \"#utility.yul\":18677:18966   */\n      pop\n      jump\t// out\n        /* \"#utility.yul\":18972:19338   */\n    tag_222:\n        /* \"#utility.yul\":19114:19117   */\n      0x00\n        /* \"#utility.yul\":19135:19202   */\n      tag_402\n        /* \"#utility.yul\":19199:19201   */\n      0x41\n        /* \"#utility.yul\":19194:19197   */\n      dup4\n        /* \"#utility.yul\":19135:19202   */\n      tag_179\n      jump\t// in\n    tag_402:\n        /* \"#utility.yul\":19128:19202   */\n      swap2\n      pop\n        /* \"#utility.yul\":19211:19304   */\n      tag_403\n        /* \"#utility.yul\":19300:19303   */\n      dup3\n        /* \"#utility.yul\":19211:19304   */\n      tag_221\n      jump\t// in\n    tag_403:\n        /* \"#utility.yul\":19329:19331   */\n      0x60\n        /* \"#utility.yul\":19324:19327   */\n      dup3\n        /* \"#utility.yul\":19320:19332   */\n      add\n        /* \"#utility.yul\":19313:19332   */\n      swap1\n      pop\n        /* \"#utility.yul\":18972:19338   */\n      swap2\n      swap1\n      pop\n      jump\t// out\n        /* \"#utility.yul\":19344:19763   */\n    tag_155:\n        /* \"#utility.yul\":19510:19514   */\n      0x00\n        /* \"#utility.yul\":19548:19550   */\n      0x20\n        /* \"#utility.yul\":19537:19546   */\n      dup3\n        /* \"#utility.yul\":19533:19551   */\n      add\n        /* \"#utility.yul\":19525:19551   */\n      swap1\n      pop\n        /* \"#utility.yul\":19597:19606   */\n      dup2\n        /* \"#utility.yul\":19591:19595   */\n      dup2\n        /* \"#utility.yul\":19587:19607   */\n      sub\n        /* \"#utility.yul\":19583:19584   */\n      0x00\n        /* \"#utility.yul\":19572:19581   */\n      dup4\n        /* \"#utility.yul\":19568:19585   */\n      add\n        /* \"#utility.yul\":19561:19608   */\n      mstore\n        /* \"#utility.yul\":19625:19756   */\n      tag_405\n        /* \"#utility.yul\":19751:19755   */\n      dup2\n        /* \"#utility.yul\":19625:19756   */\n      tag_222\n      jump\t// in\n    tag_405:\n        /* \"#utility.yul\":19617:19756   */\n      swap1\n      pop\n        /* \"#utility.yul\":19344:19763   */\n      swap2\n      swap1\n      pop\n      jump\t// out\n\n    auxdata: 0xa26469706673582212203942b5beb02f92811cc12a6d78f3aff10c6433a4618113bfb72eae82fc5a5ce064736f6c634300080a0033\n}\n","bytecode":{"linkReferences":{},"object":"60806040523480156200001157600080fd5b5060405162001f6438038062001f6483398181016040528101906200003791906200038d565b816000806101000a81548173ffffffffffffffffffffffffffffffffffffffff021916908373ffffffffffffffffffffffffffffffffffffffff16021790555082600181905550806002908051906020019062000096929190620000a0565b505050506200046d565b828054620000ae9062000437565b90600052602060002090601f016020900481019282620000d257600085556200011e565b82601f10620000ed57805160ff19168380011785556200011e565b828001600101855582156200011e579182015b828111156200011d57825182559160200191906001019062000100565b5b5090506200012d919062000131565b5090565b5b808211156200014c57600081600090555060010162000132565b5090565b6000604051905090565b600080fd5b600080fd5b6000819050919050565b620001798162000164565b81146200018557600080fd5b50565b60008151905062000199816200016e565b92915050565b600073ffffffffffffffffffffffffffffffffffffffff82169050919050565b6000620001cc826200019f565b9050919050565b620001de81620001bf565b8114620001ea57600080fd5b50565b600081519050620001fe81620001d3565b92915050565b600080fd5b600080fd5b6000601f19601f8301169050919050565b7f4e487b7100000000000000000000000000000000000000000000000000000000600052604160045260246000fd5b62000259826200020e565b810181811067ffffffffffffffff821117156200027b576200027a6200021f565b5b80604052505050565b60006200029062000150565b90506200029e82826200024e565b919050565b600067ffffffffffffffff821115620002c157620002c06200021f565b5b620002cc826200020e565b9050602081019050919050565b60005b83811015620002f9578082015181840152602081019050620002dc565b8381111562000309576000848401525b50505050565b6000620003266200032084620002a3565b62000284565b90508281526020810184848401111562000345576200034462000209565b5b62000352848285620002d9565b509392505050565b600082601f83011262000372576200037162000204565b5b8151620003848482602086016200030f565b91505092915050565b600080600060608486031215620003a957620003a86200015a565b5b6000620003b98682870162000188565b9350506020620003cc86828701620001ed565b925050604084015167ffffffffffffffff811115620003f057620003ef6200015f565b5b620003fe868287016200035a565b9150509250925092565b7f4e487b7100000000000000000000000000000000000000000000000000000000600052602260045260246000fd5b600060028204905060018216806200045057607f821691505b6020821081141562000467576200046662000408565b5b50919050565b611ae7806200047d6000396000f3fe6080604052600436106100e85760003560e01c80639fb42b1f1161008a578063d7bb99ba11610059578063d7bb99ba14610302578063d7d1bbdb1461030c578063f8439dc714610335578063fb1a002a1461035e576100e8565b80639fb42b1f14610232578063bca5b8281461025d578063c73e59721461029a578063ceb35605146102c5576100e8565b806381d12c58116100c657806381d12c581461016c5780638a9cfd55146101ae578063923eda37146101d7578063937e09b114610207576100e8565b806303441006146100ed578063110842cb14610116578063481c6a7514610141575b600080fd5b3480156100f957600080fd5b50610114600480360381019061010f9190610f84565b610389565b005b34801561012257600080fd5b5061012b6105ae565b604051610138919061104a565b60405180910390f35b34801561014d57600080fd5b5061015661063c565b60405161016391906110ad565b60405180910390f35b34801561017857600080fd5b50610193600480360381019061018e9190610f84565b610660565b6040516101a596959493929190611113565b60405180910390f35b3480156101ba57600080fd5b506101d560048036038101906101d091906112dc565b610751565b005b3480156101e357600080fd5b506101ec6108a8565b6040516101fe9695949392919061134b565b60405180910390f35b34801561021357600080fd5b5061021c61097f565b60405161022991906113b3565b60405180910390f35b34801561023e57600080fd5b50610247610985565b60405161025491906113b3565b60405180910390f35b34801561026957600080fd5b50610284600480360381019061027f91906113fa565b61098b565b60405161029191906113b3565b60405180910390f35b3480156102a657600080fd5b506102af6109a3565b6040516102bc91906113b3565b60405180910390f35b3480156102d157600080fd5b506102ec60048036038101906102e791906113fa565b6109a9565b6040516102f99190611427565b60405180910390f35b61030a6109c9565b005b34801561031857600080fd5b50610333600480360381019061032e9190610f84565b610b2b565b005b34801561034157600080fd5b5061035c60048036038101906103579190610f84565b610cdc565b005b34801561036a57600080fd5b50610373610e8d565b60405161038091906113b3565b60405180910390f35b60008054906101000a900473ffffffffffffffffffffffffffffffffffffffff1673ffffffffffffffffffffffffffffffffffffffff163373ffffffffffffffffffffffffffffffffffffffff1614610417576040517f08c379a000000000000000000000000000000000000000000000000000000000815260040161040e906114b4565b60405180910390fd5b6000600860008381526020019081526020016000209050600360045461043d9190611532565b816003015411610482576040517f08c379a0000000000000000000000000000000000000000000000000000000008152600401610479906115d5565b60405180910390fd5b80600401548160030154116104cc576040517f08c379a00000000000000000000000000000000000000000000000000000000081526004016104c390611667565b60405180910390fd5b8060020160149054906101000a900460ff161561051e576040517f08c379a0000000000000000000000000000000000000000000000000000000008152600401610515906116f9565b60405180910390fd5b8060020160009054906101000a900473ffffffffffffffffffffffffffffffffffffffff1673ffffffffffffffffffffffffffffffffffffffff166108fc82600101549081150290604051600060405180830381858888f1935050505015801561058c573d6000803e3d6000fd5b5060018160020160146101000a81548160ff0219169083151502179055505050565b600280546105bb90611748565b80601f01602080910402602001604051908101604052809291908181526020018280546105e790611748565b80156106345780601f1061060957610100808354040283529160200191610634565b820191906000526020600020905b81548152906001019060200180831161061757829003601f168201915b505050505081565b60008054906101000a900473ffffffffffffffffffffffffffffffffffffffff1681565b600860205280600052604060002060009150905080600001805461068390611748565b80601f01602080910402602001604051908101604052809291908181526020018280546106af90611748565b80156106fc5780601f106106d1576101008083540402835291602001916106fc565b820191906000526020600020905b8154815290600101906020018083116106df57829003601f168201915b5050505050908060010154908060020160009054906101000a900473ffffffffffffffffffffffffffffffffffffffff16908060020160149054906101000a900460ff16908060030154908060040154905086565b60008054906101000a900473ffffffffffffffffffffffffffffffffffffffff1673ffffffffffffffffffffffffffffffffffffffff163373ffffffffffffffffffffffffffffffffffffffff16146107df576040517f08c379a00000000000000000000000000000000000000000000000000000000081526004016107d6906114b4565b60405180910390fd5b600060086000600360008154809291906107f89061177a565b919050558152602001908152602001600020905083816000019080519060200190610824929190610e97565b50828160010181905550818160020160006101000a81548173ffffffffffffffffffffffffffffffffffffffff021916908373ffffffffffffffffffffffffffffffffffffffff16021790555060008160020160146101000a81548160ff021916908315150217905550600081600301819055506000816004018190555050505050565b6060600080600080600060026001544760035460045460008054906101000a900473ffffffffffffffffffffffffffffffffffffffff168580546108eb90611748565b80601f016020809104026020016040519081016040528092919081815260200182805461091790611748565b80156109645780601f1061093957610100808354040283529160200191610964565b820191906000526020600020905b81548152906001019060200180831161094757829003601f168201915b50505050509550955095509550955095509550909192939495565b60015481565b60035481565b60076020528060005260406000206000915090505481565b60045481565b60056020528060005260406000206000915054906101000a900460ff1681565b600154341015610a0e576040517f08c379a0000000000000000000000000000000000000000000000000000000008152600401610a0590611835565b60405180910390fd5b34600760003373ffffffffffffffffffffffffffffffffffffffff1673ffffffffffffffffffffffffffffffffffffffff1681526020019081526020016000206000828254610a5d9190611855565b92505081905550600660003373ffffffffffffffffffffffffffffffffffffffff1673ffffffffffffffffffffffffffffffffffffffff1681526020019081526020016000206000815480929190610ab49061177a565b919050555060046000815480929190610acc9061177a565b91905055506001600560003373ffffffffffffffffffffffffffffffffffffffff1673ffffffffffffffffffffffffffffffffffffffff16815260200190815260200160002060006101000a81548160ff021916908315150217905550565b600560003373ffffffffffffffffffffffffffffffffffffffff1673ffffffffffffffffffffffffffffffffffffffff16815260200190815260200160002060009054906101000a900460ff16610bb7576040517f08c379a0000000000000000000000000000000000000000000000000000000008152600401610bae9061191d565b60405180910390fd5b60006008600083815260200190815260200160002090506001600660003373ffffffffffffffffffffffffffffffffffffffff1673ffffffffffffffffffffffffffffffffffffffff168152602001908152602001600020541015610c51576040517f08c379a0000000000000000000000000000000000000000000000000000000008152600401610c48906119af565b60405180910390fd5b600660003373ffffffffffffffffffffffffffffffffffffffff1673ffffffffffffffffffffffffffffffffffffffff1681526020019081526020016000206000815480929190610ca1906119cf565b9190505550806003016000815480929190610cbb9061177a565b919050555060046000815480929190610cd3906119cf565b91905055505050565b600560003373ffffffffffffffffffffffffffffffffffffffff1673ffffffffffffffffffffffffffffffffffffffff16815260200190815260200160002060009054906101000a900460ff16610d68576040517f08c379a0000000000000000000000000000000000000000000000000000000008152600401610d5f90611a91565b60405180910390fd5b60006008600083815260200190815260200160002090506001600660003373ffffffffffffffffffffffffffffffffffffffff1673ffffffffffffffffffffffffffffffffffffffff168152602001908152602001600020541015610e02576040517f08c379a0000000000000000000000000000000000000000000000000000000008152600401610df9906119af565b60405180910390fd5b600660003373ffffffffffffffffffffffffffffffffffffffff1673ffffffffffffffffffffffffffffffffffffffff1681526020019081526020016000206000815480929190610e52906119cf565b9190505550806004016000815480929190610e6c9061177a565b919050555060046000815480929190610e84906119cf565b91905055505050565b6000600354905090565b828054610ea390611748565b90600052602060002090601f016020900481019282610ec55760008555610f0c565b82601f10610ede57805160ff1916838001178555610f0c565b82800160010185558215610f0c579182015b82811115610f0b578251825591602001919060010190610ef0565b5b509050610f199190610f1d565b5090565b5b80821115610f36576000816000905550600101610f1e565b5090565b6000604051905090565b600080fd5b600080fd5b6000819050919050565b610f6181610f4e565b8114610f6c57600080fd5b50565b600081359050610f7e81610f58565b92915050565b600060208284031215610f9a57610f99610f44565b5b6000610fa884828501610f6f565b91505092915050565b600081519050919050565b600082825260208201905092915050565b60005b83811015610feb578082015181840152602081019050610fd0565b83811115610ffa576000848401525b50505050565b6000601f19601f8301169050919050565b600061101c82610fb1565b6110268185610fbc565b9350611036818560208601610fcd565b61103f81611000565b840191505092915050565b600060208201905081810360008301526110648184611011565b905092915050565b600073ffffffffffffffffffffffffffffffffffffffff82169050919050565b60006110978261106c565b9050919050565b6110a78161108c565b82525050565b60006020820190506110c2600083018461109e565b92915050565b6110d181610f4e565b82525050565b60006110e28261106c565b9050919050565b6110f2816110d7565b82525050565b60008115159050919050565b61110d816110f8565b82525050565b600060c082019050818103600083015261112d8189611011565b905061113c60208301886110c8565b61114960408301876110e9565b6111566060830186611104565b61116360808301856110c8565b61117060a08301846110c8565b979650505050505050565b600080fd5b600080fd5b7f4e487b7100000000000000000000000000000000000000000000000000000000600052604160045260246000fd5b6111bd82611000565b810181811067ffffffffffffffff821117156111dc576111db611185565b5b80604052505050565b60006111ef610f3a565b90506111fb82826111b4565b919050565b600067ffffffffffffffff82111561121b5761121a611185565b5b61122482611000565b9050602081019050919050565b82818337600083830152505050565b600061125361124e84611200565b6111e5565b90508281526020810184848401111561126f5761126e611180565b5b61127a848285611231565b509392505050565b600082601f8301126112975761129661117b565b5b81356112a7848260208601611240565b91505092915050565b6112b9816110d7565b81146112c457600080fd5b50565b6000813590506112d6816112b0565b92915050565b6000806000606084860312156112f5576112f4610f44565b5b600084013567ffffffffffffffff81111561131357611312610f49565b5b61131f86828701611282565b935050602061133086828701610f6f565b9250506040611341868287016112c7565b9150509250925092565b600060c08201905081810360008301526113658189611011565b905061137460208301886110c8565b61138160408301876110c8565b61138e60608301866110c8565b61139b60808301856110c8565b6113a860a083018461109e565b979650505050505050565b60006020820190506113c860008301846110c8565b92915050565b6113d78161108c565b81146113e257600080fd5b50565b6000813590506113f4816113ce565b92915050565b6000602082840312156114105761140f610f44565b5b600061141e848285016113e5565b91505092915050565b600060208201905061143c6000830184611104565b92915050565b7f4f6e6c79204d616e616765722063616e2075736572207468697320616374696f60008201527f6e00000000000000000000000000000000000000000000000000000000000000602082015250565b600061149e602183610fbc565b91506114a982611442565b604082019050919050565b600060208201905081810360008301526114cd81611491565b9050919050565b7f4e487b7100000000000000000000000000000000000000000000000000000000600052601260045260246000fd5b7f4e487b7100000000000000000000000000000000000000000000000000000000600052601160045260246000fd5b600061153d82610f4e565b915061154883610f4e565b925082611558576115576114d4565b5b828204905092915050565b7f596f75206e656564206d6f726520766f74657320746f2066696e616c697a652060008201527f796f757220726571756573742021000000000000000000000000000000000000602082015250565b60006115bf602e83610fbc565b91506115ca82611563565b604082019050919050565b600060208201905081810360008301526115ee816115b2565b9050919050565b7f596f75206e656564206d6f726520617070726f76616c73206265666f7265206660008201527f696e616c697a6520796f757220726571756573742e0000000000000000000000602082015250565b6000611651603583610fbc565b915061165c826115f5565b604082019050919050565b6000602082019050818103600083015261168081611644565b9050919050565b7f5468697320726571756573742068617320616c7265616479206265656e20666960008201527f6e616c697a656400000000000000000000000000000000000000000000000000602082015250565b60006116e3602783610fbc565b91506116ee82611687565b604082019050919050565b60006020820190508181036000830152611712816116d6565b9050919050565b7f4e487b7100000000000000000000000000000000000000000000000000000000600052602260045260246000fd5b6000600282049050600182168061176057607f821691505b6020821081141561177457611773611719565b5b50919050565b600061178582610f4e565b91507fffffffffffffffffffffffffffffffffffffffffffffffffffffffffffffffff8214156117b8576117b7611503565b5b600182019050919050565b7f41206d696e696d756d20636f6e747269627574696f6e2069732072657175697260008201527f6564000000000000000000000000000000000000000000000000000000000000602082015250565b600061181f602283610fbc565b915061182a826117c3565b604082019050919050565b6000602082019050818103600083015261184e81611812565b9050919050565b600061186082610f4e565b915061186b83610f4e565b9250827fffffffffffffffffffffffffffffffffffffffffffffffffffffffffffffffff038211156118a05761189f611503565b5b828201905092915050565b7f4f6e6c7920436f6e7472696275746f7273206d617920617070726f766520612060008201527f737065636966696320726571756573742066726f6d204d616e616765722e0000602082015250565b6000611907603e83610fbc565b9150611912826118ab565b604082019050919050565b60006020820190508181036000830152611936816118fa565b9050919050565b7f596f75206e656564206d6f726520636f6e747269627574696f6e20746f20766f60008201527f7465202100000000000000000000000000000000000000000000000000000000602082015250565b6000611999602483610fbc565b91506119a48261193d565b604082019050919050565b600060208201905081810360008301526119c88161198c565b9050919050565b60006119da82610f4e565b915060008214156119ee576119ed611503565b5b600182039050919050565b7f4f6e6c7920436f6e7472696275746f7273206d617920646973617070726f766560008201527f206120737065636966696320726571756573742066726f6d204d616e6167657260208201527f2e00000000000000000000000000000000000000000000000000000000000000604082015250565b6000611a7b604183610fbc565b9150611a86826119f9565b606082019050919050565b60006020820190508181036000830152611aaa81611a6e565b905091905056fea26469706673582212203942b5beb02f92811cc12a6d78f3aff10c6433a4618113bfb72eae82fc5a5ce064736f6c634300080a0033","opcodes":"PUSH1 0x80 PUSH1 0x40 MSTORE CALLVALUE DUP1 ISZERO PUSH3 0x11 JUMPI PUSH1 0x0 DUP1 REVERT JUMPDEST POP PUSH1 0x40 MLOAD PUSH3 0x1F64 CODESIZE SUB DUP1 PUSH3 0x1F64 DUP4 CODECOPY DUP2 DUP2 ADD PUSH1 0x40 MSTORE DUP2 ADD SWAP1 PUSH3 0x37 SWAP2 SWAP1 PUSH3 0x38D JUMP JUMPDEST DUP2 PUSH1 0x0 DUP1 PUSH2 0x100 EXP DUP2 SLOAD DUP2 PUSH20 0xFFFFFFFFFFFFFFFFFFFFFFFFFFFFFFFFFFFFFFFF MUL NOT AND SWAP1 DUP4 PUSH20 0xFFFFFFFFFFFFFFFFFFFFFFFFFFFFFFFFFFFFFFFF AND MUL OR SWAP1 SSTORE POP DUP3 PUSH1 0x1 DUP2 SWAP1 SSTORE POP DUP1 PUSH1 0x2 SWAP1 DUP1 MLOAD SWAP1 PUSH1 0x20 ADD SWAP1 PUSH3 0x96 SWAP3 SWAP2 SWAP1 PUSH3 0xA0 JUMP JUMPDEST POP POP POP POP PUSH3 0x46D JUMP JUMPDEST DUP3 DUP1 SLOAD PUSH3 0xAE SWAP1 PUSH3 0x437 JUMP JUMPDEST SWAP1 PUSH1 0x0 MSTORE PUSH1 0x20 PUSH1 0x0 KECCAK256 SWAP1 PUSH1 0x1F ADD PUSH1 0x20 SWAP1 DIV DUP2 ADD SWAP3 DUP3 PUSH3 0xD2 JUMPI PUSH1 0x0 DUP6 SSTORE PUSH3 0x11E JUMP JUMPDEST DUP3 PUSH1 0x1F LT PUSH3 0xED JUMPI DUP1 MLOAD PUSH1 0xFF NOT AND DUP4 DUP1 ADD OR DUP6 SSTORE PUSH3 0x11E JUMP JUMPDEST DUP3 DUP1 ADD PUSH1 0x1 ADD DUP6 SSTORE DUP3 ISZERO PUSH3 0x11E JUMPI SWAP2 DUP3 ADD JUMPDEST DUP3 DUP2 GT ISZERO PUSH3 0x11D JUMPI DUP3 MLOAD DUP3 SSTORE SWAP2 PUSH1 0x20 ADD SWAP2 SWAP1 PUSH1 0x1 ADD SWAP1 PUSH3 0x100 JUMP JUMPDEST JUMPDEST POP SWAP1 POP PUSH3 0x12D SWAP2 SWAP1 PUSH3 0x131 JUMP JUMPDEST POP SWAP1 JUMP JUMPDEST JUMPDEST DUP1 DUP3 GT ISZERO PUSH3 0x14C JUMPI PUSH1 0x0 DUP2 PUSH1 0x0 SWAP1 SSTORE POP PUSH1 0x1 ADD PUSH3 0x132 JUMP JUMPDEST POP SWAP1 JUMP JUMPDEST PUSH1 0x0 PUSH1 0x40 MLOAD SWAP1 POP SWAP1 JUMP JUMPDEST PUSH1 0x0 DUP1 REVERT JUMPDEST PUSH1 0x0 DUP1 REVERT JUMPDEST PUSH1 0x0 DUP2 SWAP1 POP SWAP2 SWAP1 POP JUMP JUMPDEST PUSH3 0x179 DUP2 PUSH3 0x164 JUMP JUMPDEST DUP2 EQ PUSH3 0x185 JUMPI PUSH1 0x0 DUP1 REVERT JUMPDEST POP JUMP JUMPDEST PUSH1 0x0 DUP2 MLOAD SWAP1 POP PUSH3 0x199 DUP2 PUSH3 0x16E JUMP JUMPDEST SWAP3 SWAP2 POP POP JUMP JUMPDEST PUSH1 0x0 PUSH20 0xFFFFFFFFFFFFFFFFFFFFFFFFFFFFFFFFFFFFFFFF DUP3 AND SWAP1 POP SWAP2 SWAP1 POP JUMP JUMPDEST PUSH1 0x0 PUSH3 0x1CC DUP3 PUSH3 0x19F JUMP JUMPDEST SWAP1 POP SWAP2 SWAP1 POP JUMP JUMPDEST PUSH3 0x1DE DUP2 PUSH3 0x1BF JUMP JUMPDEST DUP2 EQ PUSH3 0x1EA JUMPI PUSH1 0x0 DUP1 REVERT JUMPDEST POP JUMP JUMPDEST PUSH1 0x0 DUP2 MLOAD SWAP1 POP PUSH3 0x1FE DUP2 PUSH3 0x1D3 JUMP JUMPDEST SWAP3 SWAP2 POP POP JUMP JUMPDEST PUSH1 0x0 DUP1 REVERT JUMPDEST PUSH1 0x0 DUP1 REVERT JUMPDEST PUSH1 0x0 PUSH1 0x1F NOT PUSH1 0x1F DUP4 ADD AND SWAP1 POP SWAP2 SWAP1 POP JUMP JUMPDEST PUSH32 0x4E487B7100000000000000000000000000000000000000000000000000000000 PUSH1 0x0 MSTORE PUSH1 0x41 PUSH1 0x4 MSTORE PUSH1 0x24 PUSH1 0x0 REVERT JUMPDEST PUSH3 0x259 DUP3 PUSH3 0x20E JUMP JUMPDEST DUP2 ADD DUP2 DUP2 LT PUSH8 0xFFFFFFFFFFFFFFFF DUP3 GT OR ISZERO PUSH3 0x27B JUMPI PUSH3 0x27A PUSH3 0x21F JUMP JUMPDEST JUMPDEST DUP1 PUSH1 0x40 MSTORE POP POP POP JUMP JUMPDEST PUSH1 0x0 PUSH3 0x290 PUSH3 0x150 JUMP JUMPDEST SWAP1 POP PUSH3 0x29E DUP3 DUP3 PUSH3 0x24E JUMP JUMPDEST SWAP2 SWAP1 POP JUMP JUMPDEST PUSH1 0x0 PUSH8 0xFFFFFFFFFFFFFFFF DUP3 GT ISZERO PUSH3 0x2C1 JUMPI PUSH3 0x2C0 PUSH3 0x21F JUMP JUMPDEST JUMPDEST PUSH3 0x2CC DUP3 PUSH3 0x20E JUMP JUMPDEST SWAP1 POP PUSH1 0x20 DUP2 ADD SWAP1 POP SWAP2 SWAP1 POP JUMP JUMPDEST PUSH1 0x0 JUMPDEST DUP4 DUP2 LT ISZERO PUSH3 0x2F9 JUMPI DUP1 DUP3 ADD MLOAD DUP2 DUP5 ADD MSTORE PUSH1 0x20 DUP2 ADD SWAP1 POP PUSH3 0x2DC JUMP JUMPDEST DUP4 DUP2 GT ISZERO PUSH3 0x309 JUMPI PUSH1 0x0 DUP5 DUP5 ADD MSTORE JUMPDEST POP POP POP POP JUMP JUMPDEST PUSH1 0x0 PUSH3 0x326 PUSH3 0x320 DUP5 PUSH3 0x2A3 JUMP JUMPDEST PUSH3 0x284 JUMP JUMPDEST SWAP1 POP DUP3 DUP2 MSTORE PUSH1 0x20 DUP2 ADD DUP5 DUP5 DUP5 ADD GT ISZERO PUSH3 0x345 JUMPI PUSH3 0x344 PUSH3 0x209 JUMP JUMPDEST JUMPDEST PUSH3 0x352 DUP5 DUP3 DUP6 PUSH3 0x2D9 JUMP JUMPDEST POP SWAP4 SWAP3 POP POP POP JUMP JUMPDEST PUSH1 0x0 DUP3 PUSH1 0x1F DUP4 ADD SLT PUSH3 0x372 JUMPI PUSH3 0x371 PUSH3 0x204 JUMP JUMPDEST JUMPDEST DUP2 MLOAD PUSH3 0x384 DUP5 DUP3 PUSH1 0x20 DUP7 ADD PUSH3 0x30F JUMP JUMPDEST SWAP2 POP POP SWAP3 SWAP2 POP POP JUMP JUMPDEST PUSH1 0x0 DUP1 PUSH1 0x0 PUSH1 0x60 DUP5 DUP7 SUB SLT ISZERO PUSH3 0x3A9 JUMPI PUSH3 0x3A8 PUSH3 0x15A JUMP JUMPDEST JUMPDEST PUSH1 0x0 PUSH3 0x3B9 DUP7 DUP3 DUP8 ADD PUSH3 0x188 JUMP JUMPDEST SWAP4 POP POP PUSH1 0x20 PUSH3 0x3CC DUP7 DUP3 DUP8 ADD PUSH3 0x1ED JUMP JUMPDEST SWAP3 POP POP PUSH1 0x40 DUP5 ADD MLOAD PUSH8 0xFFFFFFFFFFFFFFFF DUP2 GT ISZERO PUSH3 0x3F0 JUMPI PUSH3 0x3EF PUSH3 0x15F JUMP JUMPDEST JUMPDEST PUSH3 0x3FE DUP7 DUP3 DUP8 ADD PUSH3 0x35A JUMP JUMPDEST SWAP2 POP POP SWAP3 POP SWAP3 POP SWAP3 JUMP JUMPDEST PUSH32 0x4E487B7100000000000000000000000000000000000000000000000000000000 PUSH1 0x0 MSTORE PUSH1 0x22 PUSH1 0x4 MSTORE PUSH1 0x24 PUSH1 0x0 REVERT JUMPDEST PUSH1 0x0 PUSH1 0x2 DUP3 DIV SWAP1 POP PUSH1 0x1 DUP3 AND DUP1 PUSH3 0x450 JUMPI PUSH1 0x7F DUP3 AND SWAP2 POP JUMPDEST PUSH1 0x20 DUP3 LT DUP2 EQ ISZERO PUSH3 0x467 JUMPI PUSH3 0x466 PUSH3 0x408 JUMP JUMPDEST JUMPDEST POP SWAP2 SWAP1 POP JUMP JUMPDEST PUSH2 0x1AE7 DUP1 PUSH3 0x47D PUSH1 0x0 CODECOPY PUSH1 0x0 RETURN INVALID PUSH1 0x80 PUSH1 0x40 MSTORE PUSH1 0x4 CALLDATASIZE LT PUSH2 0xE8 JUMPI PUSH1 0x0 CALLDATALOAD PUSH1 0xE0 SHR DUP1 PUSH4 0x9FB42B1F GT PUSH2 0x8A JUMPI DUP1 PUSH4 0xD7BB99BA GT PUSH2 0x59 JUMPI DUP1 PUSH4 0xD7BB99BA EQ PUSH2 0x302 JUMPI DUP1 PUSH4 0xD7D1BBDB EQ PUSH2 0x30C JUMPI DUP1 PUSH4 0xF8439DC7 EQ PUSH2 0x335 JUMPI DUP1 PUSH4 0xFB1A002A EQ PUSH2 0x35E JUMPI PUSH2 0xE8 JUMP JUMPDEST DUP1 PUSH4 0x9FB42B1F EQ PUSH2 0x232 JUMPI DUP1 PUSH4 0xBCA5B828 EQ PUSH2 0x25D JUMPI DUP1 PUSH4 0xC73E5972 EQ PUSH2 0x29A JUMPI DUP1 PUSH4 0xCEB35605 EQ PUSH2 0x2C5 JUMPI PUSH2 0xE8 JUMP JUMPDEST DUP1 PUSH4 0x81D12C58 GT PUSH2 0xC6 JUMPI DUP1 PUSH4 0x81D12C58 EQ PUSH2 0x16C JUMPI DUP1 PUSH4 0x8A9CFD55 EQ PUSH2 0x1AE JUMPI DUP1 PUSH4 0x923EDA37 EQ PUSH2 0x1D7 JUMPI DUP1 PUSH4 0x937E09B1 EQ PUSH2 0x207 JUMPI PUSH2 0xE8 JUMP JUMPDEST DUP1 PUSH4 0x3441006 EQ PUSH2 0xED JUMPI DUP1 PUSH4 0x110842CB EQ PUSH2 0x116 JUMPI DUP1 PUSH4 0x481C6A75 EQ PUSH2 0x141 JUMPI JUMPDEST PUSH1 0x0 DUP1 REVERT JUMPDEST CALLVALUE DUP1 ISZERO PUSH2 0xF9 JUMPI PUSH1 0x0 DUP1 REVERT JUMPDEST POP PUSH2 0x114 PUSH1 0x4 DUP1 CALLDATASIZE SUB DUP2 ADD SWAP1 PUSH2 0x10F SWAP2 SWAP1 PUSH2 0xF84 JUMP JUMPDEST PUSH2 0x389 JUMP JUMPDEST STOP JUMPDEST CALLVALUE DUP1 ISZERO PUSH2 0x122 JUMPI PUSH1 0x0 DUP1 REVERT JUMPDEST POP PUSH2 0x12B PUSH2 0x5AE JUMP JUMPDEST PUSH1 0x40 MLOAD PUSH2 0x138 SWAP2 SWAP1 PUSH2 0x104A JUMP JUMPDEST PUSH1 0x40 MLOAD DUP1 SWAP2 SUB SWAP1 RETURN JUMPDEST CALLVALUE DUP1 ISZERO PUSH2 0x14D JUMPI PUSH1 0x0 DUP1 REVERT JUMPDEST POP PUSH2 0x156 PUSH2 0x63C JUMP JUMPDEST PUSH1 0x40 MLOAD PUSH2 0x163 SWAP2 SWAP1 PUSH2 0x10AD JUMP JUMPDEST PUSH1 0x40 MLOAD DUP1 SWAP2 SUB SWAP1 RETURN JUMPDEST CALLVALUE DUP1 ISZERO PUSH2 0x178 JUMPI PUSH1 0x0 DUP1 REVERT JUMPDEST POP PUSH2 0x193 PUSH1 0x4 DUP1 CALLDATASIZE SUB DUP2 ADD SWAP1 PUSH2 0x18E SWAP2 SWAP1 PUSH2 0xF84 JUMP JUMPDEST PUSH2 0x660 JUMP JUMPDEST PUSH1 0x40 MLOAD PUSH2 0x1A5 SWAP7 SWAP6 SWAP5 SWAP4 SWAP3 SWAP2 SWAP1 PUSH2 0x1113 JUMP JUMPDEST PUSH1 0x40 MLOAD DUP1 SWAP2 SUB SWAP1 RETURN JUMPDEST CALLVALUE DUP1 ISZERO PUSH2 0x1BA JUMPI PUSH1 0x0 DUP1 REVERT JUMPDEST POP PUSH2 0x1D5 PUSH1 0x4 DUP1 CALLDATASIZE SUB DUP2 ADD SWAP1 PUSH2 0x1D0 SWAP2 SWAP1 PUSH2 0x12DC JUMP JUMPDEST PUSH2 0x751 JUMP JUMPDEST STOP JUMPDEST CALLVALUE DUP1 ISZERO PUSH2 0x1E3 JUMPI PUSH1 0x0 DUP1 REVERT JUMPDEST POP PUSH2 0x1EC PUSH2 0x8A8 JUMP JUMPDEST PUSH1 0x40 MLOAD PUSH2 0x1FE SWAP7 SWAP6 SWAP5 SWAP4 SWAP3 SWAP2 SWAP1 PUSH2 0x134B JUMP JUMPDEST PUSH1 0x40 MLOAD DUP1 SWAP2 SUB SWAP1 RETURN JUMPDEST CALLVALUE DUP1 ISZERO PUSH2 0x213 JUMPI PUSH1 0x0 DUP1 REVERT JUMPDEST POP PUSH2 0x21C PUSH2 0x97F JUMP JUMPDEST PUSH1 0x40 MLOAD PUSH2 0x229 SWAP2 SWAP1 PUSH2 0x13B3 JUMP JUMPDEST PUSH1 0x40 MLOAD DUP1 SWAP2 SUB SWAP1 RETURN JUMPDEST CALLVALUE DUP1 ISZERO PUSH2 0x23E JUMPI PUSH1 0x0 DUP1 REVERT JUMPDEST POP PUSH2 0x247 PUSH2 0x985 JUMP JUMPDEST PUSH1 0x40 MLOAD PUSH2 0x254 SWAP2 SWAP1 PUSH2 0x13B3 JUMP JUMPDEST PUSH1 0x40 MLOAD DUP1 SWAP2 SUB SWAP1 RETURN JUMPDEST CALLVALUE DUP1 ISZERO PUSH2 0x269 JUMPI PUSH1 0x0 DUP1 REVERT JUMPDEST POP PUSH2 0x284 PUSH1 0x4 DUP1 CALLDATASIZE SUB DUP2 ADD SWAP1 PUSH2 0x27F SWAP2 SWAP1 PUSH2 0x13FA JUMP JUMPDEST PUSH2 0x98B JUMP JUMPDEST PUSH1 0x40 MLOAD PUSH2 0x291 SWAP2 SWAP1 PUSH2 0x13B3 JUMP JUMPDEST PUSH1 0x40 MLOAD DUP1 SWAP2 SUB SWAP1 RETURN JUMPDEST CALLVALUE DUP1 ISZERO PUSH2 0x2A6 JUMPI PUSH1 0x0 DUP1 REVERT JUMPDEST POP PUSH2 0x2AF PUSH2 0x9A3 JUMP JUMPDEST PUSH1 0x40 MLOAD PUSH2 0x2BC SWAP2 SWAP1 PUSH2 0x13B3 JUMP JUMPDEST PUSH1 0x40 MLOAD DUP1 SWAP2 SUB SWAP1 RETURN JUMPDEST CALLVALUE DUP1 ISZERO PUSH2 0x2D1 JUMPI PUSH1 0x0 DUP1 REVERT JUMPDEST POP PUSH2 0x2EC PUSH1 0x4 DUP1 CALLDATASIZE SUB DUP2 ADD SWAP1 PUSH2 0x2E7 SWAP2 SWAP1 PUSH2 0x13FA JUMP JUMPDEST PUSH2 0x9A9 JUMP JUMPDEST PUSH1 0x40 MLOAD PUSH2 0x2F9 SWAP2 SWAP1 PUSH2 0x1427 JUMP JUMPDEST PUSH1 0x40 MLOAD DUP1 SWAP2 SUB SWAP1 RETURN JUMPDEST PUSH2 0x30A PUSH2 0x9C9 JUMP JUMPDEST STOP JUMPDEST CALLVALUE DUP1 ISZERO PUSH2 0x318 JUMPI PUSH1 0x0 DUP1 REVERT JUMPDEST POP PUSH2 0x333 PUSH1 0x4 DUP1 CALLDATASIZE SUB DUP2 ADD SWAP1 PUSH2 0x32E SWAP2 SWAP1 PUSH2 0xF84 JUMP JUMPDEST PUSH2 0xB2B JUMP JUMPDEST STOP JUMPDEST CALLVALUE DUP1 ISZERO PUSH2 0x341 JUMPI PUSH1 0x0 DUP1 REVERT JUMPDEST POP PUSH2 0x35C PUSH1 0x4 DUP1 CALLDATASIZE SUB DUP2 ADD SWAP1 PUSH2 0x357 SWAP2 SWAP1 PUSH2 0xF84 JUMP JUMPDEST PUSH2 0xCDC JUMP JUMPDEST STOP JUMPDEST CALLVALUE DUP1 ISZERO PUSH2 0x36A JUMPI PUSH1 0x0 DUP1 REVERT JUMPDEST POP PUSH2 0x373 PUSH2 0xE8D JUMP JUMPDEST PUSH1 0x40 MLOAD PUSH2 0x380 SWAP2 SWAP1 PUSH2 0x13B3 JUMP JUMPDEST PUSH1 0x40 MLOAD DUP1 SWAP2 SUB SWAP1 RETURN JUMPDEST PUSH1 0x0 DUP1 SLOAD SWAP1 PUSH2 0x100 EXP SWAP1 DIV PUSH20 0xFFFFFFFFFFFFFFFFFFFFFFFFFFFFFFFFFFFFFFFF AND PUSH20 0xFFFFFFFFFFFFFFFFFFFFFFFFFFFFFFFFFFFFFFFF AND CALLER PUSH20 0xFFFFFFFFFFFFFFFFFFFFFFFFFFFFFFFFFFFFFFFF AND EQ PUSH2 0x417 JUMPI PUSH1 0x40 MLOAD PUSH32 0x8C379A000000000000000000000000000000000000000000000000000000000 DUP2 MSTORE PUSH1 0x4 ADD PUSH2 0x40E SWAP1 PUSH2 0x14B4 JUMP JUMPDEST PUSH1 0x40 MLOAD DUP1 SWAP2 SUB SWAP1 REVERT JUMPDEST PUSH1 0x0 PUSH1 0x8 PUSH1 0x0 DUP4 DUP2 MSTORE PUSH1 0x20 ADD SWAP1 DUP2 MSTORE PUSH1 0x20 ADD PUSH1 0x0 KECCAK256 SWAP1 POP PUSH1 0x3 PUSH1 0x4 SLOAD PUSH2 0x43D SWAP2 SWAP1 PUSH2 0x1532 JUMP JUMPDEST DUP2 PUSH1 0x3 ADD SLOAD GT PUSH2 0x482 JUMPI PUSH1 0x40 MLOAD PUSH32 0x8C379A000000000000000000000000000000000000000000000000000000000 DUP2 MSTORE PUSH1 0x4 ADD PUSH2 0x479 SWAP1 PUSH2 0x15D5 JUMP JUMPDEST PUSH1 0x40 MLOAD DUP1 SWAP2 SUB SWAP1 REVERT JUMPDEST DUP1 PUSH1 0x4 ADD SLOAD DUP2 PUSH1 0x3 ADD SLOAD GT PUSH2 0x4CC JUMPI PUSH1 0x40 MLOAD PUSH32 0x8C379A000000000000000000000000000000000000000000000000000000000 DUP2 MSTORE PUSH1 0x4 ADD PUSH2 0x4C3 SWAP1 PUSH2 0x1667 JUMP JUMPDEST PUSH1 0x40 MLOAD DUP1 SWAP2 SUB SWAP1 REVERT JUMPDEST DUP1 PUSH1 0x2 ADD PUSH1 0x14 SWAP1 SLOAD SWAP1 PUSH2 0x100 EXP SWAP1 DIV PUSH1 0xFF AND ISZERO PUSH2 0x51E JUMPI PUSH1 0x40 MLOAD PUSH32 0x8C379A000000000000000000000000000000000000000000000000000000000 DUP2 MSTORE PUSH1 0x4 ADD PUSH2 0x515 SWAP1 PUSH2 0x16F9 JUMP JUMPDEST PUSH1 0x40 MLOAD DUP1 SWAP2 SUB SWAP1 REVERT JUMPDEST DUP1 PUSH1 0x2 ADD PUSH1 0x0 SWAP1 SLOAD SWAP1 PUSH2 0x100 EXP SWAP1 DIV PUSH20 0xFFFFFFFFFFFFFFFFFFFFFFFFFFFFFFFFFFFFFFFF AND PUSH20 0xFFFFFFFFFFFFFFFFFFFFFFFFFFFFFFFFFFFFFFFF AND PUSH2 0x8FC DUP3 PUSH1 0x1 ADD SLOAD SWAP1 DUP2 ISZERO MUL SWAP1 PUSH1 0x40 MLOAD PUSH1 0x0 PUSH1 0x40 MLOAD DUP1 DUP4 SUB DUP2 DUP6 DUP9 DUP9 CALL SWAP4 POP POP POP POP ISZERO DUP1 ISZERO PUSH2 0x58C JUMPI RETURNDATASIZE PUSH1 0x0 DUP1 RETURNDATACOPY RETURNDATASIZE PUSH1 0x0 REVERT JUMPDEST POP PUSH1 0x1 DUP2 PUSH1 0x2 ADD PUSH1 0x14 PUSH2 0x100 EXP DUP2 SLOAD DUP2 PUSH1 0xFF MUL NOT AND SWAP1 DUP4 ISZERO ISZERO MUL OR SWAP1 SSTORE POP POP POP JUMP JUMPDEST PUSH1 0x2 DUP1 SLOAD PUSH2 0x5BB SWAP1 PUSH2 0x1748 JUMP JUMPDEST DUP1 PUSH1 0x1F ADD PUSH1 0x20 DUP1 SWAP2 DIV MUL PUSH1 0x20 ADD PUSH1 0x40 MLOAD SWAP1 DUP2 ADD PUSH1 0x40 MSTORE DUP1 SWAP3 SWAP2 SWAP1 DUP2 DUP2 MSTORE PUSH1 0x20 ADD DUP3 DUP1 SLOAD PUSH2 0x5E7 SWAP1 PUSH2 0x1748 JUMP JUMPDEST DUP1 ISZERO PUSH2 0x634 JUMPI DUP1 PUSH1 0x1F LT PUSH2 0x609 JUMPI PUSH2 0x100 DUP1 DUP4 SLOAD DIV MUL DUP4 MSTORE SWAP2 PUSH1 0x20 ADD SWAP2 PUSH2 0x634 JUMP JUMPDEST DUP3 ADD SWAP2 SWAP1 PUSH1 0x0 MSTORE PUSH1 0x20 PUSH1 0x0 KECCAK256 SWAP1 JUMPDEST DUP2 SLOAD DUP2 MSTORE SWAP1 PUSH1 0x1 ADD SWAP1 PUSH1 0x20 ADD DUP1 DUP4 GT PUSH2 0x617 JUMPI DUP3 SWAP1 SUB PUSH1 0x1F AND DUP3 ADD SWAP2 JUMPDEST POP POP POP POP POP DUP2 JUMP JUMPDEST PUSH1 0x0 DUP1 SLOAD SWAP1 PUSH2 0x100 EXP SWAP1 DIV PUSH20 0xFFFFFFFFFFFFFFFFFFFFFFFFFFFFFFFFFFFFFFFF AND DUP2 JUMP JUMPDEST PUSH1 0x8 PUSH1 0x20 MSTORE DUP1 PUSH1 0x0 MSTORE PUSH1 0x40 PUSH1 0x0 KECCAK256 PUSH1 0x0 SWAP2 POP SWAP1 POP DUP1 PUSH1 0x0 ADD DUP1 SLOAD PUSH2 0x683 SWAP1 PUSH2 0x1748 JUMP JUMPDEST DUP1 PUSH1 0x1F ADD PUSH1 0x20 DUP1 SWAP2 DIV MUL PUSH1 0x20 ADD PUSH1 0x40 MLOAD SWAP1 DUP2 ADD PUSH1 0x40 MSTORE DUP1 SWAP3 SWAP2 SWAP1 DUP2 DUP2 MSTORE PUSH1 0x20 ADD DUP3 DUP1 SLOAD PUSH2 0x6AF SWAP1 PUSH2 0x1748 JUMP JUMPDEST DUP1 ISZERO PUSH2 0x6FC JUMPI DUP1 PUSH1 0x1F LT PUSH2 0x6D1 JUMPI PUSH2 0x100 DUP1 DUP4 SLOAD DIV MUL DUP4 MSTORE SWAP2 PUSH1 0x20 ADD SWAP2 PUSH2 0x6FC JUMP JUMPDEST DUP3 ADD SWAP2 SWAP1 PUSH1 0x0 MSTORE PUSH1 0x20 PUSH1 0x0 KECCAK256 SWAP1 JUMPDEST DUP2 SLOAD DUP2 MSTORE SWAP1 PUSH1 0x1 ADD SWAP1 PUSH1 0x20 ADD DUP1 DUP4 GT PUSH2 0x6DF JUMPI DUP3 SWAP1 SUB PUSH1 0x1F AND DUP3 ADD SWAP2 JUMPDEST POP POP POP POP POP SWAP1 DUP1 PUSH1 0x1 ADD SLOAD SWAP1 DUP1 PUSH1 0x2 ADD PUSH1 0x0 SWAP1 SLOAD SWAP1 PUSH2 0x100 EXP SWAP1 DIV PUSH20 0xFFFFFFFFFFFFFFFFFFFFFFFFFFFFFFFFFFFFFFFF AND SWAP1 DUP1 PUSH1 0x2 ADD PUSH1 0x14 SWAP1 SLOAD SWAP1 PUSH2 0x100 EXP SWAP1 DIV PUSH1 0xFF AND SWAP1 DUP1 PUSH1 0x3 ADD SLOAD SWAP1 DUP1 PUSH1 0x4 ADD SLOAD SWAP1 POP DUP7 JUMP JUMPDEST PUSH1 0x0 DUP1 SLOAD SWAP1 PUSH2 0x100 EXP SWAP1 DIV PUSH20 0xFFFFFFFFFFFFFFFFFFFFFFFFFFFFFFFFFFFFFFFF AND PUSH20 0xFFFFFFFFFFFFFFFFFFFFFFFFFFFFFFFFFFFFFFFF AND CALLER PUSH20 0xFFFFFFFFFFFFFFFFFFFFFFFFFFFFFFFFFFFFFFFF AND EQ PUSH2 0x7DF JUMPI PUSH1 0x40 MLOAD PUSH32 0x8C379A000000000000000000000000000000000000000000000000000000000 DUP2 MSTORE PUSH1 0x4 ADD PUSH2 0x7D6 SWAP1 PUSH2 0x14B4 JUMP JUMPDEST PUSH1 0x40 MLOAD DUP1 SWAP2 SUB SWAP1 REVERT JUMPDEST PUSH1 0x0 PUSH1 0x8 PUSH1 0x0 PUSH1 0x3 PUSH1 0x0 DUP2 SLOAD DUP1 SWAP3 SWAP2 SWAP1 PUSH2 0x7F8 SWAP1 PUSH2 0x177A JUMP JUMPDEST SWAP2 SWAP1 POP SSTORE DUP2 MSTORE PUSH1 0x20 ADD SWAP1 DUP2 MSTORE PUSH1 0x20 ADD PUSH1 0x0 KECCAK256 SWAP1 POP DUP4 DUP2 PUSH1 0x0 ADD SWAP1 DUP1 MLOAD SWAP1 PUSH1 0x20 ADD SWAP1 PUSH2 0x824 SWAP3 SWAP2 SWAP1 PUSH2 0xE97 JUMP JUMPDEST POP DUP3 DUP2 PUSH1 0x1 ADD DUP2 SWAP1 SSTORE POP DUP2 DUP2 PUSH1 0x2 ADD PUSH1 0x0 PUSH2 0x100 EXP DUP2 SLOAD DUP2 PUSH20 0xFFFFFFFFFFFFFFFFFFFFFFFFFFFFFFFFFFFFFFFF MUL NOT AND SWAP1 DUP4 PUSH20 0xFFFFFFFFFFFFFFFFFFFFFFFFFFFFFFFFFFFFFFFF AND MUL OR SWAP1 SSTORE POP PUSH1 0x0 DUP2 PUSH1 0x2 ADD PUSH1 0x14 PUSH2 0x100 EXP DUP2 SLOAD DUP2 PUSH1 0xFF MUL NOT AND SWAP1 DUP4 ISZERO ISZERO MUL OR SWAP1 SSTORE POP PUSH1 0x0 DUP2 PUSH1 0x3 ADD DUP2 SWAP1 SSTORE POP PUSH1 0x0 DUP2 PUSH1 0x4 ADD DUP2 SWAP1 SSTORE POP POP POP POP POP JUMP JUMPDEST PUSH1 0x60 PUSH1 0x0 DUP1 PUSH1 0x0 DUP1 PUSH1 0x0 PUSH1 0x2 PUSH1 0x1 SLOAD SELFBALANCE PUSH1 0x3 SLOAD PUSH1 0x4 SLOAD PUSH1 0x0 DUP1 SLOAD SWAP1 PUSH2 0x100 EXP SWAP1 DIV PUSH20 0xFFFFFFFFFFFFFFFFFFFFFFFFFFFFFFFFFFFFFFFF AND DUP6 DUP1 SLOAD PUSH2 0x8EB SWAP1 PUSH2 0x1748 JUMP JUMPDEST DUP1 PUSH1 0x1F ADD PUSH1 0x20 DUP1 SWAP2 DIV MUL PUSH1 0x20 ADD PUSH1 0x40 MLOAD SWAP1 DUP2 ADD PUSH1 0x40 MSTORE DUP1 SWAP3 SWAP2 SWAP1 DUP2 DUP2 MSTORE PUSH1 0x20 ADD DUP3 DUP1 SLOAD PUSH2 0x917 SWAP1 PUSH2 0x1748 JUMP JUMPDEST DUP1 ISZERO PUSH2 0x964 JUMPI DUP1 PUSH1 0x1F LT PUSH2 0x939 JUMPI PUSH2 0x100 DUP1 DUP4 SLOAD DIV MUL DUP4 MSTORE SWAP2 PUSH1 0x20 ADD SWAP2 PUSH2 0x964 JUMP JUMPDEST DUP3 ADD SWAP2 SWAP1 PUSH1 0x0 MSTORE PUSH1 0x20 PUSH1 0x0 KECCAK256 SWAP1 JUMPDEST DUP2 SLOAD DUP2 MSTORE SWAP1 PUSH1 0x1 ADD SWAP1 PUSH1 0x20 ADD DUP1 DUP4 GT PUSH2 0x947 JUMPI DUP3 SWAP1 SUB PUSH1 0x1F AND DUP3 ADD SWAP2 JUMPDEST POP POP POP POP POP SWAP6 POP SWAP6 POP SWAP6 POP SWAP6 POP SWAP6 POP SWAP6 POP SWAP6 POP SWAP1 SWAP2 SWAP3 SWAP4 SWAP5 SWAP6 JUMP JUMPDEST PUSH1 0x1 SLOAD DUP2 JUMP JUMPDEST PUSH1 0x3 SLOAD DUP2 JUMP JUMPDEST PUSH1 0x7 PUSH1 0x20 MSTORE DUP1 PUSH1 0x0 MSTORE PUSH1 0x40 PUSH1 0x0 KECCAK256 PUSH1 0x0 SWAP2 POP SWAP1 POP SLOAD DUP2 JUMP JUMPDEST PUSH1 0x4 SLOAD DUP2 JUMP JUMPDEST PUSH1 0x5 PUSH1 0x20 MSTORE DUP1 PUSH1 0x0 MSTORE PUSH1 0x40 PUSH1 0x0 KECCAK256 PUSH1 0x0 SWAP2 POP SLOAD SWAP1 PUSH2 0x100 EXP SWAP1 DIV PUSH1 0xFF AND DUP2 JUMP JUMPDEST PUSH1 0x1 SLOAD CALLVALUE LT ISZERO PUSH2 0xA0E JUMPI PUSH1 0x40 MLOAD PUSH32 0x8C379A000000000000000000000000000000000000000000000000000000000 DUP2 MSTORE PUSH1 0x4 ADD PUSH2 0xA05 SWAP1 PUSH2 0x1835 JUMP JUMPDEST PUSH1 0x40 MLOAD DUP1 SWAP2 SUB SWAP1 REVERT JUMPDEST CALLVALUE PUSH1 0x7 PUSH1 0x0 CALLER PUSH20 0xFFFFFFFFFFFFFFFFFFFFFFFFFFFFFFFFFFFFFFFF AND PUSH20 0xFFFFFFFFFFFFFFFFFFFFFFFFFFFFFFFFFFFFFFFF AND DUP2 MSTORE PUSH1 0x20 ADD SWAP1 DUP2 MSTORE PUSH1 0x20 ADD PUSH1 0x0 KECCAK256 PUSH1 0x0 DUP3 DUP3 SLOAD PUSH2 0xA5D SWAP2 SWAP1 PUSH2 0x1855 JUMP JUMPDEST SWAP3 POP POP DUP2 SWAP1 SSTORE POP PUSH1 0x6 PUSH1 0x0 CALLER PUSH20 0xFFFFFFFFFFFFFFFFFFFFFFFFFFFFFFFFFFFFFFFF AND PUSH20 0xFFFFFFFFFFFFFFFFFFFFFFFFFFFFFFFFFFFFFFFF AND DUP2 MSTORE PUSH1 0x20 ADD SWAP1 DUP2 MSTORE PUSH1 0x20 ADD PUSH1 0x0 KECCAK256 PUSH1 0x0 DUP2 SLOAD DUP1 SWAP3 SWAP2 SWAP1 PUSH2 0xAB4 SWAP1 PUSH2 0x177A JUMP JUMPDEST SWAP2 SWAP1 POP SSTORE POP PUSH1 0x4 PUSH1 0x0 DUP2 SLOAD DUP1 SWAP3 SWAP2 SWAP1 PUSH2 0xACC SWAP1 PUSH2 0x177A JUMP JUMPDEST SWAP2 SWAP1 POP SSTORE POP PUSH1 0x1 PUSH1 0x5 PUSH1 0x0 CALLER PUSH20 0xFFFFFFFFFFFFFFFFFFFFFFFFFFFFFFFFFFFFFFFF AND PUSH20 0xFFFFFFFFFFFFFFFFFFFFFFFFFFFFFFFFFFFFFFFF AND DUP2 MSTORE PUSH1 0x20 ADD SWAP1 DUP2 MSTORE PUSH1 0x20 ADD PUSH1 0x0 KECCAK256 PUSH1 0x0 PUSH2 0x100 EXP DUP2 SLOAD DUP2 PUSH1 0xFF MUL NOT AND SWAP1 DUP4 ISZERO ISZERO MUL OR SWAP1 SSTORE POP JUMP JUMPDEST PUSH1 0x5 PUSH1 0x0 CALLER PUSH20 0xFFFFFFFFFFFFFFFFFFFFFFFFFFFFFFFFFFFFFFFF AND PUSH20 0xFFFFFFFFFFFFFFFFFFFFFFFFFFFFFFFFFFFFFFFF AND DUP2 MSTORE PUSH1 0x20 ADD SWAP1 DUP2 MSTORE PUSH1 0x20 ADD PUSH1 0x0 KECCAK256 PUSH1 0x0 SWAP1 SLOAD SWAP1 PUSH2 0x100 EXP SWAP1 DIV PUSH1 0xFF AND PUSH2 0xBB7 JUMPI PUSH1 0x40 MLOAD PUSH32 0x8C379A000000000000000000000000000000000000000000000000000000000 DUP2 MSTORE PUSH1 0x4 ADD PUSH2 0xBAE SWAP1 PUSH2 0x191D JUMP JUMPDEST PUSH1 0x40 MLOAD DUP1 SWAP2 SUB SWAP1 REVERT JUMPDEST PUSH1 0x0 PUSH1 0x8 PUSH1 0x0 DUP4 DUP2 MSTORE PUSH1 0x20 ADD SWAP1 DUP2 MSTORE PUSH1 0x20 ADD PUSH1 0x0 KECCAK256 SWAP1 POP PUSH1 0x1 PUSH1 0x6 PUSH1 0x0 CALLER PUSH20 0xFFFFFFFFFFFFFFFFFFFFFFFFFFFFFFFFFFFFFFFF AND PUSH20 0xFFFFFFFFFFFFFFFFFFFFFFFFFFFFFFFFFFFFFFFF AND DUP2 MSTORE PUSH1 0x20 ADD SWAP1 DUP2 MSTORE PUSH1 0x20 ADD PUSH1 0x0 KECCAK256 SLOAD LT ISZERO PUSH2 0xC51 JUMPI PUSH1 0x40 MLOAD PUSH32 0x8C379A000000000000000000000000000000000000000000000000000000000 DUP2 MSTORE PUSH1 0x4 ADD PUSH2 0xC48 SWAP1 PUSH2 0x19AF JUMP JUMPDEST PUSH1 0x40 MLOAD DUP1 SWAP2 SUB SWAP1 REVERT JUMPDEST PUSH1 0x6 PUSH1 0x0 CALLER PUSH20 0xFFFFFFFFFFFFFFFFFFFFFFFFFFFFFFFFFFFFFFFF AND PUSH20 0xFFFFFFFFFFFFFFFFFFFFFFFFFFFFFFFFFFFFFFFF AND DUP2 MSTORE PUSH1 0x20 ADD SWAP1 DUP2 MSTORE PUSH1 0x20 ADD PUSH1 0x0 KECCAK256 PUSH1 0x0 DUP2 SLOAD DUP1 SWAP3 SWAP2 SWAP1 PUSH2 0xCA1 SWAP1 PUSH2 0x19CF JUMP JUMPDEST SWAP2 SWAP1 POP SSTORE POP DUP1 PUSH1 0x3 ADD PUSH1 0x0 DUP2 SLOAD DUP1 SWAP3 SWAP2 SWAP1 PUSH2 0xCBB SWAP1 PUSH2 0x177A JUMP JUMPDEST SWAP2 SWAP1 POP SSTORE POP PUSH1 0x4 PUSH1 0x0 DUP2 SLOAD DUP1 SWAP3 SWAP2 SWAP1 PUSH2 0xCD3 SWAP1 PUSH2 0x19CF JUMP JUMPDEST SWAP2 SWAP1 POP SSTORE POP POP POP JUMP JUMPDEST PUSH1 0x5 PUSH1 0x0 CALLER PUSH20 0xFFFFFFFFFFFFFFFFFFFFFFFFFFFFFFFFFFFFFFFF AND PUSH20 0xFFFFFFFFFFFFFFFFFFFFFFFFFFFFFFFFFFFFFFFF AND DUP2 MSTORE PUSH1 0x20 ADD SWAP1 DUP2 MSTORE PUSH1 0x20 ADD PUSH1 0x0 KECCAK256 PUSH1 0x0 SWAP1 SLOAD SWAP1 PUSH2 0x100 EXP SWAP1 DIV PUSH1 0xFF AND PUSH2 0xD68 JUMPI PUSH1 0x40 MLOAD PUSH32 0x8C379A000000000000000000000000000000000000000000000000000000000 DUP2 MSTORE PUSH1 0x4 ADD PUSH2 0xD5F SWAP1 PUSH2 0x1A91 JUMP JUMPDEST PUSH1 0x40 MLOAD DUP1 SWAP2 SUB SWAP1 REVERT JUMPDEST PUSH1 0x0 PUSH1 0x8 PUSH1 0x0 DUP4 DUP2 MSTORE PUSH1 0x20 ADD SWAP1 DUP2 MSTORE PUSH1 0x20 ADD PUSH1 0x0 KECCAK256 SWAP1 POP PUSH1 0x1 PUSH1 0x6 PUSH1 0x0 CALLER PUSH20 0xFFFFFFFFFFFFFFFFFFFFFFFFFFFFFFFFFFFFFFFF AND PUSH20 0xFFFFFFFFFFFFFFFFFFFFFFFFFFFFFFFFFFFFFFFF AND DUP2 MSTORE PUSH1 0x20 ADD SWAP1 DUP2 MSTORE PUSH1 0x20 ADD PUSH1 0x0 KECCAK256 SLOAD LT ISZERO PUSH2 0xE02 JUMPI PUSH1 0x40 MLOAD PUSH32 0x8C379A000000000000000000000000000000000000000000000000000000000 DUP2 MSTORE PUSH1 0x4 ADD PUSH2 0xDF9 SWAP1 PUSH2 0x19AF JUMP JUMPDEST PUSH1 0x40 MLOAD DUP1 SWAP2 SUB SWAP1 REVERT JUMPDEST PUSH1 0x6 PUSH1 0x0 CALLER PUSH20 0xFFFFFFFFFFFFFFFFFFFFFFFFFFFFFFFFFFFFFFFF AND PUSH20 0xFFFFFFFFFFFFFFFFFFFFFFFFFFFFFFFFFFFFFFFF AND DUP2 MSTORE PUSH1 0x20 ADD SWAP1 DUP2 MSTORE PUSH1 0x20 ADD PUSH1 0x0 KECCAK256 PUSH1 0x0 DUP2 SLOAD DUP1 SWAP3 SWAP2 SWAP1 PUSH2 0xE52 SWAP1 PUSH2 0x19CF JUMP JUMPDEST SWAP2 SWAP1 POP SSTORE POP DUP1 PUSH1 0x4 ADD PUSH1 0x0 DUP2 SLOAD DUP1 SWAP3 SWAP2 SWAP1 PUSH2 0xE6C SWAP1 PUSH2 0x177A JUMP JUMPDEST SWAP2 SWAP1 POP SSTORE POP PUSH1 0x4 PUSH1 0x0 DUP2 SLOAD DUP1 SWAP3 SWAP2 SWAP1 PUSH2 0xE84 SWAP1 PUSH2 0x19CF JUMP JUMPDEST SWAP2 SWAP1 POP SSTORE POP POP POP JUMP JUMPDEST PUSH1 0x0 PUSH1 0x3 SLOAD SWAP1 POP SWAP1 JUMP JUMPDEST DUP3 DUP1 SLOAD PUSH2 0xEA3 SWAP1 PUSH2 0x1748 JUMP JUMPDEST SWAP1 PUSH1 0x0 MSTORE PUSH1 0x20 PUSH1 0x0 KECCAK256 SWAP1 PUSH1 0x1F ADD PUSH1 0x20 SWAP1 DIV DUP2 ADD SWAP3 DUP3 PUSH2 0xEC5 JUMPI PUSH1 0x0 DUP6 SSTORE PUSH2 0xF0C JUMP JUMPDEST DUP3 PUSH1 0x1F LT PUSH2 0xEDE JUMPI DUP1 MLOAD PUSH1 0xFF NOT AND DUP4 DUP1 ADD OR DUP6 SSTORE PUSH2 0xF0C JUMP JUMPDEST DUP3 DUP1 ADD PUSH1 0x1 ADD DUP6 SSTORE DUP3 ISZERO PUSH2 0xF0C JUMPI SWAP2 DUP3 ADD JUMPDEST DUP3 DUP2 GT ISZERO PUSH2 0xF0B JUMPI DUP3 MLOAD DUP3 SSTORE SWAP2 PUSH1 0x20 ADD SWAP2 SWAP1 PUSH1 0x1 ADD SWAP1 PUSH2 0xEF0 JUMP JUMPDEST JUMPDEST POP SWAP1 POP PUSH2 0xF19 SWAP2 SWAP1 PUSH2 0xF1D JUMP JUMPDEST POP SWAP1 JUMP JUMPDEST JUMPDEST DUP1 DUP3 GT ISZERO PUSH2 0xF36 JUMPI PUSH1 0x0 DUP2 PUSH1 0x0 SWAP1 SSTORE POP PUSH1 0x1 ADD PUSH2 0xF1E JUMP JUMPDEST POP SWAP1 JUMP JUMPDEST PUSH1 0x0 PUSH1 0x40 MLOAD SWAP1 POP SWAP1 JUMP JUMPDEST PUSH1 0x0 DUP1 REVERT JUMPDEST PUSH1 0x0 DUP1 REVERT JUMPDEST PUSH1 0x0 DUP2 SWAP1 POP SWAP2 SWAP1 POP JUMP JUMPDEST PUSH2 0xF61 DUP2 PUSH2 0xF4E JUMP JUMPDEST DUP2 EQ PUSH2 0xF6C JUMPI PUSH1 0x0 DUP1 REVERT JUMPDEST POP JUMP JUMPDEST PUSH1 0x0 DUP2 CALLDATALOAD SWAP1 POP PUSH2 0xF7E DUP2 PUSH2 0xF58 JUMP JUMPDEST SWAP3 SWAP2 POP POP JUMP JUMPDEST PUSH1 0x0 PUSH1 0x20 DUP3 DUP5 SUB SLT ISZERO PUSH2 0xF9A JUMPI PUSH2 0xF99 PUSH2 0xF44 JUMP JUMPDEST JUMPDEST PUSH1 0x0 PUSH2 0xFA8 DUP5 DUP3 DUP6 ADD PUSH2 0xF6F JUMP JUMPDEST SWAP2 POP POP SWAP3 SWAP2 POP POP JUMP JUMPDEST PUSH1 0x0 DUP2 MLOAD SWAP1 POP SWAP2 SWAP1 POP JUMP JUMPDEST PUSH1 0x0 DUP3 DUP3 MSTORE PUSH1 0x20 DUP3 ADD SWAP1 POP SWAP3 SWAP2 POP POP JUMP JUMPDEST PUSH1 0x0 JUMPDEST DUP4 DUP2 LT ISZERO PUSH2 0xFEB JUMPI DUP1 DUP3 ADD MLOAD DUP2 DUP5 ADD MSTORE PUSH1 0x20 DUP2 ADD SWAP1 POP PUSH2 0xFD0 JUMP JUMPDEST DUP4 DUP2 GT ISZERO PUSH2 0xFFA JUMPI PUSH1 0x0 DUP5 DUP5 ADD MSTORE JUMPDEST POP POP POP POP JUMP JUMPDEST PUSH1 0x0 PUSH1 0x1F NOT PUSH1 0x1F DUP4 ADD AND SWAP1 POP SWAP2 SWAP1 POP JUMP JUMPDEST PUSH1 0x0 PUSH2 0x101C DUP3 PUSH2 0xFB1 JUMP JUMPDEST PUSH2 0x1026 DUP2 DUP6 PUSH2 0xFBC JUMP JUMPDEST SWAP4 POP PUSH2 0x1036 DUP2 DUP6 PUSH1 0x20 DUP7 ADD PUSH2 0xFCD JUMP JUMPDEST PUSH2 0x103F DUP2 PUSH2 0x1000 JUMP JUMPDEST DUP5 ADD SWAP2 POP POP SWAP3 SWAP2 POP POP JUMP JUMPDEST PUSH1 0x0 PUSH1 0x20 DUP3 ADD SWAP1 POP DUP2 DUP2 SUB PUSH1 0x0 DUP4 ADD MSTORE PUSH2 0x1064 DUP2 DUP5 PUSH2 0x1011 JUMP JUMPDEST SWAP1 POP SWAP3 SWAP2 POP POP JUMP JUMPDEST PUSH1 0x0 PUSH20 0xFFFFFFFFFFFFFFFFFFFFFFFFFFFFFFFFFFFFFFFF DUP3 AND SWAP1 POP SWAP2 SWAP1 POP JUMP JUMPDEST PUSH1 0x0 PUSH2 0x1097 DUP3 PUSH2 0x106C JUMP JUMPDEST SWAP1 POP SWAP2 SWAP1 POP JUMP JUMPDEST PUSH2 0x10A7 DUP2 PUSH2 0x108C JUMP JUMPDEST DUP3 MSTORE POP POP JUMP JUMPDEST PUSH1 0x0 PUSH1 0x20 DUP3 ADD SWAP1 POP PUSH2 0x10C2 PUSH1 0x0 DUP4 ADD DUP5 PUSH2 0x109E JUMP JUMPDEST SWAP3 SWAP2 POP POP JUMP JUMPDEST PUSH2 0x10D1 DUP2 PUSH2 0xF4E JUMP JUMPDEST DUP3 MSTORE POP POP JUMP JUMPDEST PUSH1 0x0 PUSH2 0x10E2 DUP3 PUSH2 0x106C JUMP JUMPDEST SWAP1 POP SWAP2 SWAP1 POP JUMP JUMPDEST PUSH2 0x10F2 DUP2 PUSH2 0x10D7 JUMP JUMPDEST DUP3 MSTORE POP POP JUMP JUMPDEST PUSH1 0x0 DUP2 ISZERO ISZERO SWAP1 POP SWAP2 SWAP1 POP JUMP JUMPDEST PUSH2 0x110D DUP2 PUSH2 0x10F8 JUMP JUMPDEST DUP3 MSTORE POP POP JUMP JUMPDEST PUSH1 0x0 PUSH1 0xC0 DUP3 ADD SWAP1 POP DUP2 DUP2 SUB PUSH1 0x0 DUP4 ADD MSTORE PUSH2 0x112D DUP2 DUP10 PUSH2 0x1011 JUMP JUMPDEST SWAP1 POP PUSH2 0x113C PUSH1 0x20 DUP4 ADD DUP9 PUSH2 0x10C8 JUMP JUMPDEST PUSH2 0x1149 PUSH1 0x40 DUP4 ADD DUP8 PUSH2 0x10E9 JUMP JUMPDEST PUSH2 0x1156 PUSH1 0x60 DUP4 ADD DUP7 PUSH2 0x1104 JUMP JUMPDEST PUSH2 0x1163 PUSH1 0x80 DUP4 ADD DUP6 PUSH2 0x10C8 JUMP JUMPDEST PUSH2 0x1170 PUSH1 0xA0 DUP4 ADD DUP5 PUSH2 0x10C8 JUMP JUMPDEST SWAP8 SWAP7 POP POP POP POP POP POP POP JUMP JUMPDEST PUSH1 0x0 DUP1 REVERT JUMPDEST PUSH1 0x0 DUP1 REVERT JUMPDEST PUSH32 0x4E487B7100000000000000000000000000000000000000000000000000000000 PUSH1 0x0 MSTORE PUSH1 0x41 PUSH1 0x4 MSTORE PUSH1 0x24 PUSH1 0x0 REVERT JUMPDEST PUSH2 0x11BD DUP3 PUSH2 0x1000 JUMP JUMPDEST DUP2 ADD DUP2 DUP2 LT PUSH8 0xFFFFFFFFFFFFFFFF DUP3 GT OR ISZERO PUSH2 0x11DC JUMPI PUSH2 0x11DB PUSH2 0x1185 JUMP JUMPDEST JUMPDEST DUP1 PUSH1 0x40 MSTORE POP POP POP JUMP JUMPDEST PUSH1 0x0 PUSH2 0x11EF PUSH2 0xF3A JUMP JUMPDEST SWAP1 POP PUSH2 0x11FB DUP3 DUP3 PUSH2 0x11B4 JUMP JUMPDEST SWAP2 SWAP1 POP JUMP JUMPDEST PUSH1 0x0 PUSH8 0xFFFFFFFFFFFFFFFF DUP3 GT ISZERO PUSH2 0x121B JUMPI PUSH2 0x121A PUSH2 0x1185 JUMP JUMPDEST JUMPDEST PUSH2 0x1224 DUP3 PUSH2 0x1000 JUMP JUMPDEST SWAP1 POP PUSH1 0x20 DUP2 ADD SWAP1 POP SWAP2 SWAP1 POP JUMP JUMPDEST DUP3 DUP2 DUP4 CALLDATACOPY PUSH1 0x0 DUP4 DUP4 ADD MSTORE POP POP POP JUMP JUMPDEST PUSH1 0x0 PUSH2 0x1253 PUSH2 0x124E DUP5 PUSH2 0x1200 JUMP JUMPDEST PUSH2 0x11E5 JUMP JUMPDEST SWAP1 POP DUP3 DUP2 MSTORE PUSH1 0x20 DUP2 ADD DUP5 DUP5 DUP5 ADD GT ISZERO PUSH2 0x126F JUMPI PUSH2 0x126E PUSH2 0x1180 JUMP JUMPDEST JUMPDEST PUSH2 0x127A DUP5 DUP3 DUP6 PUSH2 0x1231 JUMP JUMPDEST POP SWAP4 SWAP3 POP POP POP JUMP JUMPDEST PUSH1 0x0 DUP3 PUSH1 0x1F DUP4 ADD SLT PUSH2 0x1297 JUMPI PUSH2 0x1296 PUSH2 0x117B JUMP JUMPDEST JUMPDEST DUP2 CALLDATALOAD PUSH2 0x12A7 DUP5 DUP3 PUSH1 0x20 DUP7 ADD PUSH2 0x1240 JUMP JUMPDEST SWAP2 POP POP SWAP3 SWAP2 POP POP JUMP JUMPDEST PUSH2 0x12B9 DUP2 PUSH2 0x10D7 JUMP JUMPDEST DUP2 EQ PUSH2 0x12C4 JUMPI PUSH1 0x0 DUP1 REVERT JUMPDEST POP JUMP JUMPDEST PUSH1 0x0 DUP2 CALLDATALOAD SWAP1 POP PUSH2 0x12D6 DUP2 PUSH2 0x12B0 JUMP JUMPDEST SWAP3 SWAP2 POP POP JUMP JUMPDEST PUSH1 0x0 DUP1 PUSH1 0x0 PUSH1 0x60 DUP5 DUP7 SUB SLT ISZERO PUSH2 0x12F5 JUMPI PUSH2 0x12F4 PUSH2 0xF44 JUMP JUMPDEST JUMPDEST PUSH1 0x0 DUP5 ADD CALLDATALOAD PUSH8 0xFFFFFFFFFFFFFFFF DUP2 GT ISZERO PUSH2 0x1313 JUMPI PUSH2 0x1312 PUSH2 0xF49 JUMP JUMPDEST JUMPDEST PUSH2 0x131F DUP7 DUP3 DUP8 ADD PUSH2 0x1282 JUMP JUMPDEST SWAP4 POP POP PUSH1 0x20 PUSH2 0x1330 DUP7 DUP3 DUP8 ADD PUSH2 0xF6F JUMP JUMPDEST SWAP3 POP POP PUSH1 0x40 PUSH2 0x1341 DUP7 DUP3 DUP8 ADD PUSH2 0x12C7 JUMP JUMPDEST SWAP2 POP POP SWAP3 POP SWAP3 POP SWAP3 JUMP JUMPDEST PUSH1 0x0 PUSH1 0xC0 DUP3 ADD SWAP1 POP DUP2 DUP2 SUB PUSH1 0x0 DUP4 ADD MSTORE PUSH2 0x1365 DUP2 DUP10 PUSH2 0x1011 JUMP JUMPDEST SWAP1 POP PUSH2 0x1374 PUSH1 0x20 DUP4 ADD DUP9 PUSH2 0x10C8 JUMP JUMPDEST PUSH2 0x1381 PUSH1 0x40 DUP4 ADD DUP8 PUSH2 0x10C8 JUMP JUMPDEST PUSH2 0x138E PUSH1 0x60 DUP4 ADD DUP7 PUSH2 0x10C8 JUMP JUMPDEST PUSH2 0x139B PUSH1 0x80 DUP4 ADD DUP6 PUSH2 0x10C8 JUMP JUMPDEST PUSH2 0x13A8 PUSH1 0xA0 DUP4 ADD DUP5 PUSH2 0x109E JUMP JUMPDEST SWAP8 SWAP7 POP POP POP POP POP POP POP JUMP JUMPDEST PUSH1 0x0 PUSH1 0x20 DUP3 ADD SWAP1 POP PUSH2 0x13C8 PUSH1 0x0 DUP4 ADD DUP5 PUSH2 0x10C8 JUMP JUMPDEST SWAP3 SWAP2 POP POP JUMP JUMPDEST PUSH2 0x13D7 DUP2 PUSH2 0x108C JUMP JUMPDEST DUP2 EQ PUSH2 0x13E2 JUMPI PUSH1 0x0 DUP1 REVERT JUMPDEST POP JUMP JUMPDEST PUSH1 0x0 DUP2 CALLDATALOAD SWAP1 POP PUSH2 0x13F4 DUP2 PUSH2 0x13CE JUMP JUMPDEST SWAP3 SWAP2 POP POP JUMP JUMPDEST PUSH1 0x0 PUSH1 0x20 DUP3 DUP5 SUB SLT ISZERO PUSH2 0x1410 JUMPI PUSH2 0x140F PUSH2 0xF44 JUMP JUMPDEST JUMPDEST PUSH1 0x0 PUSH2 0x141E DUP5 DUP3 DUP6 ADD PUSH2 0x13E5 JUMP JUMPDEST SWAP2 POP POP SWAP3 SWAP2 POP POP JUMP JUMPDEST PUSH1 0x0 PUSH1 0x20 DUP3 ADD SWAP1 POP PUSH2 0x143C PUSH1 0x0 DUP4 ADD DUP5 PUSH2 0x1104 JUMP JUMPDEST SWAP3 SWAP2 POP POP JUMP JUMPDEST PUSH32 0x4F6E6C79204D616E616765722063616E2075736572207468697320616374696F PUSH1 0x0 DUP3 ADD MSTORE PUSH32 0x6E00000000000000000000000000000000000000000000000000000000000000 PUSH1 0x20 DUP3 ADD MSTORE POP JUMP JUMPDEST PUSH1 0x0 PUSH2 0x149E PUSH1 0x21 DUP4 PUSH2 0xFBC JUMP JUMPDEST SWAP2 POP PUSH2 0x14A9 DUP3 PUSH2 0x1442 JUMP JUMPDEST PUSH1 0x40 DUP3 ADD SWAP1 POP SWAP2 SWAP1 POP JUMP JUMPDEST PUSH1 0x0 PUSH1 0x20 DUP3 ADD SWAP1 POP DUP2 DUP2 SUB PUSH1 0x0 DUP4 ADD MSTORE PUSH2 0x14CD DUP2 PUSH2 0x1491 JUMP JUMPDEST SWAP1 POP SWAP2 SWAP1 POP JUMP JUMPDEST PUSH32 0x4E487B7100000000000000000000000000000000000000000000000000000000 PUSH1 0x0 MSTORE PUSH1 0x12 PUSH1 0x4 MSTORE PUSH1 0x24 PUSH1 0x0 REVERT JUMPDEST PUSH32 0x4E487B7100000000000000000000000000000000000000000000000000000000 PUSH1 0x0 MSTORE PUSH1 0x11 PUSH1 0x4 MSTORE PUSH1 0x24 PUSH1 0x0 REVERT JUMPDEST PUSH1 0x0 PUSH2 0x153D DUP3 PUSH2 0xF4E JUMP JUMPDEST SWAP2 POP PUSH2 0x1548 DUP4 PUSH2 0xF4E JUMP JUMPDEST SWAP3 POP DUP3 PUSH2 0x1558 JUMPI PUSH2 0x1557 PUSH2 0x14D4 JUMP JUMPDEST JUMPDEST DUP3 DUP3 DIV SWAP1 POP SWAP3 SWAP2 POP POP JUMP JUMPDEST PUSH32 0x596F75206E656564206D6F726520766F74657320746F2066696E616C697A6520 PUSH1 0x0 DUP3 ADD MSTORE PUSH32 0x796F757220726571756573742021000000000000000000000000000000000000 PUSH1 0x20 DUP3 ADD MSTORE POP JUMP JUMPDEST PUSH1 0x0 PUSH2 0x15BF PUSH1 0x2E DUP4 PUSH2 0xFBC JUMP JUMPDEST SWAP2 POP PUSH2 0x15CA DUP3 PUSH2 0x1563 JUMP JUMPDEST PUSH1 0x40 DUP3 ADD SWAP1 POP SWAP2 SWAP1 POP JUMP JUMPDEST PUSH1 0x0 PUSH1 0x20 DUP3 ADD SWAP1 POP DUP2 DUP2 SUB PUSH1 0x0 DUP4 ADD MSTORE PUSH2 0x15EE DUP2 PUSH2 0x15B2 JUMP JUMPDEST SWAP1 POP SWAP2 SWAP1 POP JUMP JUMPDEST PUSH32 0x596F75206E656564206D6F726520617070726F76616C73206265666F72652066 PUSH1 0x0 DUP3 ADD MSTORE PUSH32 0x696E616C697A6520796F757220726571756573742E0000000000000000000000 PUSH1 0x20 DUP3 ADD MSTORE POP JUMP JUMPDEST PUSH1 0x0 PUSH2 0x1651 PUSH1 0x35 DUP4 PUSH2 0xFBC JUMP JUMPDEST SWAP2 POP PUSH2 0x165C DUP3 PUSH2 0x15F5 JUMP JUMPDEST PUSH1 0x40 DUP3 ADD SWAP1 POP SWAP2 SWAP1 POP JUMP JUMPDEST PUSH1 0x0 PUSH1 0x20 DUP3 ADD SWAP1 POP DUP2 DUP2 SUB PUSH1 0x0 DUP4 ADD MSTORE PUSH2 0x1680 DUP2 PUSH2 0x1644 JUMP JUMPDEST SWAP1 POP SWAP2 SWAP1 POP JUMP JUMPDEST PUSH32 0x5468697320726571756573742068617320616C7265616479206265656E206669 PUSH1 0x0 DUP3 ADD MSTORE PUSH32 0x6E616C697A656400000000000000000000000000000000000000000000000000 PUSH1 0x20 DUP3 ADD MSTORE POP JUMP JUMPDEST PUSH1 0x0 PUSH2 0x16E3 PUSH1 0x27 DUP4 PUSH2 0xFBC JUMP JUMPDEST SWAP2 POP PUSH2 0x16EE DUP3 PUSH2 0x1687 JUMP JUMPDEST PUSH1 0x40 DUP3 ADD SWAP1 POP SWAP2 SWAP1 POP JUMP JUMPDEST PUSH1 0x0 PUSH1 0x20 DUP3 ADD SWAP1 POP DUP2 DUP2 SUB PUSH1 0x0 DUP4 ADD MSTORE PUSH2 0x1712 DUP2 PUSH2 0x16D6 JUMP JUMPDEST SWAP1 POP SWAP2 SWAP1 POP JUMP JUMPDEST PUSH32 0x4E487B7100000000000000000000000000000000000000000000000000000000 PUSH1 0x0 MSTORE PUSH1 0x22 PUSH1 0x4 MSTORE PUSH1 0x24 PUSH1 0x0 REVERT JUMPDEST PUSH1 0x0 PUSH1 0x2 DUP3 DIV SWAP1 POP PUSH1 0x1 DUP3 AND DUP1 PUSH2 0x1760 JUMPI PUSH1 0x7F DUP3 AND SWAP2 POP JUMPDEST PUSH1 0x20 DUP3 LT DUP2 EQ ISZERO PUSH2 0x1774 JUMPI PUSH2 0x1773 PUSH2 0x1719 JUMP JUMPDEST JUMPDEST POP SWAP2 SWAP1 POP JUMP JUMPDEST PUSH1 0x0 PUSH2 0x1785 DUP3 PUSH2 0xF4E JUMP JUMPDEST SWAP2 POP PUSH32 0xFFFFFFFFFFFFFFFFFFFFFFFFFFFFFFFFFFFFFFFFFFFFFFFFFFFFFFFFFFFFFFFF DUP3 EQ ISZERO PUSH2 0x17B8 JUMPI PUSH2 0x17B7 PUSH2 0x1503 JUMP JUMPDEST JUMPDEST PUSH1 0x1 DUP3 ADD SWAP1 POP SWAP2 SWAP1 POP JUMP JUMPDEST PUSH32 0x41206D696E696D756D20636F6E747269627574696F6E20697320726571756972 PUSH1 0x0 DUP3 ADD MSTORE PUSH32 0x6564000000000000000000000000000000000000000000000000000000000000 PUSH1 0x20 DUP3 ADD MSTORE POP JUMP JUMPDEST PUSH1 0x0 PUSH2 0x181F PUSH1 0x22 DUP4 PUSH2 0xFBC JUMP JUMPDEST SWAP2 POP PUSH2 0x182A DUP3 PUSH2 0x17C3 JUMP JUMPDEST PUSH1 0x40 DUP3 ADD SWAP1 POP SWAP2 SWAP1 POP JUMP JUMPDEST PUSH1 0x0 PUSH1 0x20 DUP3 ADD SWAP1 POP DUP2 DUP2 SUB PUSH1 0x0 DUP4 ADD MSTORE PUSH2 0x184E DUP2 PUSH2 0x1812 JUMP JUMPDEST SWAP1 POP SWAP2 SWAP1 POP JUMP JUMPDEST PUSH1 0x0 PUSH2 0x1860 DUP3 PUSH2 0xF4E JUMP JUMPDEST SWAP2 POP PUSH2 0x186B DUP4 PUSH2 0xF4E JUMP JUMPDEST SWAP3 POP DUP3 PUSH32 0xFFFFFFFFFFFFFFFFFFFFFFFFFFFFFFFFFFFFFFFFFFFFFFFFFFFFFFFFFFFFFFFF SUB DUP3 GT ISZERO PUSH2 0x18A0 JUMPI PUSH2 0x189F PUSH2 0x1503 JUMP JUMPDEST JUMPDEST DUP3 DUP3 ADD SWAP1 POP SWAP3 SWAP2 POP POP JUMP JUMPDEST PUSH32 0x4F6E6C7920436F6E7472696275746F7273206D617920617070726F7665206120 PUSH1 0x0 DUP3 ADD MSTORE PUSH32 0x737065636966696320726571756573742066726F6D204D616E616765722E0000 PUSH1 0x20 DUP3 ADD MSTORE POP JUMP JUMPDEST PUSH1 0x0 PUSH2 0x1907 PUSH1 0x3E DUP4 PUSH2 0xFBC JUMP JUMPDEST SWAP2 POP PUSH2 0x1912 DUP3 PUSH2 0x18AB JUMP JUMPDEST PUSH1 0x40 DUP3 ADD SWAP1 POP SWAP2 SWAP1 POP JUMP JUMPDEST PUSH1 0x0 PUSH1 0x20 DUP3 ADD SWAP1 POP DUP2 DUP2 SUB PUSH1 0x0 DUP4 ADD MSTORE PUSH2 0x1936 DUP2 PUSH2 0x18FA JUMP JUMPDEST SWAP1 POP SWAP2 SWAP1 POP JUMP JUMPDEST PUSH32 0x596F75206E656564206D6F726520636F6E747269627574696F6E20746F20766F PUSH1 0x0 DUP3 ADD MSTORE PUSH32 0x7465202100000000000000000000000000000000000000000000000000000000 PUSH1 0x20 DUP3 ADD MSTORE POP JUMP JUMPDEST PUSH1 0x0 PUSH2 0x1999 PUSH1 0x24 DUP4 PUSH2 0xFBC JUMP JUMPDEST SWAP2 POP PUSH2 0x19A4 DUP3 PUSH2 0x193D JUMP JUMPDEST PUSH1 0x40 DUP3 ADD SWAP1 POP SWAP2 SWAP1 POP JUMP JUMPDEST PUSH1 0x0 PUSH1 0x20 DUP3 ADD SWAP1 POP DUP2 DUP2 SUB PUSH1 0x0 DUP4 ADD MSTORE PUSH2 0x19C8 DUP2 PUSH2 0x198C JUMP JUMPDEST SWAP1 POP SWAP2 SWAP1 POP JUMP JUMPDEST PUSH1 0x0 PUSH2 0x19DA DUP3 PUSH2 0xF4E JUMP JUMPDEST SWAP2 POP PUSH1 0x0 DUP3 EQ ISZERO PUSH2 0x19EE JUMPI PUSH2 0x19ED PUSH2 0x1503 JUMP JUMPDEST JUMPDEST PUSH1 0x1 DUP3 SUB SWAP1 POP SWAP2 SWAP1 POP JUMP JUMPDEST PUSH32 0x4F6E6C7920436F6E7472696275746F7273206D617920646973617070726F7665 PUSH1 0x0 DUP3 ADD MSTORE PUSH32 0x206120737065636966696320726571756573742066726F6D204D616E61676572 PUSH1 0x20 DUP3 ADD MSTORE PUSH32 0x2E00000000000000000000000000000000000000000000000000000000000000 PUSH1 0x40 DUP3 ADD MSTORE POP JUMP JUMPDEST PUSH1 0x0 PUSH2 0x1A7B PUSH1 0x41 DUP4 PUSH2 0xFBC JUMP JUMPDEST SWAP2 POP PUSH2 0x1A86 DUP3 PUSH2 0x19F9 JUMP JUMPDEST PUSH1 0x60 DUP3 ADD SWAP1 POP SWAP2 SWAP1 POP JUMP JUMPDEST PUSH1 0x0 PUSH1 0x20 DUP3 ADD SWAP1 POP DUP2 DUP2 SUB PUSH1 0x0 DUP4 ADD MSTORE PUSH2 0x1AAA DUP2 PUSH2 0x1A6E JUMP JUMPDEST SWAP1 POP SWAP2 SWAP1 POP JUMP INVALID LOG2 PUSH5 0x6970667358 0x22 SLT KECCAK256 CODECOPY TIMESTAMP 0xB5 0xBE 0xB0 0x2F SWAP3 DUP2 SHR 0xC1 0x2A PUSH14 0x78F3AFF10C6433A4618113BFB72E 0xAE DUP3 0xFC GAS 0x5C 0xE0 PUSH5 0x736F6C6343 STOP ADDMOD EXP STOP CALLER "},"gasEstimates":{"creation":{"codeDepositCost":"1377400","executionCost":"infinite","totalCost":"infinite"},"external":{"approveRequest(uint256)":"infinite","balanceOfContributor(address)":"2859","campaignDescription()":"infinite","contribute()":"infinite","contributor(address)":"2934","createRequest(string,uint256,address)":"infinite","disapproveRequest(uint256)":"infinite","finalizeRequest(uint256)":"infinite","getAllRequests()":"2525","getResume()":"infinite","manager()":"2579","minimumContribution()":"2518","numRequests()":"2452","requests(uint256)":"infinite","voicesCount()":"2496"}},"methodIdentifiers":{"approveRequest(uint256)":"d7d1bbdb","balanceOfContributor(address)":"bca5b828","campaignDescription()":"110842cb","contribute()":"d7bb99ba","contributor(address)":"ceb35605","createRequest(string,uint256,address)":"8a9cfd55","disapproveRequest(uint256)":"f8439dc7","finalizeRequest(uint256)":"03441006","getAllRequests()":"fb1a002a","getResume()":"923eda37","manager()":"481c6a75","minimumContribution()":"937e09b1","numRequests()":"9fb42b1f","requests(uint256)":"81d12c58","voicesCount()":"c73e5972"}},"storageLayout":{"storage":[{"astId":44,"contract":"kickstarter.sol:kickstarter","label":"manager","offset":0,"slot":"0","type":"t_address"},{"astId":46,"contract":"kickstarter.sol:kickstarter","label":"minimumContribution","offset":0,"slot":"1","type":"t_uint256"},{"astId":48,"contract":"kickstarter.sol:kickstarter","label":"campaignDescription","offset":0,"slot":"2","type":"t_string_storage"},{"astId":50,"contract":"kickstarter.sol:kickstarter","label":"numRequests","offset":0,"slot":"3","type":"t_uint256"},{"astId":52,"contract":"kickstarter.sol:kickstarter","label":"voicesCount","offset":0,"slot":"4","type":"t_uint256"},{"astId":56,"contract":"kickstarter.sol:kickstarter","label":"contributor","offset":0,"slot":"5","type":"t_mapping(t_address,t_bool)"},{"astId":60,"contract":"kickstarter.sol:kickstarter","label":"participationVoices","offset":0,"slot":"6","type":"t_mapping(t_address,t_uint256)"},{"astId":64,"contract":"kickstarter.sol:kickstarter","label":"balanceOfContributor","offset":0,"slot":"7","type":"t_mapping(t_address,t_uint256)"},{"astId":69,"contract":"kickstarter.sol:kickstarter","label":"requests","offset":0,"slot":"8","type":"t_mapping(t_uint256,t_struct(Request)82_storage)"}],"types":{"t_address":{"encoding":"inplace","label":"address","numberOfBytes":"20"},"t_address_payable":{"encoding":"inplace","label":"address payable","numberOfBytes":"20"},"t_bool":{"encoding":"inplace","label":"bool","numberOfBytes":"1"},"t_mapping(t_address,t_bool)":{"encoding":"mapping","key":"t_address","label":"mapping(address => bool)","numberOfBytes":"32","value":"t_bool"},"t_mapping(t_address,t_uint256)":{"encoding":"mapping","key":"t_address","label":"mapping(address => uint256)","numberOfBytes":"32","value":"t_uint256"},"t_mapping(t_uint256,t_struct(Request)82_storage)":{"encoding":"mapping","key":"t_uint256","label":"mapping(uint256 => struct kickstarter.Request)","numberOfBytes":"32","value":"t_struct(Request)82_storage"},"t_string_storage":{"encoding":"bytes","label":"string","numberOfBytes":"32"},"t_struct(Request)82_storage":{"encoding":"inplace","label":"struct kickstarter.Request","members":[{"astId":71,"contract":"kickstarter.sol:kickstarter","label":"description","offset":0,"slot":"0","type":"t_string_storage"},{"astId":73,"contract":"kickstarter.sol:kickstarter","label":"value","offset":0,"slot":"1","type":"t_uint256"},{"astId":75,"contract":"kickstarter.sol:kickstarter","label":"recipient","offset":0,"slot":"2","type":"t_address_payable"},{"astId":77,"contract":"kickstarter.sol:kickstarter","label":"complete","offset":20,"slot":"2","type":"t_bool"},{"astId":79,"contract":"kickstarter.sol:kickstarter","label":"approvalCount","offset":0,"slot":"3","type":"t_uint256"},{"astId":81,"contract":"kickstarter.sol:kickstarter","label":"disapprovalCount","offset":0,"slot":"4","type":"t_uint256"}],"numberOfBytes":"160"},"t_uint256":{"encoding":"inplace","label":"uint256","numberOfBytes":"32"}}},"userdoc":{"kind":"user","methods":{},"version":1}}