{
  "_format": "hh-sol-artifact-1",
  "contractName": "PoetryWall",
  "sourceName": "Contracts/PoetryWall.sol",
  "abi": [
    {
      "inputs": [],
      "stateMutability": "payable",
      "type": "constructor"
    },
    {
      "anonymous": false,
      "inputs": [
        {
          "indexed": true,
          "internalType": "address",
          "name": "from",
          "type": "address"
        },
        {
          "indexed": false,
          "internalType": "string",
          "name": "name",
          "type": "string"
        },
        {
          "indexed": false,
          "internalType": "string",
          "name": "title",
          "type": "string"
        },
        {
          "indexed": false,
          "internalType": "string",
          "name": "text",
          "type": "string"
        },
        {
          "indexed": false,
          "internalType": "uint256",
          "name": "timestamp",
          "type": "uint256"
        }
      ],
      "name": "NewPoem",
      "type": "event"
    },
    {
      "inputs": [],
      "name": "getAllPoems",
      "outputs": [
        {
          "components": [
            {
              "internalType": "address",
              "name": "author",
              "type": "address"
            },
            {
              "internalType": "string",
              "name": "name",
              "type": "string"
            },
            {
              "internalType": "string",
              "name": "title",
              "type": "string"
            },
            {
              "internalType": "string",
              "name": "text",
              "type": "string"
            },
            {
              "internalType": "uint256",
              "name": "timestamp",
              "type": "uint256"
            }
          ],
          "internalType": "struct PoetryWall.Line[]",
          "name": "",
          "type": "tuple[]"
        }
      ],
      "stateMutability": "view",
      "type": "function"
    },
    {
      "inputs": [],
      "name": "getTotalPoems",
      "outputs": [
        {
          "internalType": "uint256",
          "name": "",
          "type": "uint256"
        }
      ],
      "stateMutability": "view",
      "type": "function"
    },
    {
      "inputs": [
        {
          "internalType": "address",
          "name": "",
          "type": "address"
        }
      ],
      "name": "lastPoemAt",
      "outputs": [
        {
          "internalType": "uint256",
          "name": "",
          "type": "uint256"
        }
      ],
      "stateMutability": "view",
      "type": "function"
    },
    {
      "inputs": [],
      "name": "manager",
      "outputs": [
        {
          "internalType": "address",
          "name": "",
          "type": "address"
        }
      ],
      "stateMutability": "view",
      "type": "function"
    },
    {
      "inputs": [
        {
          "internalType": "string",
          "name": "_name",
          "type": "string"
        },
        {
          "internalType": "string",
          "name": "_title",
          "type": "string"
        },
        {
          "internalType": "string",
          "name": "_text",
          "type": "string"
        }
      ],
      "name": "poem",
      "outputs": [],
      "stateMutability": "nonpayable",
      "type": "function"
    }
  ],
  "bytecode": "0x60806040526200004f6040518060400160405280601481526020017f506f657472792057616c6c203a20274f4e272021000000000000000000000000815250620000b860201b620008461760201c565b33600160006101000a81548173ffffffffffffffffffffffffffffffffffffffff021916908373ffffffffffffffffffffffffffffffffffffffff16021790555060644442620000a0919062000205565b620000ac9190620002a2565b60028190555062000349565b6200015881604051602401620000cf9190620001c5565b6040516020818303038152906040527f41304fac000000000000000000000000000000000000000000000000000000007bffffffffffffffffffffffffffffffffffffffffffffffffffffffff19166020820180517bffffffffffffffffffffffffffffffffffffffffffffffffffffffff83818316178352505050506200015b60201b60201c565b50565b60008151905060006a636f6e736f6c652e6c6f679050602083016000808483855afa5050505050565b60006200019182620001e9565b6200019d8185620001f4565b9350620001af8185602086016200026c565b620001ba8162000338565b840191505092915050565b60006020820190508181036000830152620001e1818462000184565b905092915050565b600081519050919050565b600082825260208201905092915050565b6000620002128262000262565b91506200021f8362000262565b9250827fffffffffffffffffffffffffffffffffffffffffffffffffffffffffffffffff03821115620002575762000256620002da565b5b828201905092915050565b6000819050919050565b60005b838110156200028c5780820151818401526020810190506200026f565b838111156200029c576000848401525b50505050565b6000620002af8262000262565b9150620002bc8362000262565b925082620002cf57620002ce62000309565b5b828206905092915050565b7f4e487b7100000000000000000000000000000000000000000000000000000000600052601160045260246000fd5b7f4e487b7100000000000000000000000000000000000000000000000000000000600052601260045260246000fd5b6000601f19601f8301169050919050565b61142380620003596000396000f3fe608060405234801561001057600080fd5b50600436106100575760003560e01c80632d361ef21461005c578063481c6a751461007a57806379485ebc146100985780638dda7b87146100c8578063d28fc4ad146100e6575b600080fd5b610064610102565b6040516100719190610e97565b60405180910390f35b610082610377565b60405161008f9190610e7c565b60405180910390f35b6100b260048036038101906100ad9190610b60565b61039d565b6040516100bf9190610ff5565b60405180910390f35b6100d06103b5565b6040516100dd9190610ff5565b60405180910390f35b61010060048036038101906100fb9190610b89565b610400565b005b60606003805480602002602001604051908101604052809291908181526020016000905b8282101561036e57838290600052602060002090600502016040518060a00160405290816000820160009054906101000a900473ffffffffffffffffffffffffffffffffffffffff1673ffffffffffffffffffffffffffffffffffffffff1673ffffffffffffffffffffffffffffffffffffffff1681526020016001820180546101af906111ab565b80601f01602080910402602001604051908101604052809291908181526020018280546101db906111ab565b80156102285780601f106101fd57610100808354040283529160200191610228565b820191906000526020600020905b81548152906001019060200180831161020b57829003601f168201915b50505050508152602001600282018054610241906111ab565b80601f016020809104026020016040519081016040528092919081815260200182805461026d906111ab565b80156102ba5780601f1061028f576101008083540402835291602001916102ba565b820191906000526020600020905b81548152906001019060200180831161029d57829003601f168201915b505050505081526020016003820180546102d3906111ab565b80601f01602080910402602001604051908101604052809291908181526020018280546102ff906111ab565b801561034c5780601f106103215761010080835404028352916020019161034c565b820191906000526020600020905b81548152906001019060200180831161032f57829003601f168201915b5050505050815260200160048201548152505081526020019060010190610126565b50505050905090565b600160009054906101000a900473ffffffffffffffffffffffffffffffffffffffff1681565b60046020528060005260406000206000915090505481565b60006103f86040518060400160405280601b81526020017f5765206361756768742025642074686f756768747320796574202100000000008152506000546108df565b600054905090565b42601e600460003373ffffffffffffffffffffffffffffffffffffffff1673ffffffffffffffffffffffffffffffffffffffff1681526020019081526020016000205461044d91906110d7565b1061048d576040517f08c379a000000000000000000000000000000000000000000000000000000000815260040161048490610fd5565b60405180910390fd5b42600460003373ffffffffffffffffffffffffffffffffffffffff1673ffffffffffffffffffffffffffffffffffffffff1681526020019081526020016000208190555060016000808282546104e391906110d7565b925050819055506105296040518060400160405280601c81526020017f2573206a7573742077726f74652061206e69636520706f656d203a29000000008152503361097b565b60036040518060a001604052803373ffffffffffffffffffffffffffffffffffffffff16815260200185815260200184815260200183815260200142815250908060018154018082558091505060019003906000526020600020906005020160009091909190915060008201518160000160006101000a81548173ffffffffffffffffffffffffffffffffffffffff021916908373ffffffffffffffffffffffffffffffffffffffff16021790555060208201518160010190805190602001906105f4929190610a40565b506040820151816002019080519060200190610611929190610a40565b50606082015181600301908051906020019061062e929190610a40565b506080820151816004015550506064600254424461064c91906110d7565b61065691906110d7565b610660919061120e565b6002819055506106a76040518060400160405280601681526020017f52616e646f6d20232067656e6572617465643a202564000000000000000000008152506002546108df565b6032600254116107ed576106f06040518060400160405280600781526020017f257320776f6e21000000000000000000000000000000000000000000000000008152503361097b565b6000655af3107a400090504781111561073e576040517f08c379a000000000000000000000000000000000000000000000000000000000815260040161073590610f95565b60405180910390fd5b60003373ffffffffffffffffffffffffffffffffffffffff168260405161076490610e67565b60006040518083038185875af1925050503d80600081146107a1576040519150601f19603f3d011682016040523d82523d6000602084013e6107a6565b606091505b50509050806107ea576040517f08c379a00000000000000000000000000000000000000000000000000000000081526004016107e190610fb5565b60405180910390fd5b50505b3373ffffffffffffffffffffffffffffffffffffffff167ff968ad5bfc0f4da4bcfeb003cf088ed876f07a10405a9a1cf6ff57594455ea15848484426040516108399493929190610f0b565b60405180910390a2505050565b6108dc8160405160240161085a9190610eb9565b6040516020818303038152906040527f41304fac000000000000000000000000000000000000000000000000000000007bffffffffffffffffffffffffffffffffffffffffffffffffffffffff19166020820180517bffffffffffffffffffffffffffffffffffffffffffffffffffffffff8381831617835250505050610a17565b50565b61097782826040516024016108f5929190610f65565b6040516020818303038152906040527f9710a9d0000000000000000000000000000000000000000000000000000000007bffffffffffffffffffffffffffffffffffffffffffffffffffffffff19166020820180517bffffffffffffffffffffffffffffffffffffffffffffffffffffffff8381831617835250505050610a17565b5050565b610a138282604051602401610991929190610edb565b6040516020818303038152906040527f319af333000000000000000000000000000000000000000000000000000000007bffffffffffffffffffffffffffffffffffffffffffffffffffffffff19166020820180517bffffffffffffffffffffffffffffffffffffffffffffffffffffffff8381831617835250505050610a17565b5050565b60008151905060006a636f6e736f6c652e6c6f679050602083016000808483855afa5050505050565b828054610a4c906111ab565b90600052602060002090601f016020900481019282610a6e5760008555610ab5565b82601f10610a8757805160ff1916838001178555610ab5565b82800160010185558215610ab5579182015b82811115610ab4578251825591602001919060010190610a99565b5b509050610ac29190610ac6565b5090565b5b80821115610adf576000816000905550600101610ac7565b5090565b6000610af6610af184611035565b611010565b905082815260208101848484011115610b0e57600080fd5b610b19848285611169565b509392505050565b600081359050610b30816113d6565b92915050565b600082601f830112610b4757600080fd5b8135610b57848260208601610ae3565b91505092915050565b600060208284031215610b7257600080fd5b6000610b8084828501610b21565b91505092915050565b600080600060608486031215610b9e57600080fd5b600084013567ffffffffffffffff811115610bb857600080fd5b610bc486828701610b36565b935050602084013567ffffffffffffffff811115610be157600080fd5b610bed86828701610b36565b925050604084013567ffffffffffffffff811115610c0a57600080fd5b610c1686828701610b36565b9150509250925092565b6000610c2c8383610dc5565b905092915050565b610c3d8161112d565b82525050565b610c4c8161112d565b82525050565b6000610c5d82611076565b610c678185611099565b935083602082028501610c7985611066565b8060005b85811015610cb55784840389528151610c968582610c20565b9450610ca18361108c565b925060208a01995050600181019050610c7d565b50829750879550505050505092915050565b6000610cd282611081565b610cdc81856110b5565b9350610cec818560208601611178565b610cf5816112fb565b840191505092915050565b6000610d0b82611081565b610d1581856110c6565b9350610d25818560208601611178565b610d2e816112fb565b840191505092915050565b6000610d466034836110c6565b9150610d518261130c565b604082019050919050565b6000610d696027836110c6565b9150610d748261135b565b604082019050919050565b6000610d8c6000836110aa565b9150610d97826113aa565b600082019050919050565b6000610daf6008836110c6565b9150610dba826113ad565b602082019050919050565b600060a083016000830151610ddd6000860182610c34565b5060208301518482036020860152610df58282610cc7565b91505060408301518482036040860152610e0f8282610cc7565b91505060608301518482036060860152610e298282610cc7565b9150506080830151610e3e6080860182610e49565b508091505092915050565b610e528161115f565b82525050565b610e618161115f565b82525050565b6000610e7282610d7f565b9150819050919050565b6000602082019050610e916000830184610c43565b92915050565b60006020820190508181036000830152610eb18184610c52565b905092915050565b60006020820190508181036000830152610ed38184610d00565b905092915050565b60006040820190508181036000830152610ef58185610d00565b9050610f046020830184610c43565b9392505050565b60006080820190508181036000830152610f258187610d00565b90508181036020830152610f398186610d00565b90508181036040830152610f4d8185610d00565b9050610f5c6060830184610e58565b95945050505050565b60006040820190508181036000830152610f7f8185610d00565b9050610f8e6020830184610e58565b9392505050565b60006020820190508181036000830152610fae81610d39565b9050919050565b60006020820190508181036000830152610fce81610d5c565b9050919050565b60006020820190508181036000830152610fee81610da2565b9050919050565b600060208201905061100a6000830184610e58565b92915050565b600061101a61102b565b905061102682826111dd565b919050565b6000604051905090565b600067ffffffffffffffff8211156110505761104f6112cc565b5b611059826112fb565b9050602081019050919050565b6000819050602082019050919050565b600081519050919050565b600081519050919050565b6000602082019050919050565b600082825260208201905092915050565b600081905092915050565b600082825260208201905092915050565b600082825260208201905092915050565b60006110e28261115f565b91506110ed8361115f565b9250827fffffffffffffffffffffffffffffffffffffffffffffffffffffffffffffffff038211156111225761112161123f565b5b828201905092915050565b60006111388261113f565b9050919050565b600073ffffffffffffffffffffffffffffffffffffffff82169050919050565b6000819050919050565b82818337600083830152505050565b60005b8381101561119657808201518184015260208101905061117b565b838111156111a5576000848401525b50505050565b600060028204905060018216806111c357607f821691505b602082108114156111d7576111d661129d565b5b50919050565b6111e6826112fb565b810181811067ffffffffffffffff82111715611205576112046112cc565b5b80604052505050565b60006112198261115f565b91506112248361115f565b9250826112345761123361126e565b5b828206905092915050565b7f4e487b7100000000000000000000000000000000000000000000000000000000600052601160045260246000fd5b7f4e487b7100000000000000000000000000000000000000000000000000000000600052601260045260246000fd5b7f4e487b7100000000000000000000000000000000000000000000000000000000600052602260045260246000fd5b7f4e487b7100000000000000000000000000000000000000000000000000000000600052604160045260246000fd5b6000601f19601f8301169050919050565b7f547279696e6720746f207769746864726177206d6f7265206d6f6e657920746860008201527f616e2074686520636f6e7472616374206861732e000000000000000000000000602082015250565b7f4661696c656420746f207769746864726177206d6f6e65792066726f6d20636f60008201527f6e74726163742e00000000000000000000000000000000000000000000000000602082015250565b50565b7f576169742031356d000000000000000000000000000000000000000000000000600082015250565b6113df8161112d565b81146113ea57600080fd5b5056fea2646970667358221220c1bd8584a810b61756dea7ca347660ed49391615b9d935283ca62ba0fe97610664736f6c63430008040033",
  "linkReferences": {},
  "deployedLinkReferences": {}
}